{
  "contractName": "FWarKey",
  "abi": [
    {
      "anonymous": false,
      "inputs": [
        {
          "indexed": true,
          "internalType": "address",
          "name": "owner",
          "type": "address"
        },
        {
          "indexed": true,
          "internalType": "address",
          "name": "spender",
          "type": "address"
        },
        {
          "indexed": false,
          "internalType": "uint256",
          "name": "value",
          "type": "uint256"
        }
      ],
      "name": "Approval",
      "type": "event"
    },
    {
      "anonymous": false,
      "inputs": [
        {
          "indexed": true,
          "internalType": "bytes32",
          "name": "role",
          "type": "bytes32"
        },
        {
          "indexed": true,
          "internalType": "bytes32",
          "name": "previousAdminRole",
          "type": "bytes32"
        },
        {
          "indexed": true,
          "internalType": "bytes32",
          "name": "newAdminRole",
          "type": "bytes32"
        }
      ],
      "name": "RoleAdminChanged",
      "type": "event"
    },
    {
      "anonymous": false,
      "inputs": [
        {
          "indexed": true,
          "internalType": "bytes32",
          "name": "role",
          "type": "bytes32"
        },
        {
          "indexed": true,
          "internalType": "address",
          "name": "account",
          "type": "address"
        },
        {
          "indexed": true,
          "internalType": "address",
          "name": "sender",
          "type": "address"
        }
      ],
      "name": "RoleGranted",
      "type": "event"
    },
    {
      "anonymous": false,
      "inputs": [
        {
          "indexed": true,
          "internalType": "bytes32",
          "name": "role",
          "type": "bytes32"
        },
        {
          "indexed": true,
          "internalType": "address",
          "name": "account",
          "type": "address"
        },
        {
          "indexed": true,
          "internalType": "address",
          "name": "sender",
          "type": "address"
        }
      ],
      "name": "RoleRevoked",
      "type": "event"
    },
    {
      "anonymous": false,
      "inputs": [
        {
          "indexed": true,
          "internalType": "address",
          "name": "from",
          "type": "address"
        },
        {
          "indexed": true,
          "internalType": "address",
          "name": "to",
          "type": "address"
        },
        {
          "indexed": false,
          "internalType": "uint256",
          "name": "value",
          "type": "uint256"
        }
      ],
      "name": "Transfer",
      "type": "event"
    },
    {
      "inputs": [],
      "name": "DEFAULT_ADMIN_ROLE",
      "outputs": [
        {
          "internalType": "bytes32",
          "name": "",
          "type": "bytes32"
        }
      ],
      "stateMutability": "view",
      "type": "function",
      "constant": true
    },
    {
      "inputs": [],
      "name": "MINTER_ROLE",
      "outputs": [
        {
          "internalType": "bytes32",
          "name": "",
          "type": "bytes32"
        }
      ],
      "stateMutability": "view",
      "type": "function",
      "constant": true
    },
    {
      "inputs": [
        {
          "internalType": "address",
          "name": "owner",
          "type": "address"
        },
        {
          "internalType": "address",
          "name": "spender",
          "type": "address"
        }
      ],
      "name": "allowance",
      "outputs": [
        {
          "internalType": "uint256",
          "name": "",
          "type": "uint256"
        }
      ],
      "stateMutability": "view",
      "type": "function",
      "constant": true
    },
    {
      "inputs": [
        {
          "internalType": "address",
          "name": "spender",
          "type": "address"
        },
        {
          "internalType": "uint256",
          "name": "amount",
          "type": "uint256"
        }
      ],
      "name": "approve",
      "outputs": [
        {
          "internalType": "bool",
          "name": "",
          "type": "bool"
        }
      ],
      "stateMutability": "nonpayable",
      "type": "function"
    },
    {
      "inputs": [
        {
          "internalType": "address",
          "name": "account",
          "type": "address"
        }
      ],
      "name": "balanceOf",
      "outputs": [
        {
          "internalType": "uint256",
          "name": "",
          "type": "uint256"
        }
      ],
      "stateMutability": "view",
      "type": "function",
      "constant": true
    },
    {
      "inputs": [],
      "name": "decimals",
      "outputs": [
        {
          "internalType": "uint8",
          "name": "",
          "type": "uint8"
        }
      ],
      "stateMutability": "view",
      "type": "function",
      "constant": true
    },
    {
      "inputs": [
        {
          "internalType": "address",
          "name": "spender",
          "type": "address"
        },
        {
          "internalType": "uint256",
          "name": "subtractedValue",
          "type": "uint256"
        }
      ],
      "name": "decreaseAllowance",
      "outputs": [
        {
          "internalType": "bool",
          "name": "",
          "type": "bool"
        }
      ],
      "stateMutability": "nonpayable",
      "type": "function"
    },
    {
      "inputs": [
        {
          "internalType": "bytes32",
          "name": "role",
          "type": "bytes32"
        }
      ],
      "name": "getRoleAdmin",
      "outputs": [
        {
          "internalType": "bytes32",
          "name": "",
          "type": "bytes32"
        }
      ],
      "stateMutability": "view",
      "type": "function",
      "constant": true
    },
    {
      "inputs": [
        {
          "internalType": "bytes32",
          "name": "role",
          "type": "bytes32"
        },
        {
          "internalType": "address",
          "name": "account",
          "type": "address"
        }
      ],
      "name": "grantRole",
      "outputs": [],
      "stateMutability": "nonpayable",
      "type": "function"
    },
    {
      "inputs": [
        {
          "internalType": "bytes32",
          "name": "role",
          "type": "bytes32"
        },
        {
          "internalType": "address",
          "name": "account",
          "type": "address"
        }
      ],
      "name": "hasRole",
      "outputs": [
        {
          "internalType": "bool",
          "name": "",
          "type": "bool"
        }
      ],
      "stateMutability": "view",
      "type": "function",
      "constant": true
    },
    {
      "inputs": [
        {
          "internalType": "address",
          "name": "spender",
          "type": "address"
        },
        {
          "internalType": "uint256",
          "name": "addedValue",
          "type": "uint256"
        }
      ],
      "name": "increaseAllowance",
      "outputs": [
        {
          "internalType": "bool",
          "name": "",
          "type": "bool"
        }
      ],
      "stateMutability": "nonpayable",
      "type": "function"
    },
    {
      "inputs": [],
      "name": "name",
      "outputs": [
        {
          "internalType": "string",
          "name": "",
          "type": "string"
        }
      ],
      "stateMutability": "view",
      "type": "function",
      "constant": true
    },
    {
      "inputs": [
        {
          "internalType": "bytes32",
          "name": "role",
          "type": "bytes32"
        },
        {
          "internalType": "address",
          "name": "account",
          "type": "address"
        }
      ],
      "name": "renounceRole",
      "outputs": [],
      "stateMutability": "nonpayable",
      "type": "function"
    },
    {
      "inputs": [
        {
          "internalType": "bytes32",
          "name": "role",
          "type": "bytes32"
        },
        {
          "internalType": "address",
          "name": "account",
          "type": "address"
        }
      ],
      "name": "revokeRole",
      "outputs": [],
      "stateMutability": "nonpayable",
      "type": "function"
    },
    {
      "inputs": [
        {
          "internalType": "bytes4",
          "name": "interfaceId",
          "type": "bytes4"
        }
      ],
      "name": "supportsInterface",
      "outputs": [
        {
          "internalType": "bool",
          "name": "",
          "type": "bool"
        }
      ],
      "stateMutability": "view",
      "type": "function",
      "constant": true
    },
    {
      "inputs": [],
      "name": "symbol",
      "outputs": [
        {
          "internalType": "string",
          "name": "",
          "type": "string"
        }
      ],
      "stateMutability": "view",
      "type": "function",
      "constant": true
    },
    {
      "inputs": [],
      "name": "totalSupply",
      "outputs": [
        {
          "internalType": "uint256",
          "name": "",
          "type": "uint256"
        }
      ],
      "stateMutability": "view",
      "type": "function",
      "constant": true
    },
    {
      "inputs": [
        {
          "internalType": "address",
          "name": "recipient",
          "type": "address"
        },
        {
          "internalType": "uint256",
          "name": "amount",
          "type": "uint256"
        }
      ],
      "name": "transfer",
      "outputs": [
        {
          "internalType": "bool",
          "name": "",
          "type": "bool"
        }
      ],
      "stateMutability": "nonpayable",
      "type": "function"
    },
    {
      "inputs": [
        {
          "internalType": "address",
          "name": "sender",
          "type": "address"
        },
        {
          "internalType": "address",
          "name": "recipient",
          "type": "address"
        },
        {
          "internalType": "uint256",
          "name": "amount",
          "type": "uint256"
        }
      ],
      "name": "transferFrom",
      "outputs": [
        {
          "internalType": "bool",
          "name": "",
          "type": "bool"
        }
      ],
      "stateMutability": "nonpayable",
      "type": "function"
    },
    {
      "inputs": [
        {
          "internalType": "address",
          "name": "admin",
          "type": "address"
        }
      ],
      "name": "initialize",
      "outputs": [],
      "stateMutability": "payable",
      "type": "function",
      "payable": true
    },
    {
      "inputs": [
        {
          "internalType": "address",
          "name": "to",
          "type": "address"
        },
        {
          "internalType": "uint256",
          "name": "amount",
          "type": "uint256"
        }
      ],
      "name": "mint",
      "outputs": [],
      "stateMutability": "nonpayable",
      "type": "function"
    },
    {
      "inputs": [
        {
          "internalType": "address",
          "name": "from",
          "type": "address"
        },
        {
          "internalType": "uint256",
          "name": "amount",
          "type": "uint256"
        }
      ],
      "name": "burn",
      "outputs": [],
      "stateMutability": "nonpayable",
      "type": "function"
    }
  ],
  "bytecode": "0x60806040523480156200001157600080fd5b506040518060400160405280600581526020017f46574b65790000000000000000000000000000000000000000000000000000008152506040518060400160405280600381526020017f46574b0000000000000000000000000000000000000000000000000000000000815250816003908051906020019062000096929190620000b8565b508060049080519060200190620000af929190620000b8565b505050620001cd565b828054620000c69062000168565b90600052602060002090601f016020900481019282620000ea576000855562000136565b82601f106200010557805160ff191683800117855562000136565b8280016001018555821562000136579182015b828111156200013557825182559160200191906001019062000118565b5b50905062000145919062000149565b5090565b5b80821115620001645760008160009055506001016200014a565b5090565b600060028204905060018216806200018157607f821691505b602082108114156200019857620001976200019e565b5b50919050565b7f4e487b7100000000000000000000000000000000000000000000000000000000600052602260045260246000fd5b612a6280620001dd6000396000f3fe6080604052600436106101355760003560e01c806370a08231116100ab578063a457c2d71161006f578063a457c2d714610460578063a9059cbb1461049d578063c4d66de8146104da578063d5391393146104f6578063d547741f14610521578063dd62ed3e1461054a57610135565b806370a082311461036757806391d14854146103a457806395d89b41146103e15780639dc29fac1461040c578063a217fddf1461043557610135565b8063248a9ca3116100fd578063248a9ca3146102475780632f2ff15d14610284578063313ce567146102ad57806336568abe146102d8578063395093511461030157806340c10f191461033e57610135565b806301ffc9a71461013a57806306fdde0314610177578063095ea7b3146101a257806318160ddd146101df57806323b872dd1461020a575b600080fd5b34801561014657600080fd5b50610161600480360381019061015c9190611de3565b610587565b60405161016e91906124ce565b60405180910390f35b34801561018357600080fd5b5061018c610601565b6040516101999190612504565b60405180910390f35b3480156101ae57600080fd5b506101c960048036038101906101c49190611d42565b610693565b6040516101d691906124ce565b60405180910390f35b3480156101eb57600080fd5b506101f46106b1565b6040516102019190612706565b60405180910390f35b34801561021657600080fd5b50610231600480360381019061022c9190611cf3565b6106bb565b60405161023e91906124ce565b60405180910390f35b34801561025357600080fd5b5061026e60048036038101906102699190611d7e565b6107b3565b60405161027b91906124e9565b60405180910390f35b34801561029057600080fd5b506102ab60048036038101906102a69190611da7565b6107d3565b005b3480156102b957600080fd5b506102c26107fc565b6040516102cf9190612721565b60405180910390f35b3480156102e457600080fd5b506102ff60048036038101906102fa9190611da7565b610805565b005b34801561030d57600080fd5b5061032860048036038101906103239190611d42565b610888565b60405161033591906124ce565b60405180910390f35b34801561034a57600080fd5b5061036560048036038101906103609190611d42565b610934565b005b34801561037357600080fd5b5061038e60048036038101906103899190611c8e565b6109b2565b60405161039b9190612706565b60405180910390f35b3480156103b057600080fd5b506103cb60048036038101906103c69190611da7565b6109fa565b6040516103d891906124ce565b60405180910390f35b3480156103ed57600080fd5b506103f6610a65565b6040516104039190612504565b60405180910390f35b34801561041857600080fd5b50610433600480360381019061042e9190611d42565b610af7565b005b34801561044157600080fd5b5061044a610b7a565b60405161045791906124e9565b60405180910390f35b34801561046c57600080fd5b5061048760048036038101906104829190611d42565b610b81565b60405161049491906124ce565b60405180910390f35b3480156104a957600080fd5b506104c460048036038101906104bf9190611d42565b610c6c565b6040516104d191906124ce565b60405180910390f35b6104f460048036038101906104ef9190611c8e565b610c8a565b005b34801561050257600080fd5b5061050b610da3565b60405161051891906124e9565b60405180910390f35b34801561052d57600080fd5b5061054860048036038101906105439190611da7565b610dc7565b005b34801561055657600080fd5b50610571600480360381019061056c9190611cb7565b610df0565b60405161057e9190612706565b60405180910390f35b60007f7965db0b000000000000000000000000000000000000000000000000000000007bffffffffffffffffffffffffffffffffffffffffffffffffffffffff1916827bffffffffffffffffffffffffffffffffffffffffffffffffffffffff191614806105fa57506105f982610e77565b5b9050919050565b6060600380546106109061292f565b80601f016020809104026020016040519081016040528092919081815260200182805461063c9061292f565b80156106895780601f1061065e57610100808354040283529160200191610689565b820191906000526020600020905b81548152906001019060200180831161066c57829003601f168201915b5050505050905090565b60006106a76106a0610ee1565b8484610ee9565b6001905092915050565b6000600254905090565b60006106c88484846110b4565b6000600160008673ffffffffffffffffffffffffffffffffffffffff1673ffffffffffffffffffffffffffffffffffffffff1681526020019081526020016000206000610713610ee1565b73ffffffffffffffffffffffffffffffffffffffff1673ffffffffffffffffffffffffffffffffffffffff16815260200190815260200160002054905082811015610793576040517f08c379a000000000000000000000000000000000000000000000000000000000815260040161078a90612606565b60405180910390fd5b6107a78561079f610ee1565b858403610ee9565b60019150509392505050565b600060066000838152602001908152602001600020600101549050919050565b6107dc826107b3565b6107ed816107e8610ee1565b611335565b6107f783836113d2565b505050565b60006012905090565b61080d610ee1565b73ffffffffffffffffffffffffffffffffffffffff168173ffffffffffffffffffffffffffffffffffffffff161461087a576040517f08c379a0000000000000000000000000000000000000000000000000000000008152600401610871906126c6565b60405180910390fd5b61088482826114b3565b5050565b600061092a610895610ee1565b8484600160006108a3610ee1565b73ffffffffffffffffffffffffffffffffffffffff1673ffffffffffffffffffffffffffffffffffffffff16815260200190815260200160002060008873ffffffffffffffffffffffffffffffffffffffff1673ffffffffffffffffffffffffffffffffffffffff168152602001908152602001600020546109259190612763565b610ee9565b6001905092915050565b6109657f9f2df0fed2c77648de5860a4cc508cd0818c85b8b8a1ab4ceeef8d981c8956a6610960610ee1565b6109fa565b6109a4576040517f08c379a000000000000000000000000000000000000000000000000000000000815260040161099b90612626565b60405180910390fd5b6109ae8282611595565b5050565b60008060008373ffffffffffffffffffffffffffffffffffffffff1673ffffffffffffffffffffffffffffffffffffffff168152602001908152602001600020549050919050565b60006006600084815260200190815260200160002060000160008373ffffffffffffffffffffffffffffffffffffffff1673ffffffffffffffffffffffffffffffffffffffff16815260200190815260200160002060009054906101000a900460ff16905092915050565b606060048054610a749061292f565b80601f0160208091040260200160405190810160405280929190818152602001828054610aa09061292f565b8015610aed5780601f10610ac257610100808354040283529160200191610aed565b820191906000526020600020905b815481529060010190602001808311610ad057829003601f168201915b5050505050905090565b8173ffffffffffffffffffffffffffffffffffffffff16610b16610ee1565b73ffffffffffffffffffffffffffffffffffffffff1614610b6c576040517f08c379a0000000000000000000000000000000000000000000000000000000008152600401610b63906125c6565b60405180910390fd5b610b7682826116f5565b5050565b6000801b81565b60008060016000610b90610ee1565b73ffffffffffffffffffffffffffffffffffffffff1673ffffffffffffffffffffffffffffffffffffffff16815260200190815260200160002060008573ffffffffffffffffffffffffffffffffffffffff1673ffffffffffffffffffffffffffffffffffffffff16815260200190815260200160002054905082811015610c4d576040517f08c379a0000000000000000000000000000000000000000000000000000000008152600401610c44906126a6565b60405180910390fd5b610c61610c58610ee1565b85858403610ee9565b600191505092915050565b6000610c80610c79610ee1565b84846110b4565b6001905092915050565b600560019054906101000a900460ff1680610cb25750600560009054906101000a900460ff16155b610cf1576040517f08c379a0000000000000000000000000000000000000000000000000000000008152600401610ce8906125e6565b60405180910390fd5b6000600560019054906101000a900460ff161590508015610d43576001600560016101000a81548160ff0219169083151502179055506001600560006101000a81548160ff0219169083151502179055505b610d506000801b836118cc565b610d7d7f9f2df0fed2c77648de5860a4cc508cd0818c85b8b8a1ab4ceeef8d981c8956a66000801b6118da565b8015610d9f576000600560016101000a81548160ff0219169083151502179055505b5050565b7f9f2df0fed2c77648de5860a4cc508cd0818c85b8b8a1ab4ceeef8d981c8956a681565b610dd0826107b3565b610de181610ddc610ee1565b611335565b610deb83836114b3565b505050565b6000600160008473ffffffffffffffffffffffffffffffffffffffff1673ffffffffffffffffffffffffffffffffffffffff16815260200190815260200160002060008373ffffffffffffffffffffffffffffffffffffffff1673ffffffffffffffffffffffffffffffffffffffff16815260200190815260200160002054905092915050565b60007f01ffc9a7000000000000000000000000000000000000000000000000000000007bffffffffffffffffffffffffffffffffffffffffffffffffffffffff1916827bffffffffffffffffffffffffffffffffffffffffffffffffffffffff1916149050919050565b600033905090565b600073ffffffffffffffffffffffffffffffffffffffff168373ffffffffffffffffffffffffffffffffffffffff161415610f59576040517f08c379a0000000000000000000000000000000000000000000000000000000008152600401610f5090612686565b60405180910390fd5b600073ffffffffffffffffffffffffffffffffffffffff168273ffffffffffffffffffffffffffffffffffffffff161415610fc9576040517f08c379a0000000000000000000000000000000000000000000000000000000008152600401610fc090612586565b60405180910390fd5b80600160008573ffffffffffffffffffffffffffffffffffffffff1673ffffffffffffffffffffffffffffffffffffffff16815260200190815260200160002060008473ffffffffffffffffffffffffffffffffffffffff1673ffffffffffffffffffffffffffffffffffffffff168152602001908152602001600020819055508173ffffffffffffffffffffffffffffffffffffffff168373ffffffffffffffffffffffffffffffffffffffff167f8c5be1e5ebec7d5bd14f71427d1e84f3dd0314c0f7b2291e5b200ac8c7c3b925836040516110a79190612706565b60405180910390a3505050565b600073ffffffffffffffffffffffffffffffffffffffff168373ffffffffffffffffffffffffffffffffffffffff161415611124576040517f08c379a000000000000000000000000000000000000000000000000000000000815260040161111b90612666565b60405180910390fd5b600073ffffffffffffffffffffffffffffffffffffffff168273ffffffffffffffffffffffffffffffffffffffff161415611194576040517f08c379a000000000000000000000000000000000000000000000000000000000815260040161118b90612546565b60405180910390fd5b61119f838383611936565b60008060008573ffffffffffffffffffffffffffffffffffffffff1673ffffffffffffffffffffffffffffffffffffffff16815260200190815260200160002054905081811015611225576040517f08c379a000000000000000000000000000000000000000000000000000000000815260040161121c906125a6565b60405180910390fd5b8181036000808673ffffffffffffffffffffffffffffffffffffffff1673ffffffffffffffffffffffffffffffffffffffff16815260200190815260200160002081905550816000808573ffffffffffffffffffffffffffffffffffffffff1673ffffffffffffffffffffffffffffffffffffffff16815260200190815260200160002060008282546112b89190612763565b925050819055508273ffffffffffffffffffffffffffffffffffffffff168473ffffffffffffffffffffffffffffffffffffffff167fddf252ad1be2c89b69c2b068fc378daa952ba7f163c4a11628f55a4df523b3ef8460405161131c9190612706565b60405180910390a361132f84848461193b565b50505050565b61133f82826109fa565b6113ce576113648173ffffffffffffffffffffffffffffffffffffffff166014611940565b6113728360001c6020611940565b604051602001611383929190612494565b6040516020818303038152906040526040517f08c379a00000000000000000000000000000000000000000000000000000000081526004016113c59190612504565b60405180910390fd5b5050565b6113dc82826109fa565b6114af5760016006600084815260200190815260200160002060000160008373ffffffffffffffffffffffffffffffffffffffff1673ffffffffffffffffffffffffffffffffffffffff16815260200190815260200160002060006101000a81548160ff021916908315150217905550611454610ee1565b73ffffffffffffffffffffffffffffffffffffffff168173ffffffffffffffffffffffffffffffffffffffff16837f2f8788117e7eff1d82e926ec794901d17c78024a50270940304540a733656f0d60405160405180910390a45b5050565b6114bd82826109fa565b156115915760006006600084815260200190815260200160002060000160008373ffffffffffffffffffffffffffffffffffffffff1673ffffffffffffffffffffffffffffffffffffffff16815260200190815260200160002060006101000a81548160ff021916908315150217905550611536610ee1565b73ffffffffffffffffffffffffffffffffffffffff168173ffffffffffffffffffffffffffffffffffffffff16837ff6391f5c32d9c69d2a47ea670b442974b53935d1edc7fd64eb21e047a839171b60405160405180910390a45b5050565b600073ffffffffffffffffffffffffffffffffffffffff168273ffffffffffffffffffffffffffffffffffffffff161415611605576040517f08c379a00000000000000000000000000000000000000000000000000000000081526004016115fc906126e6565b60405180910390fd5b61161160008383611936565b80600260008282546116239190612763565b92505081905550806000808473ffffffffffffffffffffffffffffffffffffffff1673ffffffffffffffffffffffffffffffffffffffff16815260200190815260200160002060008282546116789190612763565b925050819055508173ffffffffffffffffffffffffffffffffffffffff16600073ffffffffffffffffffffffffffffffffffffffff167fddf252ad1be2c89b69c2b068fc378daa952ba7f163c4a11628f55a4df523b3ef836040516116dd9190612706565b60405180910390a36116f16000838361193b565b5050565b600073ffffffffffffffffffffffffffffffffffffffff168273ffffffffffffffffffffffffffffffffffffffff161415611765576040517f08c379a000000000000000000000000000000000000000000000000000000000815260040161175c90612646565b60405180910390fd5b61177182600083611936565b60008060008473ffffffffffffffffffffffffffffffffffffffff1673ffffffffffffffffffffffffffffffffffffffff168152602001908152602001600020549050818110156117f7576040517f08c379a00000000000000000000000000000000000000000000000000000000081526004016117ee90612566565b60405180910390fd5b8181036000808573ffffffffffffffffffffffffffffffffffffffff1673ffffffffffffffffffffffffffffffffffffffff16815260200190815260200160002081905550816002600082825461184e9190612813565b92505081905550600073ffffffffffffffffffffffffffffffffffffffff168373ffffffffffffffffffffffffffffffffffffffff167fddf252ad1be2c89b69c2b068fc378daa952ba7f163c4a11628f55a4df523b3ef846040516118b39190612706565b60405180910390a36118c78360008461193b565b505050565b6118d682826113d2565b5050565b60006118e5836107b3565b90508160066000858152602001908152602001600020600101819055508181847fbd79b86ffe0ab8e8776151514217cd7cacd52c909f66475c3af44e129f0b00ff60405160405180910390a4505050565b505050565b505050565b60606000600283600261195391906127b9565b61195d9190612763565b67ffffffffffffffff81111561199c577f4e487b7100000000000000000000000000000000000000000000000000000000600052604160045260246000fd5b6040519080825280601f01601f1916602001820160405280156119ce5781602001600182028036833780820191505090505b5090507f300000000000000000000000000000000000000000000000000000000000000081600081518110611a2c577f4e487b7100000000000000000000000000000000000000000000000000000000600052603260045260246000fd5b60200101907effffffffffffffffffffffffffffffffffffffffffffffffffffffffffffff1916908160001a9053507f780000000000000000000000000000000000000000000000000000000000000081600181518110611ab6577f4e487b7100000000000000000000000000000000000000000000000000000000600052603260045260246000fd5b60200101907effffffffffffffffffffffffffffffffffffffffffffffffffffffffffffff1916908160001a90535060006001846002611af691906127b9565b611b009190612763565b90505b6001811115611bec577f3031323334353637383961626364656600000000000000000000000000000000600f861660108110611b68577f4e487b7100000000000000000000000000000000000000000000000000000000600052603260045260246000fd5b1a60f81b828281518110611ba5577f4e487b7100000000000000000000000000000000000000000000000000000000600052603260045260246000fd5b60200101907effffffffffffffffffffffffffffffffffffffffffffffffffffffffffffff1916908160001a905350600485901c945080611be590612905565b9050611b03565b5060008414611c30576040517f08c379a0000000000000000000000000000000000000000000000000000000008152600401611c2790612526565b60405180910390fd5b8091505092915050565b600081359050611c49816129d0565b92915050565b600081359050611c5e816129e7565b92915050565b600081359050611c73816129fe565b92915050565b600081359050611c8881612a15565b92915050565b600060208284031215611ca057600080fd5b6000611cae84828501611c3a565b91505092915050565b60008060408385031215611cca57600080fd5b6000611cd885828601611c3a565b9250506020611ce985828601611c3a565b9150509250929050565b600080600060608486031215611d0857600080fd5b6000611d1686828701611c3a565b9350506020611d2786828701611c3a565b9250506040611d3886828701611c79565b9150509250925092565b60008060408385031215611d5557600080fd5b6000611d6385828601611c3a565b9250506020611d7485828601611c79565b9150509250929050565b600060208284031215611d9057600080fd5b6000611d9e84828501611c4f565b91505092915050565b60008060408385031215611dba57600080fd5b6000611dc885828601611c4f565b9250506020611dd985828601611c3a565b9150509250929050565b600060208284031215611df557600080fd5b6000611e0384828501611c64565b91505092915050565b611e1581612859565b82525050565b611e2481612865565b82525050565b6000611e358261273c565b611e3f8185612747565b9350611e4f8185602086016128d2565b611e58816129bf565b840191505092915050565b6000611e6e8261273c565b611e788185612758565b9350611e888185602086016128d2565b80840191505092915050565b6000611ea1602083612747565b91507f537472696e67733a20686578206c656e67746820696e73756666696369656e746000830152602082019050919050565b6000611ee1602383612747565b91507f45524332303a207472616e7366657220746f20746865207a65726f206164647260008301527f65737300000000000000000000000000000000000000000000000000000000006020830152604082019050919050565b6000611f47602283612747565b91507f45524332303a206275726e20616d6f756e7420657863656564732062616c616e60008301527f63650000000000000000000000000000000000000000000000000000000000006020830152604082019050919050565b6000611fad602283612747565b91507f45524332303a20617070726f766520746f20746865207a65726f20616464726560008301527f73730000000000000000000000000000000000000000000000000000000000006020830152604082019050919050565b6000612013602683612747565b91507f45524332303a207472616e7366657220616d6f756e742065786365656473206260008301527f616c616e636500000000000000000000000000000000000000000000000000006020830152604082019050919050565b6000612079601883612747565b91507f46574b3a2043616c6c6572206973206e6f74206f776e657200000000000000006000830152602082019050919050565b60006120b9602e83612747565b91507f496e697469616c697a61626c653a20636f6e747261637420697320616c72656160008301527f647920696e697469616c697a65640000000000000000000000000000000000006020830152604082019050919050565b600061211f602883612747565b91507f45524332303a207472616e7366657220616d6f756e742065786365656473206160008301527f6c6c6f77616e63650000000000000000000000000000000000000000000000006020830152604082019050919050565b6000612185601d83612747565b91507f46574b3a204d696e74657220726f6c65206973207265717569726564210000006000830152602082019050919050565b60006121c5602183612747565b91507f45524332303a206275726e2066726f6d20746865207a65726f2061646472657360008301527f73000000000000000000000000000000000000000000000000000000000000006020830152604082019050919050565b600061222b602583612747565b91507f45524332303a207472616e736665722066726f6d20746865207a65726f20616460008301527f64726573730000000000000000000000000000000000000000000000000000006020830152604082019050919050565b6000612291602483612747565b91507f45524332303a20617070726f76652066726f6d20746865207a65726f2061646460008301527f72657373000000000000000000000000000000000000000000000000000000006020830152604082019050919050565b60006122f7601783612758565b91507f416363657373436f6e74726f6c3a206163636f756e74200000000000000000006000830152601782019050919050565b6000612337602583612747565b91507f45524332303a2064656372656173656420616c6c6f77616e63652062656c6f7760008301527f207a65726f0000000000000000000000000000000000000000000000000000006020830152604082019050919050565b600061239d601183612758565b91507f206973206d697373696e6720726f6c65200000000000000000000000000000006000830152601182019050919050565b60006123dd602f83612747565b91507f416363657373436f6e74726f6c3a2063616e206f6e6c792072656e6f756e636560008301527f20726f6c657320666f722073656c6600000000000000000000000000000000006020830152604082019050919050565b6000612443601f83612747565b91507f45524332303a206d696e7420746f20746865207a65726f2061646472657373006000830152602082019050919050565b61247f816128bb565b82525050565b61248e816128c5565b82525050565b600061249f826122ea565b91506124ab8285611e63565b91506124b682612390565b91506124c28284611e63565b91508190509392505050565b60006020820190506124e36000830184611e0c565b92915050565b60006020820190506124fe6000830184611e1b565b92915050565b6000602082019050818103600083015261251e8184611e2a565b905092915050565b6000602082019050818103600083015261253f81611e94565b9050919050565b6000602082019050818103600083015261255f81611ed4565b9050919050565b6000602082019050818103600083015261257f81611f3a565b9050919050565b6000602082019050818103600083015261259f81611fa0565b9050919050565b600060208201905081810360008301526125bf81612006565b9050919050565b600060208201905081810360008301526125df8161206c565b9050919050565b600060208201905081810360008301526125ff816120ac565b9050919050565b6000602082019050818103600083015261261f81612112565b9050919050565b6000602082019050818103600083015261263f81612178565b9050919050565b6000602082019050818103600083015261265f816121b8565b9050919050565b6000602082019050818103600083015261267f8161221e565b9050919050565b6000602082019050818103600083015261269f81612284565b9050919050565b600060208201905081810360008301526126bf8161232a565b9050919050565b600060208201905081810360008301526126df816123d0565b9050919050565b600060208201905081810360008301526126ff81612436565b9050919050565b600060208201905061271b6000830184612476565b92915050565b60006020820190506127366000830184612485565b92915050565b600081519050919050565b600082825260208201905092915050565b600081905092915050565b600061276e826128bb565b9150612779836128bb565b9250827fffffffffffffffffffffffffffffffffffffffffffffffffffffffffffffffff038211156127ae576127ad612961565b5b828201905092915050565b60006127c4826128bb565b91506127cf836128bb565b9250817fffffffffffffffffffffffffffffffffffffffffffffffffffffffffffffffff048311821515161561280857612807612961565b5b828202905092915050565b600061281e826128bb565b9150612829836128bb565b92508282101561283c5761283b612961565b5b828203905092915050565b60006128528261289b565b9050919050565b60008115159050919050565b6000819050919050565b60007fffffffff0000000000000000000000000000000000000000000000000000000082169050919050565b600073ffffffffffffffffffffffffffffffffffffffff82169050919050565b6000819050919050565b600060ff82169050919050565b60005b838110156128f05780820151818401526020810190506128d5565b838111156128ff576000848401525b50505050565b6000612910826128bb565b9150600082141561292457612923612961565b5b600182039050919050565b6000600282049050600182168061294757607f821691505b6020821081141561295b5761295a612990565b5b50919050565b7f4e487b7100000000000000000000000000000000000000000000000000000000600052601160045260246000fd5b7f4e487b7100000000000000000000000000000000000000000000000000000000600052602260045260246000fd5b6000601f19601f8301169050919050565b6129d981612847565b81146129e457600080fd5b50565b6129f081612865565b81146129fb57600080fd5b50565b612a078161286f565b8114612a1257600080fd5b50565b612a1e816128bb565b8114612a2957600080fd5b5056fea2646970667358221220bde782be6894a58d38c7376f8d3575df393a875ffc0c4ed0cd2bc14b0d764f6d64736f6c63430008000033",
  "immutableReferences": {},
  "source": "//SPDX-License-Identifier: UNLICENSED\npragma solidity ^0.8.0;\n\nimport '@openzeppelin/contracts/access/AccessControl.sol';\nimport \"@openzeppelin/contracts/token/ERC20/ERC20.sol\";\nimport \"@openzeppelin/contracts/proxy/utils/Initializable.sol\";\n\ncontract FWarKey is \n\tERC20(\"FWKey\",\"FWK\"), \n\tInitializable,\n    AccessControl  \n{\n    //Create a new role identifier for minter role\n\tbytes32 public constant MINTER_ROLE = keccak256(\"MINTER_ROLE\");\n    \n    function initialize(address admin) public payable initializer {\n        _setupRole(DEFAULT_ADMIN_ROLE, admin);\n        _setRoleAdmin(MINTER_ROLE, DEFAULT_ADMIN_ROLE);\n    }\n\n    function mint(address to, uint256 amount) public{\n    \trequire(hasRole(MINTER_ROLE, _msgSender()), 'FWK: Minter role is required!');\n\t\t_mint(to, amount);\n\t}\n\n\tfunction burn(address from, uint256 amount) public{\n\t\trequire(_msgSender() == from, 'FWK: Caller is not owner');\n\t\t_burn(from, amount);\n\t}\n\n\n}",
  "sourcePath": "/Users/badung1870/Working/Node/FWar-Main/SourceCode/SmartContracts/Fwar/FWarKey/contracts/FwarKey.sol",
  "compiler": {
    "name": "solc",
    "version": "0.8.0+commit.c7dfd78e.Emscripten.clang"
  },
  "schemaVersion": "3.4.3",
  "updatedAt": "2021-10-26T17:12:09.055Z",
  "networkType": "ethereum",
  "devdoc": {
    "kind": "dev",
    "methods": {
      "allowance(address,address)": {
        "details": "See {IERC20-allowance}."
      },
      "approve(address,uint256)": {
        "details": "See {IERC20-approve}. Requirements: - `spender` cannot be the zero address."
      },
      "balanceOf(address)": {
        "details": "See {IERC20-balanceOf}."
      },
      "decimals()": {
        "details": "Returns the number of decimals used to get its user representation. For example, if `decimals` equals `2`, a balance of `505` tokens should be displayed to a user as `5.05` (`505 / 10 ** 2`). Tokens usually opt for a value of 18, imitating the relationship between Ether and Wei. This is the value {ERC20} uses, unless this function is overridden; NOTE: This information is only used for _display_ purposes: it in no way affects any of the arithmetic of the contract, including {IERC20-balanceOf} and {IERC20-transfer}."
      },
      "decreaseAllowance(address,uint256)": {
        "details": "Atomically decreases the allowance granted to `spender` by the caller. This is an alternative to {approve} that can be used as a mitigation for problems described in {IERC20-approve}. Emits an {Approval} event indicating the updated allowance. Requirements: - `spender` cannot be the zero address. - `spender` must have allowance for the caller of at least `subtractedValue`."
      },
      "getRoleAdmin(bytes32)": {
        "details": "Returns the admin role that controls `role`. See {grantRole} and {revokeRole}. To change a role's admin, use {_setRoleAdmin}."
      },
      "grantRole(bytes32,address)": {
        "details": "Grants `role` to `account`. If `account` had not been already granted `role`, emits a {RoleGranted} event. Requirements: - the caller must have ``role``'s admin role."
      },
      "hasRole(bytes32,address)": {
        "details": "Returns `true` if `account` has been granted `role`."
      },
      "increaseAllowance(address,uint256)": {
        "details": "Atomically increases the allowance granted to `spender` by the caller. This is an alternative to {approve} that can be used as a mitigation for problems described in {IERC20-approve}. Emits an {Approval} event indicating the updated allowance. Requirements: - `spender` cannot be the zero address."
      },
      "name()": {
        "details": "Returns the name of the token."
      },
      "renounceRole(bytes32,address)": {
        "details": "Revokes `role` from the calling account. Roles are often managed via {grantRole} and {revokeRole}: this function's purpose is to provide a mechanism for accounts to lose their privileges if they are compromised (such as when a trusted device is misplaced). If the calling account had been granted `role`, emits a {RoleRevoked} event. Requirements: - the caller must be `account`."
      },
      "revokeRole(bytes32,address)": {
        "details": "Revokes `role` from `account`. If `account` had been granted `role`, emits a {RoleRevoked} event. Requirements: - the caller must have ``role``'s admin role."
      },
      "supportsInterface(bytes4)": {
        "details": "See {IERC165-supportsInterface}."
      },
      "symbol()": {
        "details": "Returns the symbol of the token, usually a shorter version of the name."
      },
      "totalSupply()": {
        "details": "See {IERC20-totalSupply}."
      },
      "transfer(address,uint256)": {
        "details": "See {IERC20-transfer}. Requirements: - `recipient` cannot be the zero address. - the caller must have a balance of at least `amount`."
      },
      "transferFrom(address,address,uint256)": {
        "details": "See {IERC20-transferFrom}. Emits an {Approval} event indicating the updated allowance. This is not required by the EIP. See the note at the beginning of {ERC20}. Requirements: - `sender` and `recipient` cannot be the zero address. - `sender` must have a balance of at least `amount`. - the caller must have allowance for ``sender``'s tokens of at least `amount`."
      }
    },
    "version": 1
  },
  "userdoc": {
    "kind": "user",
    "methods": {},
    "version": 1
  }
}