{
  "contractName": "FwarMarketStorage",
  "abi": [
    {
      "inputs": [],
      "name": "blackListAddress",
      "outputs": [
        {
          "internalType": "address",
          "name": "",
          "type": "address"
        }
      ],
      "stateMutability": "view",
      "type": "function"
    },
    {
      "inputs": [],
      "name": "feeRate",
      "outputs": [
        {
          "internalType": "uint256",
          "name": "",
          "type": "uint256"
        }
      ],
      "stateMutability": "view",
      "type": "function"
    },
    {
      "inputs": [],
      "name": "feeTo",
      "outputs": [
        {
          "internalType": "address",
          "name": "",
          "type": "address"
        }
      ],
      "stateMutability": "view",
      "type": "function"
    },
    {
      "inputs": [],
      "name": "maxExpirationTime",
      "outputs": [
        {
          "internalType": "uint256",
          "name": "",
          "type": "uint256"
        }
      ],
      "stateMutability": "view",
      "type": "function"
    },
    {
      "inputs": [],
      "name": "minExpirationTime",
      "outputs": [
        {
          "internalType": "uint256",
          "name": "",
          "type": "uint256"
        }
      ],
      "stateMutability": "view",
      "type": "function"
    },
    {
      "inputs": [],
      "name": "seedAddress",
      "outputs": [
        {
          "internalType": "address",
          "name": "",
          "type": "address"
        }
      ],
      "stateMutability": "view",
      "type": "function"
    }
  ],
  "bytecode": "0x608060405234801561001057600080fd5b50610217806100206000396000f3fe608060405234801561001057600080fd5b50600436106100625760003560e01c8063017e7e581461006757806331b412d71461009b5780638ae354f3146100b9578063978bbdb9146100ed578063d33f79781461010b578063f541b3821461013f575b600080fd5b61006f61015d565b604051808273ffffffffffffffffffffffffffffffffffffffff16815260200191505060405180910390f35b6100a3610183565b6040518082815260200191505060405180910390f35b6100c1610189565b604051808273ffffffffffffffffffffffffffffffffffffffff16815260200191505060405180910390f35b6100f56101af565b6040518082815260200191505060405180910390f35b6101136101b5565b604051808273ffffffffffffffffffffffffffffffffffffffff16815260200191505060405180910390f35b6101476101db565b6040518082815260200191505060405180910390f35b600860009054906101000a900473ffffffffffffffffffffffffffffffffffffffff1681565b60015481565b600a60009054906101000a900473ffffffffffffffffffffffffffffffffffffffff1681565b600b5481565b600960009054906101000a900473ffffffffffffffffffffffffffffffffffffffff1681565b6000548156fea26469706673582212206933d497476e1c6d97e81e2cd9bfa38ece22d7cdef46a7d84313b3dc22062cf164736f6c634300060c0033",
  "immutableReferences": {},
  "source": "// SPDX-License-Identifier: MIT\npragma solidity 0.6.12;\n\nimport \"@openzeppelin/contracts/math/SafeMath.sol\";\nimport \"@openzeppelin/contracts/utils/EnumerableSet.sol\";\n\ncontract FwarMarketStorage {\n    using SafeMath for uint256;\n    using EnumerableSet for EnumerableSet.UintSet;\n\n    struct OrderInfo {\n        // NFT owner\n        address owner;\n        // NFT contract address\n        address nftContract;\n        // NFT Ids\n        uint[] nftIds;\n        // pay token;\n        address token;\n        // pay amount;\n        uint price;\n        // order expiration time\n        uint expiration;\n        // order expiration time\n        uint createTime;\n    }\n\n    uint public maxExpirationTime;\n\n    uint public minExpirationTime;\n\n\n    EnumerableSet.UintSet internal orderIds;\n\n    mapping(uint => OrderInfo) orders;\n\n    mapping(uint => mapping(address => uint)) sellingNFT;\n\n    mapping(address => uint) nftAdds;\n    mapping(address => uint) tokenAdds;\n\n    address public feeTo;\n\n    //Seed Address\n    address public seedAddress;\n\n    //FwarBlackList Address\n    address public blackListAddress;\n\n    // fee rate scaled by 1e12\n    uint public feeRate; \n}",
  "sourcePath": "/Users/badung1870/Working/Node/FWar-Main/SourceCode/SmartContracts/Fwar/FwarMarket/contracts/FwarMarketStorage.sol",
  "compiler": {
    "name": "solc",
    "version": "0.6.12+commit.27d51765.Emscripten.clang"
  },
  "schemaVersion": "3.4.3",
  "updatedAt": "2021-10-25T18:29:24.124Z",
  "devdoc": {
    "kind": "dev",
    "methods": {},
    "version": 1
  },
  "userdoc": {
    "kind": "user",
    "methods": {},
    "version": 1
  }
}