{
  "contractName": "FwarMarketDelegate",
  "abi": [
    {
      "anonymous": false,
      "inputs": [
        {
          "indexed": true,
          "internalType": "uint256",
          "name": "_orderId",
          "type": "uint256"
        },
        {
          "indexed": false,
          "internalType": "uint256[]",
          "name": "_nftIds",
          "type": "uint256[]"
        },
        {
          "indexed": true,
          "internalType": "address",
          "name": "_buyer",
          "type": "address"
        },
        {
          "indexed": false,
          "internalType": "address",
          "name": "_seller",
          "type": "address"
        },
        {
          "indexed": false,
          "internalType": "address",
          "name": "_nftContract",
          "type": "address"
        },
        {
          "indexed": false,
          "internalType": "address",
          "name": "_token",
          "type": "address"
        },
        {
          "indexed": true,
          "internalType": "uint256",
          "name": "price",
          "type": "uint256"
        }
      ],
      "name": "BuyOrder",
      "type": "event"
    },
    {
      "anonymous": false,
      "inputs": [
        {
          "indexed": true,
          "internalType": "address",
          "name": "_owner",
          "type": "address"
        },
        {
          "indexed": true,
          "internalType": "address",
          "name": "_nftContract",
          "type": "address"
        },
        {
          "indexed": true,
          "internalType": "uint256",
          "name": "_orderId",
          "type": "uint256"
        },
        {
          "indexed": false,
          "internalType": "uint256[]",
          "name": "_nftIds",
          "type": "uint256[]"
        }
      ],
      "name": "CancelOrder",
      "type": "event"
    },
    {
      "anonymous": false,
      "inputs": [
        {
          "indexed": true,
          "internalType": "uint256",
          "name": "_orderId",
          "type": "uint256"
        },
        {
          "indexed": false,
          "internalType": "uint256[]",
          "name": "_nftIds",
          "type": "uint256[]"
        },
        {
          "indexed": true,
          "internalType": "address",
          "name": "_seller",
          "type": "address"
        },
        {
          "indexed": false,
          "internalType": "address",
          "name": "_nftContract",
          "type": "address"
        },
        {
          "indexed": false,
          "internalType": "address",
          "name": "_token",
          "type": "address"
        },
        {
          "indexed": true,
          "internalType": "uint256",
          "name": "price",
          "type": "uint256"
        }
      ],
      "name": "CleanOrder",
      "type": "event"
    },
    {
      "anonymous": false,
      "inputs": [
        {
          "indexed": false,
          "internalType": "address",
          "name": "_owner",
          "type": "address"
        },
        {
          "indexed": true,
          "internalType": "address",
          "name": "_nftContract",
          "type": "address"
        },
        {
          "indexed": false,
          "internalType": "uint256[]",
          "name": "_nftIds",
          "type": "uint256[]"
        },
        {
          "indexed": true,
          "internalType": "address",
          "name": "_token",
          "type": "address"
        },
        {
          "indexed": true,
          "internalType": "uint256",
          "name": "_price",
          "type": "uint256"
        },
        {
          "indexed": false,
          "internalType": "uint256",
          "name": "_expiration",
          "type": "uint256"
        },
        {
          "indexed": false,
          "internalType": "uint256",
          "name": "_orderId",
          "type": "uint256"
        }
      ],
      "name": "CreateOrder",
      "type": "event"
    },
    {
      "anonymous": false,
      "inputs": [
        {
          "indexed": true,
          "internalType": "bytes32",
          "name": "role",
          "type": "bytes32"
        },
        {
          "indexed": true,
          "internalType": "bytes32",
          "name": "previousAdminRole",
          "type": "bytes32"
        },
        {
          "indexed": true,
          "internalType": "bytes32",
          "name": "newAdminRole",
          "type": "bytes32"
        }
      ],
      "name": "RoleAdminChanged",
      "type": "event"
    },
    {
      "anonymous": false,
      "inputs": [
        {
          "indexed": true,
          "internalType": "bytes32",
          "name": "role",
          "type": "bytes32"
        },
        {
          "indexed": true,
          "internalType": "address",
          "name": "account",
          "type": "address"
        },
        {
          "indexed": true,
          "internalType": "address",
          "name": "sender",
          "type": "address"
        }
      ],
      "name": "RoleGranted",
      "type": "event"
    },
    {
      "anonymous": false,
      "inputs": [
        {
          "indexed": true,
          "internalType": "bytes32",
          "name": "role",
          "type": "bytes32"
        },
        {
          "indexed": true,
          "internalType": "address",
          "name": "account",
          "type": "address"
        },
        {
          "indexed": true,
          "internalType": "address",
          "name": "sender",
          "type": "address"
        }
      ],
      "name": "RoleRevoked",
      "type": "event"
    },
    {
      "inputs": [],
      "name": "DEFAULT_ADMIN_ROLE",
      "outputs": [
        {
          "internalType": "bytes32",
          "name": "",
          "type": "bytes32"
        }
      ],
      "stateMutability": "view",
      "type": "function",
      "constant": true
    },
    {
      "inputs": [],
      "name": "blackListAddress",
      "outputs": [
        {
          "internalType": "address",
          "name": "",
          "type": "address"
        }
      ],
      "stateMutability": "view",
      "type": "function",
      "constant": true
    },
    {
      "inputs": [],
      "name": "feeRate",
      "outputs": [
        {
          "internalType": "uint256",
          "name": "",
          "type": "uint256"
        }
      ],
      "stateMutability": "view",
      "type": "function",
      "constant": true
    },
    {
      "inputs": [],
      "name": "feeTo",
      "outputs": [
        {
          "internalType": "address",
          "name": "",
          "type": "address"
        }
      ],
      "stateMutability": "view",
      "type": "function",
      "constant": true
    },
    {
      "inputs": [
        {
          "internalType": "bytes32",
          "name": "role",
          "type": "bytes32"
        }
      ],
      "name": "getRoleAdmin",
      "outputs": [
        {
          "internalType": "bytes32",
          "name": "",
          "type": "bytes32"
        }
      ],
      "stateMutability": "view",
      "type": "function",
      "constant": true
    },
    {
      "inputs": [
        {
          "internalType": "bytes32",
          "name": "role",
          "type": "bytes32"
        },
        {
          "internalType": "uint256",
          "name": "index",
          "type": "uint256"
        }
      ],
      "name": "getRoleMember",
      "outputs": [
        {
          "internalType": "address",
          "name": "",
          "type": "address"
        }
      ],
      "stateMutability": "view",
      "type": "function",
      "constant": true
    },
    {
      "inputs": [
        {
          "internalType": "bytes32",
          "name": "role",
          "type": "bytes32"
        }
      ],
      "name": "getRoleMemberCount",
      "outputs": [
        {
          "internalType": "uint256",
          "name": "",
          "type": "uint256"
        }
      ],
      "stateMutability": "view",
      "type": "function",
      "constant": true
    },
    {
      "inputs": [
        {
          "internalType": "bytes32",
          "name": "role",
          "type": "bytes32"
        },
        {
          "internalType": "address",
          "name": "account",
          "type": "address"
        }
      ],
      "name": "grantRole",
      "outputs": [],
      "stateMutability": "nonpayable",
      "type": "function"
    },
    {
      "inputs": [
        {
          "internalType": "bytes32",
          "name": "role",
          "type": "bytes32"
        },
        {
          "internalType": "address",
          "name": "account",
          "type": "address"
        }
      ],
      "name": "hasRole",
      "outputs": [
        {
          "internalType": "bool",
          "name": "",
          "type": "bool"
        }
      ],
      "stateMutability": "view",
      "type": "function",
      "constant": true
    },
    {
      "inputs": [],
      "name": "maxExpirationTime",
      "outputs": [
        {
          "internalType": "uint256",
          "name": "",
          "type": "uint256"
        }
      ],
      "stateMutability": "view",
      "type": "function",
      "constant": true
    },
    {
      "inputs": [],
      "name": "minExpirationTime",
      "outputs": [
        {
          "internalType": "uint256",
          "name": "",
          "type": "uint256"
        }
      ],
      "stateMutability": "view",
      "type": "function",
      "constant": true
    },
    {
      "inputs": [
        {
          "internalType": "bytes32",
          "name": "role",
          "type": "bytes32"
        },
        {
          "internalType": "address",
          "name": "account",
          "type": "address"
        }
      ],
      "name": "renounceRole",
      "outputs": [],
      "stateMutability": "nonpayable",
      "type": "function"
    },
    {
      "inputs": [
        {
          "internalType": "bytes32",
          "name": "role",
          "type": "bytes32"
        },
        {
          "internalType": "address",
          "name": "account",
          "type": "address"
        }
      ],
      "name": "revokeRole",
      "outputs": [],
      "stateMutability": "nonpayable",
      "type": "function"
    },
    {
      "inputs": [],
      "name": "seedAddress",
      "outputs": [
        {
          "internalType": "address",
          "name": "",
          "type": "address"
        }
      ],
      "stateMutability": "view",
      "type": "function",
      "constant": true
    },
    {
      "inputs": [
        {
          "internalType": "address",
          "name": "admin",
          "type": "address"
        },
        {
          "internalType": "address",
          "name": "_seedAddress",
          "type": "address"
        },
        {
          "internalType": "address",
          "name": "_blackListAddress",
          "type": "address"
        }
      ],
      "name": "initialize",
      "outputs": [],
      "stateMutability": "payable",
      "type": "function",
      "payable": true
    },
    {
      "inputs": [
        {
          "internalType": "uint256",
          "name": "_minExpirationTime",
          "type": "uint256"
        },
        {
          "internalType": "uint256",
          "name": "_maxExpirationTime",
          "type": "uint256"
        }
      ],
      "name": "configExpiration",
      "outputs": [],
      "stateMutability": "nonpayable",
      "type": "function"
    },
    {
      "inputs": [
        {
          "internalType": "address",
          "name": "_feeTo",
          "type": "address"
        },
        {
          "internalType": "uint256",
          "name": "_feeRate",
          "type": "uint256"
        }
      ],
      "name": "configFee",
      "outputs": [],
      "stateMutability": "nonpayable",
      "type": "function"
    },
    {
      "inputs": [
        {
          "internalType": "address",
          "name": "_nftAddress",
          "type": "address"
        },
        {
          "internalType": "uint256",
          "name": "_value",
          "type": "uint256"
        }
      ],
      "name": "setNFTAdd",
      "outputs": [],
      "stateMutability": "nonpayable",
      "type": "function"
    },
    {
      "inputs": [
        {
          "internalType": "address",
          "name": "_tokenAddress",
          "type": "address"
        },
        {
          "internalType": "uint256",
          "name": "_value",
          "type": "uint256"
        }
      ],
      "name": "setTokenAdd",
      "outputs": [],
      "stateMutability": "nonpayable",
      "type": "function"
    },
    {
      "inputs": [],
      "name": "getFeeConfig",
      "outputs": [
        {
          "internalType": "address",
          "name": "feeTo",
          "type": "address"
        },
        {
          "internalType": "uint256",
          "name": "feeRate",
          "type": "uint256"
        }
      ],
      "stateMutability": "pure",
      "type": "function",
      "constant": true
    },
    {
      "inputs": [
        {
          "internalType": "address",
          "name": "_seedAddress",
          "type": "address"
        }
      ],
      "name": "setSeedAddress",
      "outputs": [],
      "stateMutability": "nonpayable",
      "type": "function"
    },
    {
      "inputs": [
        {
          "internalType": "address",
          "name": "_blackListAddress",
          "type": "address"
        }
      ],
      "name": "setBlackListAddress",
      "outputs": [],
      "stateMutability": "nonpayable",
      "type": "function"
    },
    {
      "inputs": [
        {
          "internalType": "address",
          "name": "_nftContract",
          "type": "address"
        },
        {
          "internalType": "uint256[]",
          "name": "_nftIds",
          "type": "uint256[]"
        },
        {
          "internalType": "address",
          "name": "_token",
          "type": "address"
        },
        {
          "internalType": "uint256",
          "name": "_price",
          "type": "uint256"
        },
        {
          "internalType": "uint256",
          "name": "_expiration",
          "type": "uint256"
        }
      ],
      "name": "createOrder",
      "outputs": [],
      "stateMutability": "nonpayable",
      "type": "function"
    },
    {
      "inputs": [
        {
          "internalType": "uint256",
          "name": "orderId",
          "type": "uint256"
        },
        {
          "internalType": "address",
          "name": "_nftContract",
          "type": "address"
        },
        {
          "internalType": "uint256[]",
          "name": "_nftIds",
          "type": "uint256[]"
        }
      ],
      "name": "cancelOrder",
      "outputs": [],
      "stateMutability": "nonpayable",
      "type": "function"
    },
    {
      "inputs": [
        {
          "internalType": "uint256",
          "name": "_orderId",
          "type": "uint256"
        }
      ],
      "name": "buyOrder",
      "outputs": [],
      "stateMutability": "nonpayable",
      "type": "function"
    },
    {
      "inputs": [],
      "name": "orderCount",
      "outputs": [
        {
          "internalType": "uint256",
          "name": "",
          "type": "uint256"
        }
      ],
      "stateMutability": "view",
      "type": "function",
      "constant": true
    },
    {
      "inputs": [
        {
          "internalType": "uint256",
          "name": "index",
          "type": "uint256"
        }
      ],
      "name": "getOrderId",
      "outputs": [
        {
          "internalType": "uint256",
          "name": "orderId",
          "type": "uint256"
        },
        {
          "internalType": "bool",
          "name": "isValid",
          "type": "bool"
        }
      ],
      "stateMutability": "view",
      "type": "function",
      "constant": true
    },
    {
      "inputs": [
        {
          "internalType": "uint256",
          "name": "orderId",
          "type": "uint256"
        }
      ],
      "name": "getOrderById",
      "outputs": [
        {
          "internalType": "address",
          "name": "owner",
          "type": "address"
        },
        {
          "internalType": "uint256[]",
          "name": "nftIds",
          "type": "uint256[]"
        },
        {
          "internalType": "address",
          "name": "token",
          "type": "address"
        },
        {
          "internalType": "uint256",
          "name": "price",
          "type": "uint256"
        },
        {
          "internalType": "uint256",
          "name": "expiration",
          "type": "uint256"
        },
        {
          "internalType": "uint256",
          "name": "createTime",
          "type": "uint256"
        }
      ],
      "stateMutability": "view",
      "type": "function",
      "constant": true
    },
    {
      "inputs": [
        {
          "internalType": "uint256",
          "name": "orderId",
          "type": "uint256"
        }
      ],
      "name": "checkOrderValid",
      "outputs": [
        {
          "internalType": "bool",
          "name": "",
          "type": "bool"
        }
      ],
      "stateMutability": "view",
      "type": "function",
      "constant": true
    },
    {
      "inputs": [
        {
          "internalType": "address",
          "name": "_nftAddress",
          "type": "address"
        }
      ],
      "name": "isValidNFTAddress",
      "outputs": [
        {
          "internalType": "bool",
          "name": "",
          "type": "bool"
        }
      ],
      "stateMutability": "view",
      "type": "function",
      "constant": true
    },
    {
      "inputs": [
        {
          "internalType": "address",
          "name": "_tokenAddress",
          "type": "address"
        }
      ],
      "name": "isValidTokenAddress",
      "outputs": [
        {
          "internalType": "bool",
          "name": "",
          "type": "bool"
        }
      ],
      "stateMutability": "view",
      "type": "function",
      "constant": true
    },
    {
      "inputs": [
        {
          "internalType": "int256",
          "name": "from",
          "type": "int256"
        },
        {
          "internalType": "int256",
          "name": "to",
          "type": "int256"
        }
      ],
      "name": "cleanInvalidOrders",
      "outputs": [],
      "stateMutability": "nonpayable",
      "type": "function"
    },
    {
      "inputs": [
        {
          "internalType": "uint256",
          "name": "orderId",
          "type": "uint256"
        }
      ],
      "name": "cleanInvalidOrder",
      "outputs": [],
      "stateMutability": "nonpayable",
      "type": "function"
    },
    {
      "inputs": [
        {
          "internalType": "uint256[]",
          "name": "_orderIds",
          "type": "uint256[]"
        }
      ],
      "name": "cleanInvalidOrdersAdmin",
      "outputs": [],
      "stateMutability": "nonpayable",
      "type": "function"
    }
  ],
  "bytecode": "0x608060405234801561001057600080fd5b506150e2806100206000396000f3fe6080604052600436106101f95760003560e01c80638ae354f31161010d578063c4a5f277116100a0578063d547741f1161006f578063d547741f14610be1578063d5d286fc14610c3c578063ecf62fdc14610cc2578063f541b38214610d9c578063f615c2bf14610dc7576101f9565b8063c4a5f27714610a9b578063ca15c87314610af6578063ccb7442c14610b45578063d33f797814610ba0576101f9565b8063987092f2116100dc578063987092f2146109435780639d2166ae14610994578063a217fddf146109ec578063c0c53b8b14610a17576101f9565b80638ae354f3146107f75780639010d07c1461083857806391d14854146108a7578063978bbdb914610918576101f9565b806331b412d7116101905780635e47e05d1161015f5780635e47e05d146106575780635fbbc0d2146106be5780636967f993146107065780636b3b9a5b1461074b57806385376c8a1461079c576101f9565b806331b412d71461044257806336568abe1461046d57806342b50a7a146104c85780635d2b90f6146105a7576101f9565b8063248a9ca3116101cc578063248a9ca3146102e05780632d4fd0e21461032f5780632d880f3e146103805780632f2ff15d146103e7576101f9565b8063017e7e58146101fe57806306a958471461023f57806322f85eaa1461027a5780632453ffa8146102b5575b600080fd5b34801561020a57600080fd5b50610213610e0c565b604051808273ffffffffffffffffffffffffffffffffffffffff16815260200191505060405180910390f35b34801561024b57600080fd5b506102786004803603602081101561026257600080fd5b8101908080359060200190929190505050610e32565b005b34801561028657600080fd5b506102b36004803603602081101561029d57600080fd5b810190808035906020019092919050505061121a565b005b3480156102c157600080fd5b506102ca611979565b6040518082815260200191505060405180910390f35b3480156102ec57600080fd5b506103196004803603602081101561030357600080fd5b810190808035906020019092919050505061198a565b6040518082815260200191505060405180910390f35b34801561033b57600080fd5b5061037e6004803603602081101561035257600080fd5b81019080803573ffffffffffffffffffffffffffffffffffffffff1690602001909291905050506119aa565b005b34801561038c57600080fd5b506103cf600480360360208110156103a357600080fd5b81019080803573ffffffffffffffffffffffffffffffffffffffff169060200190929190505050611a74565b60405180821515815260200191505060405180910390f35b3480156103f357600080fd5b506104406004803603604081101561040a57600080fd5b8101908080359060200190929190803573ffffffffffffffffffffffffffffffffffffffff169060200190929190505050611b6e565b005b34801561044e57600080fd5b50610457611bf8565b6040518082815260200191505060405180910390f35b34801561047957600080fd5b506104c66004803603604081101561049057600080fd5b8101908080359060200190929190803573ffffffffffffffffffffffffffffffffffffffff169060200190929190505050611bfe565b005b3480156104d457600080fd5b50610501600480360360208110156104eb57600080fd5b8101908080359060200190929190505050611c97565b604051808773ffffffffffffffffffffffffffffffffffffffff168152602001806020018673ffffffffffffffffffffffffffffffffffffffff168152602001858152602001848152602001838152602001828103825287818151815260200191508051906020019060200280838360005b8381101561058e578082015181840152602081019050610573565b5050505090500197505050505050505060405180910390f35b3480156105b357600080fd5b50610655600480360360608110156105ca57600080fd5b8101908080359060200190929190803573ffffffffffffffffffffffffffffffffffffffff1690602001909291908035906020019064010000000081111561061157600080fd5b82018360208201111561062357600080fd5b8035906020019184602083028401116401000000008311171561064557600080fd5b9091929391929390505050611d7a565b005b34801561066357600080fd5b506106a66004803603602081101561067a57600080fd5b81019080803573ffffffffffffffffffffffffffffffffffffffff16906020019092919050505061235c565b60405180821515815260200191505060405180910390f35b3480156106ca57600080fd5b506106d3612456565b604051808373ffffffffffffffffffffffffffffffffffffffff1681526020018281526020019250505060405180910390f35b34801561071257600080fd5b506107496004803603604081101561072957600080fd5b81019080803590602001909291908035906020019092919050505061245c565b005b34801561075757600080fd5b506107846004803603602081101561076e57600080fd5b81019080803590602001909291905050506124f4565b60405180821515815260200191505060405180910390f35b3480156107a857600080fd5b506107f5600480360360408110156107bf57600080fd5b81019080803573ffffffffffffffffffffffffffffffffffffffff16906020019092919080359060200190929190505050612793565b005b34801561080357600080fd5b5061080c612865565b604051808273ffffffffffffffffffffffffffffffffffffffff16815260200191505060405180910390f35b34801561084457600080fd5b5061087b6004803603604081101561085b57600080fd5b81019080803590602001909291908035906020019092919050505061288b565b604051808273ffffffffffffffffffffffffffffffffffffffff16815260200191505060405180910390f35b3480156108b357600080fd5b50610900600480360360408110156108ca57600080fd5b8101908080359060200190929190803573ffffffffffffffffffffffffffffffffffffffff1690602001909291905050506128bd565b60405180821515815260200191505060405180910390f35b34801561092457600080fd5b5061092d6128ef565b6040518082815260200191505060405180910390f35b34801561094f57600080fd5b506109926004803603602081101561096657600080fd5b81019080803573ffffffffffffffffffffffffffffffffffffffff1690602001909291905050506128f5565b005b3480156109a057600080fd5b506109cd600480360360208110156109b757600080fd5b81019080803590602001909291905050506129bf565b6040518083815260200182151581526020019250505060405180910390f35b3480156109f857600080fd5b50610a016129ee565b6040518082815260200191505060405180910390f35b610a9960048036036060811015610a2d57600080fd5b81019080803573ffffffffffffffffffffffffffffffffffffffff169060200190929190803573ffffffffffffffffffffffffffffffffffffffff169060200190929190803573ffffffffffffffffffffffffffffffffffffffff1690602001909291905050506129f5565b005b348015610aa757600080fd5b50610af460048036036040811015610abe57600080fd5b81019080803573ffffffffffffffffffffffffffffffffffffffff16906020019092919080359060200190929190505050612b99565b005b348015610b0257600080fd5b50610b2f60048036036020811015610b1957600080fd5b8101908080359060200190929190505050612c67565b6040518082815260200191505060405180910390f35b348015610b5157600080fd5b50610b9e60048036036040811015610b6857600080fd5b81019080803573ffffffffffffffffffffffffffffffffffffffff16906020019092919080359060200190929190505050612c8e565b005b348015610bac57600080fd5b50610bb5612d5c565b604051808273ffffffffffffffffffffffffffffffffffffffff16815260200191505060405180910390f35b348015610bed57600080fd5b50610c3a60048036036040811015610c0457600080fd5b8101908080359060200190929190803573ffffffffffffffffffffffffffffffffffffffff169060200190929190505050612d82565b005b348015610c4857600080fd5b50610cc060048036036020811015610c5f57600080fd5b8101908080359060200190640100000000811115610c7c57600080fd5b820183602082011115610c8e57600080fd5b80359060200191846020830284011164010000000083111715610cb057600080fd5b9091929391929390505050612e0c565b005b348015610cce57600080fd5b50610d9a600480360360a0811015610ce557600080fd5b81019080803573ffffffffffffffffffffffffffffffffffffffff16906020019092919080359060200190640100000000811115610d2257600080fd5b820183602082011115610d3457600080fd5b80359060200191846020830284011164010000000083111715610d5657600080fd5b9091929391929390803573ffffffffffffffffffffffffffffffffffffffff1690602001909291908035906020019092919080359060200190929190505050613238565b005b348015610da857600080fd5b50610db1613f31565b6040518082815260200191505060405180910390f35b348015610dd357600080fd5b50610e0a60048036036040811015610dea57600080fd5b810190808035906020019092919080359060200190929190505050613f37565b005b600a60009054906101000a900473ffffffffffffffffffffffffffffffffffffffff1681565b610e3b816124f4565b61121757610e47614e2d565b600660008381526020019081526020016000206040518060e00160405290816000820160009054906101000a900473ffffffffffffffffffffffffffffffffffffffff1673ffffffffffffffffffffffffffffffffffffffff1673ffffffffffffffffffffffffffffffffffffffff1681526020016001820160009054906101000a900473ffffffffffffffffffffffffffffffffffffffff1673ffffffffffffffffffffffffffffffffffffffff1673ffffffffffffffffffffffffffffffffffffffff16815260200160028201805480602002602001604051908101604052809291908181526020018280548015610f6057602002820191906000526020600020905b815481526020019060010190808311610f4c575b505050505081526020016003820160009054906101000a900473ffffffffffffffffffffffffffffffffffffffff1673ffffffffffffffffffffffffffffffffffffffff1673ffffffffffffffffffffffffffffffffffffffff16815260200160048201548152602001600582015481526020016006820154815250509050610ff38260046143cb90919063ffffffff16565b5060066000838152602001908152602001600020600080820160006101000a81549073ffffffffffffffffffffffffffffffffffffffff02191690556001820160006101000a81549073ffffffffffffffffffffffffffffffffffffffff02191690556002820160006110669190614eac565b6003820160006101000a81549073ffffffffffffffffffffffffffffffffffffffff0219169055600482016000905560058201600090556006820160009055505060005b8160400151518110156111335760076000836040015183815181106110cb57fe5b602002602001015181526020019081526020016000206000836020015173ffffffffffffffffffffffffffffffffffffffff1673ffffffffffffffffffffffffffffffffffffffff1681526020019081526020016000206000905580806001019150506110aa565b508060800151816000015173ffffffffffffffffffffffffffffffffffffffff16837f9a9aa1d7c42f50caf2407ac70974e40cdaba5d7ac78e26f7689fc5888abeebfa84604001518560200151866060015160405180806020018473ffffffffffffffffffffffffffffffffffffffff1681526020018373ffffffffffffffffffffffffffffffffffffffff168152602001828103825285818151815260200191508051906020019060200280838360005b838110156112005780820151818401526020810190506111e5565b5050505090500194505050505060405180910390a4505b50565b3273ffffffffffffffffffffffffffffffffffffffff166112396143e5565b73ffffffffffffffffffffffffffffffffffffffff16146112a5576040517f08c379a0000000000000000000000000000000000000000000000000000000008152600401808060200182810382526026815260200180614faf6026913960400191505060405180910390fd5b6112ae816124f4565b611320576040517f08c379a00000000000000000000000000000000000000000000000000000000081526004018080602001828103825260128152602001807f6f72646572206973206e6f742076616c6964000000000000000000000000000081525060200191505060405180910390fd5b611328614e2d565b600660008381526020019081526020016000206040518060e00160405290816000820160009054906101000a900473ffffffffffffffffffffffffffffffffffffffff1673ffffffffffffffffffffffffffffffffffffffff1673ffffffffffffffffffffffffffffffffffffffff1681526020016001820160009054906101000a900473ffffffffffffffffffffffffffffffffffffffff1673ffffffffffffffffffffffffffffffffffffffff1673ffffffffffffffffffffffffffffffffffffffff1681526020016002820180548060200260200160405190810160405280929190818152602001828054801561144157602002820191906000526020600020905b81548152602001906001019080831161142d575b505050505081526020016003820160009054906101000a900473ffffffffffffffffffffffffffffffffffffffff1673ffffffffffffffffffffffffffffffffffffffff1673ffffffffffffffffffffffffffffffffffffffff168152602001600482015481526020016005820154815260200160068201548152505090506114d48260046143cb90919063ffffffff16565b5060066000838152602001908152602001600020600080820160006101000a81549073ffffffffffffffffffffffffffffffffffffffff02191690556001820160006101000a81549073ffffffffffffffffffffffffffffffffffffffff02191690556002820160006115479190614eac565b6003820160006101000a81549073ffffffffffffffffffffffffffffffffffffffff0219169055600482016000905560058201600090556006820160009055505060008160800151905060006115bf64e8d4a510006115b1600d54856143ed90919063ffffffff16565b61447390919063ffffffff16565b9050600b60009054906101000a900473ffffffffffffffffffffffffffffffffffffffff1673ffffffffffffffffffffffffffffffffffffffff166339e7357c6040518163ffffffff1660e01b8152600401602060405180830381600087803b15801561162b57600080fd5b505af115801561163f573d6000803e3d6000fd5b505050506040513d602081101561165557600080fd5b8101908080519060200190929190505050506116c16116726143e5565b600a60009054906101000a900473ffffffffffffffffffffffffffffffffffffffff1683866060015173ffffffffffffffffffffffffffffffffffffffff166144fc909392919063ffffffff16565b6117136116cc6143e5565b84600001516116e88487608001516145bd90919063ffffffff16565b866060015173ffffffffffffffffffffffffffffffffffffffff166144fc909392919063ffffffff16565b60005b83604001515181101561186c57836020015173ffffffffffffffffffffffffffffffffffffffff166342842e0e85600001516117506143e5565b8760400151858151811061176057fe5b60200260200101516040518463ffffffff1660e01b8152600401808473ffffffffffffffffffffffffffffffffffffffff1681526020018373ffffffffffffffffffffffffffffffffffffffff1681526020018281526020019350505050600060405180830381600087803b1580156117d857600080fd5b505af11580156117ec573d6000803e3d6000fd5b50505050600760008560400151838151811061180457fe5b602002602001015181526020019081526020016000206000856020015173ffffffffffffffffffffffffffffffffffffffff1673ffffffffffffffffffffffffffffffffffffffff168152602001908152602001600020600090558080600101915050611716565b50826080015161187a6143e5565b73ffffffffffffffffffffffffffffffffffffffff16857ff7e635981964511d001a05bcef6b8d34da1521d32fd3ca8987500de472e95289866040015187600001518860200151896060015160405180806020018573ffffffffffffffffffffffffffffffffffffffff1681526020018473ffffffffffffffffffffffffffffffffffffffff1681526020018373ffffffffffffffffffffffffffffffffffffffff168152602001828103825286818151815260200191508051906020019060200280838360005b8381101561195d578082015181840152602081019050611942565b505050509050019550505050505060405180910390a450505050565b60006119856004614640565b905090565b600060016000838152602001908152602001600020600201549050919050565b6119be6000801b6119b96143e5565b6128bd565b611a30576040517f08c379a00000000000000000000000000000000000000000000000000000000081526004018080602001828103825260168152602001807f41646d696e20726f6c652069732072657175697265640000000000000000000081525060200191505060405180910390fd5b80600b60006101000a81548173ffffffffffffffffffffffffffffffffffffffff021916908373ffffffffffffffffffffffffffffffffffffffff16021790555050565b60008073ffffffffffffffffffffffffffffffffffffffff168273ffffffffffffffffffffffffffffffffffffffff161415611b18576040517f08c379a000000000000000000000000000000000000000000000000000000000815260040180806020018281038252600c8152602001807f5f746f6b656e206572726f72000000000000000000000000000000000000000081525060200191505060405180910390fd5b6000600960008473ffffffffffffffffffffffffffffffffffffffff1673ffffffffffffffffffffffffffffffffffffffff1681526020019081526020016000205414611b685760019050611b69565b5b919050565b611b956001600084815260200190815260200160002060020154611b906143e5565b6128bd565b611bea576040517f08c379a000000000000000000000000000000000000000000000000000000000815260040180806020018281038252602f815260200180614f5a602f913960400191505060405180910390fd5b611bf48282614655565b5050565b60035481565b611c066143e5565b73ffffffffffffffffffffffffffffffffffffffff168173ffffffffffffffffffffffffffffffffffffffff1614611c89576040517f08c379a000000000000000000000000000000000000000000000000000000000815260040180806020018281038252602f81526020018061507e602f913960400191505060405180910390fd5b611c9382826146e9565b5050565b6000606060008060008060006006600089815260200190815260200160002090508060000160009054906101000a900473ffffffffffffffffffffffffffffffffffffffff16965080600201805480602002602001604051908101604052809291908181526020018280548015611d2d57602002820191906000526020600020905b815481526020019060010190808311611d19575b505050505095508060030160009054906101000a900473ffffffffffffffffffffffffffffffffffffffff1694508060040154935080600501549250806006015491505091939550919395565b3273ffffffffffffffffffffffffffffffffffffffff16611d996143e5565b73ffffffffffffffffffffffffffffffffffffffff1614611e05576040517f08c379a0000000000000000000000000000000000000000000000000000000008152600401808060200182810382526026815260200180614faf6026913960400191505060405180910390fd5b60006006600086815260200190815260200160002060000160009054906101000a900473ffffffffffffffffffffffffffffffffffffffff169050600073ffffffffffffffffffffffffffffffffffffffff168173ffffffffffffffffffffffffffffffffffffffff161415611ee3576040517f08c379a000000000000000000000000000000000000000000000000000000000815260040180806020018281038252600f8152602001807f6f72646572206e6f74206578697374000000000000000000000000000000000081525060200191505060405180910390fd5b611eeb6143e5565b73ffffffffffffffffffffffffffffffffffffffff168173ffffffffffffffffffffffffffffffffffffffff1614611f8b576040517f08c379a000000000000000000000000000000000000000000000000000000000815260040180806020018281038252600f8152602001807f6f72646572206e6f7420796f757273000000000000000000000000000000000081525060200191505060405180910390fd5b611f9f8560046143cb90919063ffffffff16565b5060066000868152602001908152602001600020600080820160006101000a81549073ffffffffffffffffffffffffffffffffffffffff02191690556001820160006101000a81549073ffffffffffffffffffffffffffffffffffffffff02191690556002820160006120129190614eac565b6003820160006101000a81549073ffffffffffffffffffffffffffffffffffffffff02191690556004820160009055600582016000905560068201600090555050600b60009054906101000a900473ffffffffffffffffffffffffffffffffffffffff1673ffffffffffffffffffffffffffffffffffffffff166339e7357c6040518163ffffffff1660e01b8152600401602060405180830381600087803b1580156120bd57600080fd5b505af11580156120d1573d6000803e3d6000fd5b505050506040513d60208110156120e757600080fd5b81019080805190602001909291905050505060005b838390508110156122bf5761210f6143e5565b73ffffffffffffffffffffffffffffffffffffffff168573ffffffffffffffffffffffffffffffffffffffff16636352211e86868581811061214d57fe5b905060200201356040518263ffffffff1660e01b81526004018082815260200191505060206040518083038186803b15801561218857600080fd5b505afa15801561219c573d6000803e3d6000fd5b505050506040513d60208110156121b257600080fd5b810190808051906020019092919050505073ffffffffffffffffffffffffffffffffffffffff161461224c576040517f08c379a000000000000000000000000000000000000000000000000000000000815260040180806020018281038252600d8152602001807f6e6674206e6f7420796f7572730000000000000000000000000000000000000081525060200191505060405180910390fd5b6007600085858481811061225c57fe5b90506020020135815260200190815260200160002060008673ffffffffffffffffffffffffffffffffffffffff1673ffffffffffffffffffffffffffffffffffffffff1681526020019081526020016000206000905580806001019150506120fc565b50848473ffffffffffffffffffffffffffffffffffffffff168273ffffffffffffffffffffffffffffffffffffffff167f3b63a5b9b9b33835d523ff00b147a0224d3468ea8554f16591b79dc5fea192a1868660405180806020018281038252848482818152602001925060200280828437600081840152601f19601f820116905080830192505050935050505060405180910390a45050505050565b60008073ffffffffffffffffffffffffffffffffffffffff168273ffffffffffffffffffffffffffffffffffffffff161415612400576040517f08c379a00000000000000000000000000000000000000000000000000000000081526004018080602001828103825260128152602001807f5f6e6674436f6e7472616374206572726f72000000000000000000000000000081525060200191505060405180910390fd5b6000600860008473ffffffffffffffffffffffffffffffffffffffff1673ffffffffffffffffffffffffffffffffffffffff16815260200190815260200160002054146124505760019050612451565b5b919050565b60008091565b6124706000801b61246b6143e5565b6128bd565b6124e2576040517f08c379a00000000000000000000000000000000000000000000000000000000081526004018080602001828103825260168152602001807f41646d696e20726f6c652069732072657175697265640000000000000000000081525060200191505060405180910390fd5b80600281905550816003819055505050565b60008060066000848152602001908152602001600020905060005b8160020180549050811015612655578160000160009054906101000a900473ffffffffffffffffffffffffffffffffffffffff1673ffffffffffffffffffffffffffffffffffffffff168260010160009054906101000a900473ffffffffffffffffffffffffffffffffffffffff1673ffffffffffffffffffffffffffffffffffffffff16636352211e8460020184815481106125a857fe5b90600052602060002001546040518263ffffffff1660e01b81526004018082815260200191505060206040518083038186803b1580156125e757600080fd5b505afa1580156125fb573d6000803e3d6000fd5b505050506040513d602081101561261157600080fd5b810190808051906020019092919050505073ffffffffffffffffffffffffffffffffffffffff16146126485760009250505061278e565b808060010191505061250f565b508060010160009054906101000a900473ffffffffffffffffffffffffffffffffffffffff1673ffffffffffffffffffffffffffffffffffffffff1663e985e9c58260000160009054906101000a900473ffffffffffffffffffffffffffffffffffffffff16306040518363ffffffff1660e01b8152600401808373ffffffffffffffffffffffffffffffffffffffff1681526020018273ffffffffffffffffffffffffffffffffffffffff1681526020019250505060206040518083038186803b15801561272357600080fd5b505afa158015612737573d6000803e3d6000fd5b505050506040513d602081101561274d57600080fd5b810190808051906020019092919050505061276c57600091505061278e565b428160050154826006015401101561278857600091505061278e565b60019150505b919050565b6127a76000801b6127a26143e5565b6128bd565b612819576040517f08c379a00000000000000000000000000000000000000000000000000000000081526004018080602001828103825260168152602001807f41646d696e20726f6c652069732072657175697265640000000000000000000081525060200191505060405180910390fd5b81600a60006101000a81548173ffffffffffffffffffffffffffffffffffffffff021916908373ffffffffffffffffffffffffffffffffffffffff16021790555080600d819055505050565b600c60009054906101000a900473ffffffffffffffffffffffffffffffffffffffff1681565b60006128b5826001600086815260200190815260200160002060000161477d90919063ffffffff16565b905092915050565b60006128e7826001600086815260200190815260200160002060000161479790919063ffffffff16565b905092915050565b600d5481565b6129096000801b6129046143e5565b6128bd565b61297b576040517f08c379a00000000000000000000000000000000000000000000000000000000081526004018080602001828103825260168152602001807f41646d696e20726f6c652069732072657175697265640000000000000000000081525060200191505060405180910390fd5b80600c60006101000a81548173ffffffffffffffffffffffffffffffffffffffff021916908373ffffffffffffffffffffffffffffffffffffffff16021790555050565b60008060006129d88460046147c790919063ffffffff16565b9050806129e4826124f4565b9250925050915091565b6000801b81565b600060019054906101000a900460ff1680612a145750612a136147e1565b5b80612a2a575060008054906101000a900460ff16155b612a7f576040517f08c379a000000000000000000000000000000000000000000000000000000000815260040180806020018281038252602e815260200180615005602e913960400191505060405180910390fd5b60008060019054906101000a900460ff161590508015612acf576001600060016101000a81548160ff02191690831515021790555060016000806101000a81548160ff0219169083151502179055505b612adc6000801b856147f2565b621275006002819055506201518060038190555082600b60006101000a81548173ffffffffffffffffffffffffffffffffffffffff021916908373ffffffffffffffffffffffffffffffffffffffff16021790555081600c60006101000a81548173ffffffffffffffffffffffffffffffffffffffff021916908373ffffffffffffffffffffffffffffffffffffffff1602179055508015612b935760008060016101000a81548160ff0219169083151502179055505b50505050565b612bad6000801b612ba86143e5565b6128bd565b612c1f576040517f08c379a00000000000000000000000000000000000000000000000000000000081526004018080602001828103825260168152602001807f41646d696e20726f6c652069732072657175697265640000000000000000000081525060200191505060405180910390fd5b80600860008473ffffffffffffffffffffffffffffffffffffffff1673ffffffffffffffffffffffffffffffffffffffff168152602001908152602001600020819055505050565b6000612c8760016000848152602001908152602001600020600001614800565b9050919050565b612ca26000801b612c9d6143e5565b6128bd565b612d14576040517f08c379a00000000000000000000000000000000000000000000000000000000081526004018080602001828103825260168152602001807f41646d696e20726f6c652069732072657175697265640000000000000000000081525060200191505060405180910390fd5b80600960008473ffffffffffffffffffffffffffffffffffffffff1673ffffffffffffffffffffffffffffffffffffffff168152602001908152602001600020819055505050565b600b60009054906101000a900473ffffffffffffffffffffffffffffffffffffffff1681565b612da96001600084815260200190815260200160002060020154612da46143e5565b6128bd565b612dfe576040517f08c379a0000000000000000000000000000000000000000000000000000000008152600401808060200182810382526030815260200180614fd56030913960400191505060405180910390fd5b612e0882826146e9565b5050565b612e206000801b612e1b6143e5565b6128bd565b612e2957600080fd5b60005b82829050811015613233576000838383818110612e4557fe5b905060200201359050612e56614e2d565b600660008381526020019081526020016000206040518060e00160405290816000820160009054906101000a900473ffffffffffffffffffffffffffffffffffffffff1673ffffffffffffffffffffffffffffffffffffffff1673ffffffffffffffffffffffffffffffffffffffff1681526020016001820160009054906101000a900473ffffffffffffffffffffffffffffffffffffffff1673ffffffffffffffffffffffffffffffffffffffff1673ffffffffffffffffffffffffffffffffffffffff16815260200160028201805480602002602001604051908101604052809291908181526020018280548015612f6f57602002820191906000526020600020905b815481526020019060010190808311612f5b575b505050505081526020016003820160009054906101000a900473ffffffffffffffffffffffffffffffffffffffff1673ffffffffffffffffffffffffffffffffffffffff1673ffffffffffffffffffffffffffffffffffffffff168152602001600482015481526020016005820154815260200160068201548152505090506130028260046143cb90919063ffffffff16565b5060066000838152602001908152602001600020600080820160006101000a81549073ffffffffffffffffffffffffffffffffffffffff02191690556001820160006101000a81549073ffffffffffffffffffffffffffffffffffffffff02191690556002820160006130759190614eac565b6003820160006101000a81549073ffffffffffffffffffffffffffffffffffffffff0219169055600482016000905560058201600090556006820160009055505060005b8160400151518110156131425760076000836040015183815181106130da57fe5b602002602001015181526020019081526020016000206000836020015173ffffffffffffffffffffffffffffffffffffffff1673ffffffffffffffffffffffffffffffffffffffff1681526020019081526020016000206000905580806001019150506130b9565b508060800151816000015173ffffffffffffffffffffffffffffffffffffffff16837f9a9aa1d7c42f50caf2407ac70974e40cdaba5d7ac78e26f7689fc5888abeebfa84604001518560200151866060015160405180806020018473ffffffffffffffffffffffffffffffffffffffff1681526020018373ffffffffffffffffffffffffffffffffffffffff168152602001828103825285818151815260200191508051906020019060200280838360005b8381101561320f5780820151818401526020810190506131f4565b5050505090500194505050505060405180910390a450508080600101915050612e2c565b505050565b3273ffffffffffffffffffffffffffffffffffffffff166132576143e5565b73ffffffffffffffffffffffffffffffffffffffff16146132c3576040517f08c379a0000000000000000000000000000000000000000000000000000000008152600401808060200182810382526026815260200180614faf6026913960400191505060405180910390fd5b600c60009054906101000a900473ffffffffffffffffffffffffffffffffffffffff1673ffffffffffffffffffffffffffffffffffffffff1663b36d69196133096143e5565b6040518263ffffffff1660e01b8152600401808273ffffffffffffffffffffffffffffffffffffffff16815260200191505060206040518083038186803b15801561335357600080fd5b505afa158015613367573d6000803e3d6000fd5b505050506040513d602081101561337d57600080fd5b810190808051906020019092919050505015613401576040517f08c379a00000000000000000000000000000000000000000000000000000000081526004018080602001828103825260158152602001807f596f752061726520696e20626c61636b206c697374000000000000000000000081525060200191505060405180910390fd5b8573ffffffffffffffffffffffffffffffffffffffff1663e985e9c56134256143e5565b306040518363ffffffff1660e01b8152600401808373ffffffffffffffffffffffffffffffffffffffff1681526020018273ffffffffffffffffffffffffffffffffffffffff1681526020019250505060206040518083038186803b15801561348d57600080fd5b505afa1580156134a1573d6000803e3d6000fd5b505050506040513d60208110156134b757600080fd5b810190808051906020019092919050505061353a576040517f08c379a00000000000000000000000000000000000000000000000000000000081526004018080602001828103825260128152602001807f4d75737420617070726f7665206669727374000000000000000000000000000081525060200191505060405180910390fd5b6002548111156135b2576040517f08c379a00000000000000000000000000000000000000000000000000000000081526004018080602001828103825260148152602001807f65787069726174696f6e20746f6f206c6172676500000000000000000000000081525060200191505060405180910390fd5b60035481101561362a576040517f08c379a00000000000000000000000000000000000000000000000000000000081526004018080602001828103825260148152602001807f65787069726174696f6e20746f6f20736d616c6c00000000000000000000000081525060200191505060405180910390fd5b60048585905011156136a4576040517f08c379a000000000000000000000000000000000000000000000000000000000815260040180806020018281038252601a8152602001807f616d6f756e742073656c6c696e67206e6674206578636565642000000000000081525060200191505060405180910390fd5b6136ad8661235c565b61371f576040517f08c379a000000000000000000000000000000000000000000000000000000000815260040180806020018281038252601c8152602001807f4e46542061646472657373206973206e6f7420737570706f727465640000000081525060200191505060405180910390fd5b61372883611a74565b61379a576040517f08c379a000000000000000000000000000000000000000000000000000000000815260040180806020018281038252601e8152602001807f546f6b656e2061646472657373206973206e6f7420737570706f72746564000081525060200191505060405180910390fd5b6000821415613811576040517f08c379a000000000000000000000000000000000000000000000000000000000815260040180806020018281038252600c8152602001807f5f7072696365206572726f72000000000000000000000000000000000000000081525060200191505060405180910390fd5b600b60009054906101000a900473ffffffffffffffffffffffffffffffffffffffff1673ffffffffffffffffffffffffffffffffffffffff166339e7357c6040518163ffffffff1660e01b8152600401602060405180830381600087803b15801561387b57600080fd5b505af115801561388f573d6000803e3d6000fd5b505050506040513d60208110156138a557600080fd5b81019080805190602001909291905050505060005b85859050811015613b785760008686838181106138d357fe5b90506020020135141561394e576040517f08c379a000000000000000000000000000000000000000000000000000000000815260040180806020018281038252600d8152602001807f5f6e6674496473206572726f720000000000000000000000000000000000000081525060200191505060405180910390fd5b6139566143e5565b73ffffffffffffffffffffffffffffffffffffffff168773ffffffffffffffffffffffffffffffffffffffff16636352211e88888581811061399457fe5b905060200201356040518263ffffffff1660e01b81526004018082815260200191505060206040518083038186803b1580156139cf57600080fd5b505afa1580156139e3573d6000803e3d6000fd5b505050506040513d60208110156139f957600080fd5b810190808051906020019092919050505073ffffffffffffffffffffffffffffffffffffffff1614613a93576040517f08c379a00000000000000000000000000000000000000000000000000000000081526004018080602001828103825260128152602001807f596f752068617665206e6f20616363657373000000000000000000000000000081525060200191505060405180910390fd5b600060076000888885818110613aa557fe5b90506020020135815260200190815260200160002060008973ffffffffffffffffffffffffffffffffffffffff1673ffffffffffffffffffffffffffffffffffffffff1681526020019081526020016000205414613b6b576040517f08c379a000000000000000000000000000000000000000000000000000000000815260040180806020018281038252600e8152602001807f6e66742069732073656c6c696e6700000000000000000000000000000000000081525060200191505060405180910390fd5b80806001019150506138ba565b506000613b836143e5565b86868987604051602001808673ffffffffffffffffffffffffffffffffffffffff168152602001806020018473ffffffffffffffffffffffffffffffffffffffff1681526020018373ffffffffffffffffffffffffffffffffffffffff1681526020018281038252868682818152602001925060200280828437600081840152601f19601f82011690508083019250505096505050505050506040516020818303038152906040528051906020012060001c9050613c3f6143e5565b6006600083815260200190815260200160002060000160006101000a81548173ffffffffffffffffffffffffffffffffffffffff021916908373ffffffffffffffffffffffffffffffffffffffff160217905550866006600083815260200190815260200160002060010160006101000a81548173ffffffffffffffffffffffffffffffffffffffff021916908373ffffffffffffffffffffffffffffffffffffffff1602179055508585600660008481526020019081526020016000206002019190613d0d929190614ecd565b50836006600083815260200190815260200160002060030160006101000a81548173ffffffffffffffffffffffffffffffffffffffff021916908373ffffffffffffffffffffffffffffffffffffffff16021790555082600660008381526020019081526020016000206004018190555081600660008381526020019081526020016000206005018190555042600660008381526020019081526020016000206006018190555060005b86869050811015613e4857868682818110613dce57fe5b9050602002013560076000898985818110613de557fe5b90506020020135815260200190815260200160002060008a73ffffffffffffffffffffffffffffffffffffffff1673ffffffffffffffffffffffffffffffffffffffff168152602001908152602001600020819055508080600101915050613db7565b50613e5d81600461481590919063ffffffff16565b50828473ffffffffffffffffffffffffffffffffffffffff168873ffffffffffffffffffffffffffffffffffffffff167fb873c56149c7f0aab004d9c326891e0a96bf1d79dbe7bd5ddde117165ceb7a5b613eb66143e5565b8a8a8888604051808673ffffffffffffffffffffffffffffffffffffffff168152602001806020018481526020018381526020018281038252868682818152602001925060200280828437600081840152601f19601f820116905080830192505050965050505050505060405180910390a450505050505050565b60025481565b81811215613fad576040517f08c379a00000000000000000000000000000000000000000000000000000000081526004018080602001828103825260118152602001807f746f2073686f756c64203e3d2066726f6d00000000000000000000000000000081525060200191505060405180910390fd5b60008190505b8281126143c6576000613fd08260046147c790919063ffffffff16565b9050613fdb816124f4565b6143b757613fe7614e2d565b600660008381526020019081526020016000206040518060e00160405290816000820160009054906101000a900473ffffffffffffffffffffffffffffffffffffffff1673ffffffffffffffffffffffffffffffffffffffff1673ffffffffffffffffffffffffffffffffffffffff1681526020016001820160009054906101000a900473ffffffffffffffffffffffffffffffffffffffff1673ffffffffffffffffffffffffffffffffffffffff1673ffffffffffffffffffffffffffffffffffffffff1681526020016002820180548060200260200160405190810160405280929190818152602001828054801561410057602002820191906000526020600020905b8154815260200190600101908083116140ec575b505050505081526020016003820160009054906101000a900473ffffffffffffffffffffffffffffffffffffffff1673ffffffffffffffffffffffffffffffffffffffff1673ffffffffffffffffffffffffffffffffffffffff168152602001600482015481526020016005820154815260200160068201548152505090506141938260046143cb90919063ffffffff16565b5060066000838152602001908152602001600020600080820160006101000a81549073ffffffffffffffffffffffffffffffffffffffff02191690556001820160006101000a81549073ffffffffffffffffffffffffffffffffffffffff02191690556002820160006142069190614eac565b6003820160006101000a81549073ffffffffffffffffffffffffffffffffffffffff0219169055600482016000905560058201600090556006820160009055505060005b8160400151518110156142d357600760008360400151838151811061426b57fe5b602002602001015181526020019081526020016000206000836020015173ffffffffffffffffffffffffffffffffffffffff1673ffffffffffffffffffffffffffffffffffffffff16815260200190815260200160002060009055808060010191505061424a565b508060800151816000015173ffffffffffffffffffffffffffffffffffffffff16837f9a9aa1d7c42f50caf2407ac70974e40cdaba5d7ac78e26f7689fc5888abeebfa84604001518560200151866060015160405180806020018473ffffffffffffffffffffffffffffffffffffffff1681526020018373ffffffffffffffffffffffffffffffffffffffff168152602001828103825285818151815260200191508051906020019060200280838360005b838110156143a0578082015181840152602081019050614385565b5050505090500194505050505060405180910390a4505b50808060019003915050613fb3565b505050565b60006143dd836000018360001b61482f565b905092915050565b600033905090565b600080831415614400576000905061446d565b600082840290508284828161441157fe5b0414614468576040517f08c379a00000000000000000000000000000000000000000000000000000000081526004018080602001828103825260218152602001806150336021913960400191505060405180910390fd5b809150505b92915050565b60008082116144ea576040517f08c379a000000000000000000000000000000000000000000000000000000000815260040180806020018281038252601a8152602001807f536166654d6174683a206469766973696f6e206279207a65726f00000000000081525060200191505060405180910390fd5b8183816144f357fe5b04905092915050565b6145b7846323b872dd60e01b858585604051602401808473ffffffffffffffffffffffffffffffffffffffff1681526020018373ffffffffffffffffffffffffffffffffffffffff1681526020018281526020019350505050604051602081830303815290604052907bffffffffffffffffffffffffffffffffffffffffffffffffffffffff19166020820180517bffffffffffffffffffffffffffffffffffffffffffffffffffffffff8381831617835250505050614917565b50505050565b600082821115614635576040517f08c379a000000000000000000000000000000000000000000000000000000000815260040180806020018281038252601e8152602001807f536166654d6174683a207375627472616374696f6e206f766572666c6f77000081525060200191505060405180910390fd5b818303905092915050565b600061464e82600001614a06565b9050919050565b61467d8160016000858152602001908152602001600020600001614a1790919063ffffffff16565b156146e55761468a6143e5565b73ffffffffffffffffffffffffffffffffffffffff168173ffffffffffffffffffffffffffffffffffffffff16837f2f8788117e7eff1d82e926ec794901d17c78024a50270940304540a733656f0d60405160405180910390a45b5050565b6147118160016000858152602001908152602001600020600001614a4790919063ffffffff16565b156147795761471e6143e5565b73ffffffffffffffffffffffffffffffffffffffff168173ffffffffffffffffffffffffffffffffffffffff16837ff6391f5c32d9c69d2a47ea670b442974b53935d1edc7fd64eb21e047a839171b60405160405180910390a45b5050565b600061478c8360000183614a77565b60001c905092915050565b60006147bf836000018373ffffffffffffffffffffffffffffffffffffffff1660001b614afa565b905092915050565b60006147d68360000183614a77565b60001c905092915050565b60006147ec30614b1d565b15905090565b6147fc8282614655565b5050565b600061480e82600001614a06565b9050919050565b6000614827836000018360001b614b30565b905092915050565b6000808360010160008481526020019081526020016000205490506000811461490b576000600182039050600060018660000180549050039050600086600001828154811061487a57fe5b906000526020600020015490508087600001848154811061489757fe5b90600052602060002001819055506001830187600101600083815260200190815260200160002081905550866000018054806148cf57fe5b60019003818190600052602060002001600090559055866001016000878152602001908152602001600020600090556001945050505050614911565b60009150505b92915050565b6060614979826040518060400160405280602081526020017f5361666545524332303a206c6f772d6c6576656c2063616c6c206661696c65648152508573ffffffffffffffffffffffffffffffffffffffff16614ba09092919063ffffffff16565b9050600081511115614a015780806020019051602081101561499a57600080fd5b8101908080519060200190929190505050614a00576040517f08c379a000000000000000000000000000000000000000000000000000000000815260040180806020018281038252602a815260200180615054602a913960400191505060405180910390fd5b5b505050565b600081600001805490509050919050565b6000614a3f836000018373ffffffffffffffffffffffffffffffffffffffff1660001b614b30565b905092915050565b6000614a6f836000018373ffffffffffffffffffffffffffffffffffffffff1660001b61482f565b905092915050565b600081836000018054905011614ad8576040517f08c379a0000000000000000000000000000000000000000000000000000000008152600401808060200182810382526022815260200180614f386022913960400191505060405180910390fd5b826000018281548110614ae757fe5b9060005260206000200154905092915050565b600080836001016000848152602001908152602001600020541415905092915050565b600080823b905060008111915050919050565b6000614b3c8383614afa565b614b95578260000182908060018154018082558091505060019003906000526020600020016000909190919091505582600001805490508360010160008481526020019081526020016000208190555060019050614b9a565b600090505b92915050565b6060614baf8484600085614bb8565b90509392505050565b606082471015614c13576040517f08c379a0000000000000000000000000000000000000000000000000000000008152600401808060200182810382526026815260200180614f896026913960400191505060405180910390fd5b614c1c85614b1d565b614c8e576040517f08c379a000000000000000000000000000000000000000000000000000000000815260040180806020018281038252601d8152602001807f416464726573733a2063616c6c20746f206e6f6e2d636f6e747261637400000081525060200191505060405180910390fd5b600060608673ffffffffffffffffffffffffffffffffffffffff1685876040518082805190602001908083835b60208310614cde5780518252602082019150602081019050602083039250614cbb565b6001836020036101000a03801982511681845116808217855250505050505090500191505060006040518083038185875af1925050503d8060008114614d40576040519150601f19603f3d011682016040523d82523d6000602084013e614d45565b606091505b5091509150614d55828286614d61565b92505050949350505050565b60608315614d7157829050614e26565b600083511115614d845782518084602001fd5b816040517f08c379a00000000000000000000000000000000000000000000000000000000081526004018080602001828103825283818151815260200191508051906020019080838360005b83811015614deb578082015181840152602081019050614dd0565b50505050905090810190601f168015614e185780820380516001836020036101000a031916815260200191505b509250505060405180910390fd5b9392505050565b6040518060e00160405280600073ffffffffffffffffffffffffffffffffffffffff168152602001600073ffffffffffffffffffffffffffffffffffffffff16815260200160608152602001600073ffffffffffffffffffffffffffffffffffffffff1681526020016000815260200160008152602001600081525090565b5080546000825590600052602060002090810190614eca9190614f1a565b50565b828054828255906000526020600020908101928215614f09579160200282015b82811115614f08578235825591602001919060010190614eed565b5b509050614f169190614f1a565b5090565b5b80821115614f33576000816000905550600101614f1b565b509056fe456e756d657261626c655365743a20696e646578206f7574206f6620626f756e6473416363657373436f6e74726f6c3a2073656e646572206d75737420626520616e2061646d696e20746f206772616e74416464726573733a20696e73756666696369656e742062616c616e636520666f722063616c6c465761724d61726b65743a2043616e206e6f742063616c6c2066726f6d20636f6e7472616374416363657373436f6e74726f6c3a2073656e646572206d75737420626520616e2061646d696e20746f207265766f6b65496e697469616c697a61626c653a20636f6e747261637420697320616c726561647920696e697469616c697a6564536166654d6174683a206d756c7469706c69636174696f6e206f766572666c6f775361666545524332303a204552433230206f7065726174696f6e20646964206e6f742073756363656564416363657373436f6e74726f6c3a2063616e206f6e6c792072656e6f756e636520726f6c657320666f722073656c66a2646970667358221220239941e2f1265d73ca592f49adc811c596cfe4c3350ede53c279df201f27592a64736f6c634300060c0033",
  "immutableReferences": {},
  "source": "// SPDX-License-Identifier: MIT\npragma solidity 0.6.12;\n\nimport \"@openzeppelin/contracts/math/SafeMath.sol\";\nimport \"@openzeppelin/contracts/token/ERC721/IERC721.sol\";\nimport \"@openzeppelin/contracts/token/ERC20/IERC20.sol\";\nimport \"@openzeppelin/contracts/token/ERC20/SafeERC20.sol\";\nimport \"@openzeppelin/contracts/access/AccessControl.sol\";\nimport \"@openzeppelin/contracts/proxy/Initializable.sol\";\nimport \"./FwarMarketStorage.sol\";\n\n\ninterface ISeed {\n    function getSeed() external returns(uint256);\n}\n\ninterface IFwarBlackList {\n    function isBlackList(address _address) external view returns (bool);\n}\n\ncontract FwarMarketDelegate is Initializable, AccessControl, FwarMarketStorage {\n    using SafeERC20 for IERC20;\n\n    event CreateOrder(address _owner, address indexed _nftContract, uint[] _nftIds, address indexed _token, uint indexed _price, uint _expiration, uint _orderId);\n\n    event CancelOrder(address indexed _owner, address indexed _nftContract , uint indexed _orderId, uint[] _nftIds);\n\n    event BuyOrder(uint indexed _orderId, uint[] _nftIds, address indexed _buyer, address _seller, address _nftContract, address _token, uint indexed price);\n    \n    event CleanOrder(uint indexed _orderId, uint[] _nftIds, address indexed _seller, address _nftContract, address _token, uint indexed price);\n\n    function initialize(address admin, address _seedAddress, address _blackListAddress) public payable initializer {\n        _setupRole(DEFAULT_ADMIN_ROLE, admin);\n        maxExpirationTime = 14 days;\n        minExpirationTime = 1 days;\n        seedAddress = _seedAddress;\n        blackListAddress = _blackListAddress;\n    }\n\n    function configExpiration(uint _minExpirationTime, uint _maxExpirationTime) public {\n        require(hasRole(DEFAULT_ADMIN_ROLE, _msgSender()), 'Admin role is required');\n        maxExpirationTime = _maxExpirationTime;\n        minExpirationTime = _minExpirationTime;\n    }\n\n    function configFee(address _feeTo, uint _feeRate) public {\n        require(hasRole(DEFAULT_ADMIN_ROLE, _msgSender()), 'Admin role is required');\n        feeTo = _feeTo;\n        feeRate = _feeRate;\n    }\n\n    function setNFTAdd(address _nftAddress, uint _value) public {\n        require(hasRole(DEFAULT_ADMIN_ROLE, _msgSender()), 'Admin role is required');\n        nftAdds[_nftAddress] = _value;\n    }\n\n    function setTokenAdd(address _tokenAddress, uint _value) public {\n        require(hasRole(DEFAULT_ADMIN_ROLE, _msgSender()), 'Admin role is required');\n        tokenAdds[_tokenAddress] = _value;\n    }\n\n    function getFeeConfig() external pure returns(address feeTo, uint feeRate){\n        return (feeTo, feeRate);\n    }\n\n    function setSeedAddress(address _seedAddress) external {\n        require(hasRole(DEFAULT_ADMIN_ROLE, _msgSender()), 'Admin role is required');\n        seedAddress = _seedAddress;\n    }\n\n    function setBlackListAddress(address _blackListAddress) external{\n        require(hasRole(DEFAULT_ADMIN_ROLE, _msgSender()), 'Admin role is required');\n        blackListAddress = _blackListAddress;\n    }\n\n    /// @dev createOrder is called by a seller\n    /// @param _nftContract is the NFT contract address\n    /// @param _nftIds is the array of nftId to sell\n    /// @param _expiration is the expiration of order in seconds\n    /// @param _token is the pay token contract address for buyer\n    /// @param _price is the amount of pay token\n    function createOrder(address _nftContract, uint[] calldata _nftIds, address _token, uint _price, uint _expiration) external {\n        require(_msgSender() == tx.origin, \"FWarMarket: Can not call from contract\");\n        require(!IFwarBlackList(blackListAddress).isBlackList(_msgSender()), \"You are in black list\");\n        require(IERC721(_nftContract).isApprovedForAll(_msgSender(), address(this)), \"Must approve first\");\n        require(_expiration <= maxExpirationTime, \"expiration too large\");\n        require(_expiration >= minExpirationTime, \"expiration too small\");\n        require(_nftIds.length <= 4, \"amount selling nft exceed \");\n        require(isValidNFTAddress(_nftContract), \"NFT address is not supported\");\n        require(isValidTokenAddress(_token), \"Token address is not supported\");\n        require(_price != 0, \"_price error\");\n\n        //Call for generate new seed for random\n        ISeed(seedAddress).getSeed();\n\n        for (uint i = 0; i < _nftIds.length; i++) {\n            require(_nftIds[i] != 0, \"_nftIds error\");\n            require(IERC721(_nftContract).ownerOf(_nftIds[i]) == _msgSender(), \"You have no access\");\n            require(sellingNFT[_nftIds[i]][_nftContract] == 0, \"nft is selling\");\n        }\n        uint orderId = uint(keccak256(abi.encode(_msgSender(), _nftIds, _nftContract, _token)));\n        \n        orders[orderId].owner = _msgSender();\n        orders[orderId].nftContract = _nftContract;\n        orders[orderId].nftIds = _nftIds;\n        orders[orderId].token = _token;\n        orders[orderId].price = _price;\n        orders[orderId].expiration = _expiration;\n        orders[orderId].createTime = block.timestamp;\n\n        for (uint i = 0; i < _nftIds.length; i++) {\n            sellingNFT[_nftIds[i]][_nftContract] = _nftIds[i];\n        }\n        orderIds.add(orderId);\n\n        emit CreateOrder(_msgSender(), _nftContract, _nftIds, _token, _price, _expiration, orderId);\n    }\n\n    /// @param _nftContract is the NFT contract address\n    /// @param _nftIds is the array of nftId\n    function cancelOrder(uint orderId, address _nftContract, uint[] calldata _nftIds) public {\n        require(_msgSender() == tx.origin, \"FWarMarket: Can not call from contract\");\n        address owner = orders[orderId].owner;\n        require(owner != address(0), \"order not exist\");\n        require(owner == _msgSender(), \"order not yours\");\n        orderIds.remove(orderId);\n        delete orders[orderId];\n\n        //Call for generate new seed for random\n        ISeed(seedAddress).getSeed();\n\n        for (uint i = 0; i < _nftIds.length; i++) {\n            require(IERC721(_nftContract).ownerOf(_nftIds[i]) == _msgSender(), \"nft not yours\");\n            delete sellingNFT[_nftIds[i]][_nftContract];\n        }\n\n        emit CancelOrder(owner, _nftContract,  orderId, _nftIds);\n    }\n\n    function buyOrder(uint _orderId) external {\n        require(_msgSender() == tx.origin, \"FWarMarket: Can not call from contract\");\n        require(checkOrderValid(_orderId), \"order is not valid\");\n        OrderInfo memory order = orders[_orderId];\n\n        orderIds.remove(_orderId);\n        delete orders[_orderId];\n\n        uint total = order.price;\n        uint fee = total.mul(feeRate).div(1e12);\n\n        //Call for generate new seed for random\n        ISeed(seedAddress).getSeed();\n\n        // transfer fee\n        IERC20(order.token).safeTransferFrom(_msgSender(), feeTo, fee);\n\n        IERC20(order.token).safeTransferFrom(_msgSender(), order.owner, order.price.sub(fee));\n        for (uint i = 0; i < order.nftIds.length; i++) {\n            IERC721(order.nftContract).safeTransferFrom(order.owner, _msgSender(), order.nftIds[i]);\n            delete sellingNFT[order.nftIds[i]][order.nftContract];\n        }\n        \n        emit BuyOrder(_orderId, order.nftIds, _msgSender(), order.owner, order.nftContract, order.token, order.price);\n    }\n\n    function orderCount() public view returns (uint) {\n        return orderIds.length();\n    }\n\n    function getOrderId(uint index) public view returns (uint orderId, bool isValid) {\n        uint id = orderIds.at(index);\n        return (id, checkOrderValid(id));\n    }\n\n    function getOrderById(uint orderId) public view returns (address owner, uint[] memory nftIds, address token, uint price, uint expiration, uint createTime) {\n        OrderInfo storage info = orders[orderId];\n        owner = info.owner;\n        nftIds = info.nftIds;\n        token = info.token;\n        price = info.price;\n        expiration = info.expiration;\n        createTime = info.createTime;\n    }\n\n    function checkOrderValid(uint orderId) public view returns (bool) {\n        OrderInfo storage info = orders[orderId];\n        for (uint i = 0; i < info.nftIds.length; i++) {\n            if (IERC721(info.nftContract).ownerOf(info.nftIds[i]) != info.owner) {\n                return false;\n            }\n        }\n\n        if (!IERC721(info.nftContract).isApprovedForAll(info.owner, address(this))) {\n            return false;\n        }\n\n        if (info.createTime + info.expiration < block.timestamp) {\n            return false;\n        }\n\n        return true;\n    }\n\n    function isValidNFTAddress(address _nftAddress) public view returns (bool) {\n        require(_nftAddress != address(0), \"_nftContract error\");\n\n        if(nftAdds[_nftAddress]!=0){\n            return true;\n        }\n    }\n\n    function isValidTokenAddress(address _tokenAddress) public view returns (bool) {\n        require(_tokenAddress != address(0), \"_token error\");\n\n        if(tokenAdds[_tokenAddress]!=0){\n            return true;\n        }\n    }\n\n    function cleanInvalidOrders(int from, int to) public {\n        require(to >= from, \"to should >= from\");\n        for (int i=to; i>= from; i--) {\n            uint orderId = orderIds.at(uint(i));\n            if (!checkOrderValid(orderId)) {\n                OrderInfo memory info = orders[orderId];\n                orderIds.remove(orderId);\n                delete orders[orderId];\n                for (uint j = 0; j < info.nftIds.length; j++) {\n                    delete sellingNFT[info.nftIds[j]][info.nftContract];\n                }\n                emit CleanOrder(orderId, info.nftIds, info.owner, info.nftContract, info.token, info.price);\n            }\n        }\n    }\n\n    function cleanInvalidOrder(uint orderId) public {\n        if (!checkOrderValid(orderId)) {\n            OrderInfo memory info = orders[orderId];\n            orderIds.remove(orderId);\n            delete orders[orderId];\n            for (uint j = 0; j < info.nftIds.length; j++) {\n                delete sellingNFT[info.nftIds[j]][info.nftContract];\n            }\n            emit CleanOrder(orderId, info.nftIds, info.owner, info.nftContract, info.token, info.price);\n        }\n    }\n\n    function cleanInvalidOrdersAdmin(uint[] calldata _orderIds) public {\n        require(hasRole(DEFAULT_ADMIN_ROLE, _msgSender()));\n\n        for (uint i = 0; i < _orderIds.length; i++) {\n            uint orderId = _orderIds[i];\n            OrderInfo memory info = orders[orderId];\n            orderIds.remove(orderId);\n            delete orders[orderId];\n            for (uint j = 0; j < info.nftIds.length; j++) {\n                delete sellingNFT[info.nftIds[j]][info.nftContract];\n            }\n            emit CleanOrder(orderId, info.nftIds, info.owner, info.nftContract, info.token, info.price);\n        }\n    }\n}\n",
  "sourcePath": "/Users/badung1870/Working/Node/FWar-Main/SourceCode/SmartContracts/Fwar/FwarMarket/contracts/FwarMarketDelegate.sol",
  "compiler": {
    "name": "solc",
    "version": "0.6.12+commit.27d51765.Emscripten.clang"
  },
  "schemaVersion": "3.4.3",
  "updatedAt": "2021-10-26T19:38:33.962Z",
  "networkType": "ethereum",
  "devdoc": {
    "kind": "dev",
    "methods": {
      "cancelOrder(uint256,address,uint256[])": {
        "params": {
          "_nftContract": "is the NFT contract address",
          "_nftIds": "is the array of nftId"
        }
      },
      "createOrder(address,uint256[],address,uint256,uint256)": {
        "details": "createOrder is called by a seller",
        "params": {
          "_expiration": "is the expiration of order in seconds",
          "_nftContract": "is the NFT contract address",
          "_nftIds": "is the array of nftId to sell",
          "_price": "is the amount of pay token",
          "_token": "is the pay token contract address for buyer"
        }
      },
      "getRoleAdmin(bytes32)": {
        "details": "Returns the admin role that controls `role`. See {grantRole} and {revokeRole}. To change a role's admin, use {_setRoleAdmin}."
      },
      "getRoleMember(bytes32,uint256)": {
        "details": "Returns one of the accounts that have `role`. `index` must be a value between 0 and {getRoleMemberCount}, non-inclusive. Role bearers are not sorted in any particular way, and their ordering may change at any point. WARNING: When using {getRoleMember} and {getRoleMemberCount}, make sure you perform all queries on the same block. See the following https://forum.openzeppelin.com/t/iterating-over-elements-on-enumerableset-in-openzeppelin-contracts/2296[forum post] for more information."
      },
      "getRoleMemberCount(bytes32)": {
        "details": "Returns the number of accounts that have `role`. Can be used together with {getRoleMember} to enumerate all bearers of a role."
      },
      "grantRole(bytes32,address)": {
        "details": "Grants `role` to `account`. If `account` had not been already granted `role`, emits a {RoleGranted} event. Requirements: - the caller must have ``role``'s admin role."
      },
      "hasRole(bytes32,address)": {
        "details": "Returns `true` if `account` has been granted `role`."
      },
      "renounceRole(bytes32,address)": {
        "details": "Revokes `role` from the calling account. Roles are often managed via {grantRole} and {revokeRole}: this function's purpose is to provide a mechanism for accounts to lose their privileges if they are compromised (such as when a trusted device is misplaced). If the calling account had been granted `role`, emits a {RoleRevoked} event. Requirements: - the caller must be `account`."
      },
      "revokeRole(bytes32,address)": {
        "details": "Revokes `role` from `account`. If `account` had been granted `role`, emits a {RoleRevoked} event. Requirements: - the caller must have ``role``'s admin role."
      }
    },
    "version": 1
  },
  "userdoc": {
    "kind": "user",
    "methods": {},
    "version": 1
  }
}