{
  "contractName": "FWTDelegate",
  "abi": [
    {
      "inputs": [
        {
          "internalType": "address",
          "name": "_fwtAddress",
          "type": "address"
        },
        {
          "internalType": "address",
          "name": "_seedAddress",
          "type": "address"
        },
        {
          "internalType": "address",
          "name": "_blackListAddress",
          "type": "address"
        }
      ],
      "stateMutability": "nonpayable",
      "type": "constructor"
    },
    {
      "anonymous": false,
      "inputs": [
        {
          "indexed": true,
          "internalType": "address",
          "name": "_caller",
          "type": "address"
        },
        {
          "indexed": false,
          "internalType": "uint256",
          "name": "amount",
          "type": "uint256"
        }
      ],
      "name": "Claim",
      "type": "event"
    },
    {
      "anonymous": false,
      "inputs": [
        {
          "indexed": true,
          "internalType": "address",
          "name": "previousOwner",
          "type": "address"
        },
        {
          "indexed": true,
          "internalType": "address",
          "name": "newOwner",
          "type": "address"
        }
      ],
      "name": "OwnershipTransferred",
      "type": "event"
    },
    {
      "inputs": [],
      "name": "blackListAddress",
      "outputs": [
        {
          "internalType": "address",
          "name": "",
          "type": "address"
        }
      ],
      "stateMutability": "view",
      "type": "function",
      "constant": true
    },
    {
      "inputs": [],
      "name": "fwtAddress",
      "outputs": [
        {
          "internalType": "address",
          "name": "",
          "type": "address"
        }
      ],
      "stateMutability": "view",
      "type": "function",
      "constant": true
    },
    {
      "inputs": [],
      "name": "owner",
      "outputs": [
        {
          "internalType": "address",
          "name": "",
          "type": "address"
        }
      ],
      "stateMutability": "view",
      "type": "function",
      "constant": true
    },
    {
      "inputs": [],
      "name": "renounceOwnership",
      "outputs": [],
      "stateMutability": "nonpayable",
      "type": "function"
    },
    {
      "inputs": [],
      "name": "seedAddress",
      "outputs": [
        {
          "internalType": "address",
          "name": "",
          "type": "address"
        }
      ],
      "stateMutability": "view",
      "type": "function",
      "constant": true
    },
    {
      "inputs": [
        {
          "internalType": "address",
          "name": "newOwner",
          "type": "address"
        }
      ],
      "name": "transferOwnership",
      "outputs": [],
      "stateMutability": "nonpayable",
      "type": "function"
    },
    {
      "stateMutability": "payable",
      "type": "receive",
      "payable": true
    },
    {
      "inputs": [
        {
          "internalType": "address",
          "name": "_fwtAddress",
          "type": "address"
        }
      ],
      "name": "setFWTAddress",
      "outputs": [],
      "stateMutability": "nonpayable",
      "type": "function"
    },
    {
      "inputs": [
        {
          "internalType": "address",
          "name": "_seedAddress",
          "type": "address"
        }
      ],
      "name": "setSeedAddress",
      "outputs": [],
      "stateMutability": "nonpayable",
      "type": "function"
    },
    {
      "inputs": [
        {
          "internalType": "address",
          "name": "_blackListAddress",
          "type": "address"
        }
      ],
      "name": "setBlackListAddress",
      "outputs": [],
      "stateMutability": "nonpayable",
      "type": "function"
    },
    {
      "inputs": [
        {
          "internalType": "address",
          "name": "_userAdd",
          "type": "address"
        },
        {
          "internalType": "uint256",
          "name": "_amount",
          "type": "uint256"
        }
      ],
      "name": "addAmount",
      "outputs": [],
      "stateMutability": "nonpayable",
      "type": "function"
    },
    {
      "inputs": [
        {
          "internalType": "address[]",
          "name": "_userAdds",
          "type": "address[]"
        },
        {
          "internalType": "uint256[]",
          "name": "_amounts",
          "type": "uint256[]"
        }
      ],
      "name": "setListReward",
      "outputs": [],
      "stateMutability": "nonpayable",
      "type": "function"
    },
    {
      "inputs": [
        {
          "internalType": "address[]",
          "name": "_userAdds",
          "type": "address[]"
        },
        {
          "internalType": "uint256[]",
          "name": "_amounts",
          "type": "uint256[]"
        }
      ],
      "name": "setListRewardUncheck",
      "outputs": [],
      "stateMutability": "nonpayable",
      "type": "function"
    },
    {
      "inputs": [
        {
          "internalType": "address",
          "name": "_userAdd",
          "type": "address"
        }
      ],
      "name": "getAmount",
      "outputs": [
        {
          "internalType": "uint256",
          "name": "amount",
          "type": "uint256"
        }
      ],
      "stateMutability": "view",
      "type": "function",
      "constant": true
    },
    {
      "inputs": [],
      "name": "claim",
      "outputs": [],
      "stateMutability": "nonpayable",
      "type": "function"
    },
    {
      "inputs": [
        {
          "internalType": "address",
          "name": "_tokenAddress",
          "type": "address"
        },
        {
          "internalType": "uint256",
          "name": "_amount",
          "type": "uint256"
        }
      ],
      "name": "withdrawERC20Tokens",
      "outputs": [],
      "stateMutability": "nonpayable",
      "type": "function"
    }
  ],
  "bytecode": "0x60806040523480156200001157600080fd5b506040516200207b3803806200207b83398181016040528101906200003791906200020d565b620000576200004b6200012a60201b60201c565b6200013260201b60201c565b6001808190555082600260006101000a81548173ffffffffffffffffffffffffffffffffffffffff021916908373ffffffffffffffffffffffffffffffffffffffff16021790555081600360006101000a81548173ffffffffffffffffffffffffffffffffffffffff021916908373ffffffffffffffffffffffffffffffffffffffff16021790555080600460006101000a81548173ffffffffffffffffffffffffffffffffffffffff021916908373ffffffffffffffffffffffffffffffffffffffff160217905550505050620002b1565b600033905090565b60008060009054906101000a900473ffffffffffffffffffffffffffffffffffffffff169050816000806101000a81548173ffffffffffffffffffffffffffffffffffffffff021916908373ffffffffffffffffffffffffffffffffffffffff1602179055508173ffffffffffffffffffffffffffffffffffffffff168173ffffffffffffffffffffffffffffffffffffffff167f8be0079c531659141344cd1fd0a4f28419497f9722a3daafe3b4186f6b6457e060405160405180910390a35050565b600081519050620002078162000297565b92915050565b6000806000606084860312156200022357600080fd5b60006200023386828701620001f6565b93505060206200024686828701620001f6565b92505060406200025986828701620001f6565b9150509250925092565b6000620002708262000277565b9050919050565b600073ffffffffffffffffffffffffffffffffffffffff82169050919050565b620002a28162000263565b8114620002ae57600080fd5b50565b611dba80620002c16000396000f3fe6080604052600436106100ec5760003560e01c8063987092f21161008a578063f1af92b611610059578063f1af92b61461029f578063f2fde38b146102c8578063f5a79767146102f1578063fc08b7011461032e576100f3565b8063987092f2146101f9578063b35ffc1214610222578063d33f79781461024b578063e49cb2fb14610276576100f3565b8063715018a6116100c6578063715018a6146101635780638a58b3141461017a5780638ae354f3146101a35780638da5cb5b146101ce576100f3565b806312645587146100f85780632d4fd0e2146101235780634e71d92d1461014c576100f3565b366100f357005b600080fd5b34801561010457600080fd5b5061010d610357565b60405161011a9190611ab9565b60405180910390f35b34801561012f57600080fd5b5061014a600480360381019061014591906116fd565b61037d565b005b34801561015857600080fd5b5061016161043d565b005b34801561016f57600080fd5b50610178610935565b005b34801561018657600080fd5b506101a1600480360381019061019c9190611762565b6109bd565b005b3480156101af57600080fd5b506101b8610d0e565b6040516101c59190611ab9565b60405180910390f35b3480156101da57600080fd5b506101e3610d34565b6040516101f09190611ab9565b60405180910390f35b34801561020557600080fd5b50610220600480360381019061021b91906116fd565b610d5d565b005b34801561022e57600080fd5b5061024960048036038101906102449190611762565b610e1d565b005b34801561025757600080fd5b5061026061102f565b60405161026d9190611ab9565b60405180910390f35b34801561028257600080fd5b5061029d60048036038101906102989190611726565b611055565b005b3480156102ab57600080fd5b506102c660048036038101906102c19190611726565b61116a565b005b3480156102d457600080fd5b506102ef60048036038101906102ea91906116fd565b611332565b005b3480156102fd57600080fd5b50610318600480360381019061031391906116fd565b61142a565b6040516103259190611bfd565b60405180910390f35b34801561033a57600080fd5b50610355600480360381019061035091906116fd565b611473565b005b600260009054906101000a900473ffffffffffffffffffffffffffffffffffffffff1681565b610385611533565b73ffffffffffffffffffffffffffffffffffffffff166103a3610d34565b73ffffffffffffffffffffffffffffffffffffffff16146103f9576040517f08c379a00000000000000000000000000000000000000000000000000000000081526004016103f090611b9d565b60405180910390fd5b80600360006101000a81548173ffffffffffffffffffffffffffffffffffffffff021916908373ffffffffffffffffffffffffffffffffffffffff16021790555050565b60026001541415610483576040517f08c379a000000000000000000000000000000000000000000000000000000000815260040161047a90611bdd565b60405180910390fd5b60026001819055503273ffffffffffffffffffffffffffffffffffffffff166104aa611533565b73ffffffffffffffffffffffffffffffffffffffff1614610500576040517f08c379a00000000000000000000000000000000000000000000000000000000081526004016104f790611b7d565b60405180910390fd5b600460009054906101000a900473ffffffffffffffffffffffffffffffffffffffff1673ffffffffffffffffffffffffffffffffffffffff1663b36d6919610546611533565b6040518263ffffffff1660e01b81526004016105629190611ab9565b60206040518083038186803b15801561057a57600080fd5b505afa15801561058e573d6000803e3d6000fd5b505050506040513d601f19601f820116820180604052508101906105b291906117d7565b156105f2576040517f08c379a00000000000000000000000000000000000000000000000000000000081526004016105e990611b5d565b60405180910390fd5b600360009054906101000a900473ffffffffffffffffffffffffffffffffffffffff1673ffffffffffffffffffffffffffffffffffffffff166339e7357c6040518163ffffffff1660e01b8152600401602060405180830381600087803b15801561065c57600080fd5b505af1158015610670573d6000803e3d6000fd5b505050506040513d601f19601f820116820180604052508101906106949190611800565b506000600560006106a3611533565b73ffffffffffffffffffffffffffffffffffffffff1673ffffffffffffffffffffffffffffffffffffffff1681526020019081526020016000205490506000600260009054906101000a900473ffffffffffffffffffffffffffffffffffffffff1673ffffffffffffffffffffffffffffffffffffffff166370a08231306040518263ffffffff1660e01b815260040161073d9190611ab9565b60206040518083038186803b15801561075557600080fd5b505afa158015610769573d6000803e3d6000fd5b505050506040513d601f19601f8201168201806040525081019061078d9190611800565b9050818110156107d2576040517f08c379a00000000000000000000000000000000000000000000000000000000081526004016107c990611b1d565b60405180910390fd5b6000600560006107e0611533565b73ffffffffffffffffffffffffffffffffffffffff1673ffffffffffffffffffffffffffffffffffffffff16815260200190815260200160002081905550600260009054906101000a900473ffffffffffffffffffffffffffffffffffffffff1673ffffffffffffffffffffffffffffffffffffffff1663a9059cbb610864611533565b846040518363ffffffff1660e01b8152600401610882929190611ad4565b602060405180830381600087803b15801561089c57600080fd5b505af11580156108b0573d6000803e3d6000fd5b505050506040513d601f19601f820116820180604052508101906108d491906117d7565b506108dd611533565b73ffffffffffffffffffffffffffffffffffffffff167f47cee97cb7acd717b3c0aa1435d004cd5b3c8c57d70dbceb4e4458bbd60e39d4836040516109229190611bfd565b60405180910390a2505060018081905550565b61093d611533565b73ffffffffffffffffffffffffffffffffffffffff1661095b610d34565b73ffffffffffffffffffffffffffffffffffffffff16146109b1576040517f08c379a00000000000000000000000000000000000000000000000000000000081526004016109a890611b9d565b60405180910390fd5b6109bb600061153b565b565b6109c5611533565b73ffffffffffffffffffffffffffffffffffffffff166109e3610d34565b73ffffffffffffffffffffffffffffffffffffffff1614610a39576040517f08c379a0000000000000000000000000000000000000000000000000000000008152600401610a3090611b9d565b60405180910390fd5b60005b84849050811015610d0757600073ffffffffffffffffffffffffffffffffffffffff16858583818110610a98577f4e487b7100000000000000000000000000000000000000000000000000000000600052603260045260246000fd5b9050602002016020810190610aad91906116fd565b73ffffffffffffffffffffffffffffffffffffffff161415610b04576040517f08c379a0000000000000000000000000000000000000000000000000000000008152600401610afb90611bbd565b60405180910390fd5b6000838383818110610b3f577f4e487b7100000000000000000000000000000000000000000000000000000000600052603260045260246000fd5b9050602002013511610b86576040517f08c379a0000000000000000000000000000000000000000000000000000000008152600401610b7d90611b3d565b60405180910390fd5b610c64838383818110610bc2577f4e487b7100000000000000000000000000000000000000000000000000000000600052603260045260246000fd5b9050602002013560056000888886818110610c06577f4e487b7100000000000000000000000000000000000000000000000000000000600052603260045260246000fd5b9050602002016020810190610c1b91906116fd565b73ffffffffffffffffffffffffffffffffffffffff1673ffffffffffffffffffffffffffffffffffffffff168152602001908152602001600020546115ff90919063ffffffff16565b60056000878785818110610ca1577f4e487b7100000000000000000000000000000000000000000000000000000000600052603260045260246000fd5b9050602002016020810190610cb691906116fd565b73ffffffffffffffffffffffffffffffffffffffff1673ffffffffffffffffffffffffffffffffffffffff168152602001908152602001600020819055508080610cff90611cc7565b915050610a3c565b5050505050565b600460009054906101000a900473ffffffffffffffffffffffffffffffffffffffff1681565b60008060009054906101000a900473ffffffffffffffffffffffffffffffffffffffff16905090565b610d65611533565b73ffffffffffffffffffffffffffffffffffffffff16610d83610d34565b73ffffffffffffffffffffffffffffffffffffffff1614610dd9576040517f08c379a0000000000000000000000000000000000000000000000000000000008152600401610dd090611b9d565b60405180910390fd5b80600460006101000a81548173ffffffffffffffffffffffffffffffffffffffff021916908373ffffffffffffffffffffffffffffffffffffffff16021790555050565b610e25611533565b73ffffffffffffffffffffffffffffffffffffffff16610e43610d34565b73ffffffffffffffffffffffffffffffffffffffff1614610e99576040517f08c379a0000000000000000000000000000000000000000000000000000000008152600401610e9090611b9d565b60405180910390fd5b60005b8484905081101561102857610f85838383818110610ee3577f4e487b7100000000000000000000000000000000000000000000000000000000600052603260045260246000fd5b9050602002013560056000888886818110610f27577f4e487b7100000000000000000000000000000000000000000000000000000000600052603260045260246000fd5b9050602002016020810190610f3c91906116fd565b73ffffffffffffffffffffffffffffffffffffffff1673ffffffffffffffffffffffffffffffffffffffff168152602001908152602001600020546115ff90919063ffffffff16565b60056000878785818110610fc2577f4e487b7100000000000000000000000000000000000000000000000000000000600052603260045260246000fd5b9050602002016020810190610fd791906116fd565b73ffffffffffffffffffffffffffffffffffffffff1673ffffffffffffffffffffffffffffffffffffffff16815260200190815260200160002081905550808061102090611cc7565b915050610e9c565b5050505050565b600360009054906101000a900473ffffffffffffffffffffffffffffffffffffffff1681565b61105d611533565b73ffffffffffffffffffffffffffffffffffffffff1661107b610d34565b73ffffffffffffffffffffffffffffffffffffffff16146110d1576040517f08c379a00000000000000000000000000000000000000000000000000000000081526004016110c890611b9d565b60405180910390fd5b8173ffffffffffffffffffffffffffffffffffffffff1663a9059cbb6110f5611533565b836040518363ffffffff1660e01b8152600401611113929190611ad4565b602060405180830381600087803b15801561112d57600080fd5b505af1158015611141573d6000803e3d6000fd5b505050506040513d601f19601f8201168201806040525081019061116591906117d7565b505050565b611172611533565b73ffffffffffffffffffffffffffffffffffffffff16611190610d34565b73ffffffffffffffffffffffffffffffffffffffff16146111e6576040517f08c379a00000000000000000000000000000000000000000000000000000000081526004016111dd90611b9d565b60405180910390fd5b600073ffffffffffffffffffffffffffffffffffffffff168273ffffffffffffffffffffffffffffffffffffffff161415611256576040517f08c379a000000000000000000000000000000000000000000000000000000000815260040161124d90611bbd565b60405180910390fd5b60008111611299576040517f08c379a000000000000000000000000000000000000000000000000000000000815260040161129090611b3d565b60405180910390fd5b6112eb81600560008573ffffffffffffffffffffffffffffffffffffffff1673ffffffffffffffffffffffffffffffffffffffff168152602001908152602001600020546115ff90919063ffffffff16565b600560008473ffffffffffffffffffffffffffffffffffffffff1673ffffffffffffffffffffffffffffffffffffffff168152602001908152602001600020819055505050565b61133a611533565b73ffffffffffffffffffffffffffffffffffffffff16611358610d34565b73ffffffffffffffffffffffffffffffffffffffff16146113ae576040517f08c379a00000000000000000000000000000000000000000000000000000000081526004016113a590611b9d565b60405180910390fd5b600073ffffffffffffffffffffffffffffffffffffffff168173ffffffffffffffffffffffffffffffffffffffff16141561141e576040517f08c379a000000000000000000000000000000000000000000000000000000000815260040161141590611afd565b60405180910390fd5b6114278161153b565b50565b6000600560008373ffffffffffffffffffffffffffffffffffffffff1673ffffffffffffffffffffffffffffffffffffffff168152602001908152602001600020549050919050565b61147b611533565b73ffffffffffffffffffffffffffffffffffffffff16611499610d34565b73ffffffffffffffffffffffffffffffffffffffff16146114ef576040517f08c379a00000000000000000000000000000000000000000000000000000000081526004016114e690611b9d565b60405180910390fd5b80600260006101000a81548173ffffffffffffffffffffffffffffffffffffffff021916908373ffffffffffffffffffffffffffffffffffffffff16021790555050565b600033905090565b60008060009054906101000a900473ffffffffffffffffffffffffffffffffffffffff169050816000806101000a81548173ffffffffffffffffffffffffffffffffffffffff021916908373ffffffffffffffffffffffffffffffffffffffff1602179055508173ffffffffffffffffffffffffffffffffffffffff168173ffffffffffffffffffffffffffffffffffffffff167f8be0079c531659141344cd1fd0a4f28419497f9722a3daafe3b4186f6b6457e060405160405180910390a35050565b6000818361160d9190611c29565b905092915050565b60008135905061162481611d3f565b92915050565b60008083601f84011261163c57600080fd5b8235905067ffffffffffffffff81111561165557600080fd5b60208301915083602082028301111561166d57600080fd5b9250929050565b60008083601f84011261168657600080fd5b8235905067ffffffffffffffff81111561169f57600080fd5b6020830191508360208202830111156116b757600080fd5b9250929050565b6000815190506116cd81611d56565b92915050565b6000813590506116e281611d6d565b92915050565b6000815190506116f781611d6d565b92915050565b60006020828403121561170f57600080fd5b600061171d84828501611615565b91505092915050565b6000806040838503121561173957600080fd5b600061174785828601611615565b9250506020611758858286016116d3565b9150509250929050565b6000806000806040858703121561177857600080fd5b600085013567ffffffffffffffff81111561179257600080fd5b61179e8782880161162a565b9450945050602085013567ffffffffffffffff8111156117bd57600080fd5b6117c987828801611674565b925092505092959194509250565b6000602082840312156117e957600080fd5b60006117f7848285016116be565b91505092915050565b60006020828403121561181257600080fd5b6000611820848285016116e8565b91505092915050565b61183281611c7f565b82525050565b6000611845602683611c18565b91507f4f776e61626c653a206e6577206f776e657220697320746865207a65726f206160008301527f64647265737300000000000000000000000000000000000000000000000000006020830152604082019050919050565b60006118ab602f83611c18565b91507f465754564c3a20626c616e6365206f6620746f6b656e206973206e6f7420656e60008301527f6f75676820666f7220636c61696d2100000000000000000000000000000000006020830152604082019050919050565b6000611911601a83611c18565b91507f416d6f756e74206d7573742067726561746572207468616e20300000000000006000830152602082019050919050565b6000611951601c83611c18565b91507f465754564c3a20796f752061726520696e20626c61636b206c697374000000006000830152602082019050919050565b6000611991602183611c18565b91507f465754564c3a2043616e206e6f742063616c6c2066726f6d20636f6e7472616360008301527f74000000000000000000000000000000000000000000000000000000000000006020830152604082019050919050565b60006119f7602083611c18565b91507f4f776e61626c653a2063616c6c6572206973206e6f7420746865206f776e65726000830152602082019050919050565b6000611a37601283611c18565b91507f557365722061646472657373206572726f7200000000000000000000000000006000830152602082019050919050565b6000611a77601f83611c18565b91507f5265656e7472616e637947756172643a207265656e7472616e742063616c6c006000830152602082019050919050565b611ab381611cbd565b82525050565b6000602082019050611ace6000830184611829565b92915050565b6000604082019050611ae96000830185611829565b611af66020830184611aaa565b9392505050565b60006020820190508181036000830152611b1681611838565b9050919050565b60006020820190508181036000830152611b368161189e565b9050919050565b60006020820190508181036000830152611b5681611904565b9050919050565b60006020820190508181036000830152611b7681611944565b9050919050565b60006020820190508181036000830152611b9681611984565b9050919050565b60006020820190508181036000830152611bb6816119ea565b9050919050565b60006020820190508181036000830152611bd681611a2a565b9050919050565b60006020820190508181036000830152611bf681611a6a565b9050919050565b6000602082019050611c126000830184611aaa565b92915050565b600082825260208201905092915050565b6000611c3482611cbd565b9150611c3f83611cbd565b9250827fffffffffffffffffffffffffffffffffffffffffffffffffffffffffffffffff03821115611c7457611c73611d10565b5b828201905092915050565b6000611c8a82611c9d565b9050919050565b60008115159050919050565b600073ffffffffffffffffffffffffffffffffffffffff82169050919050565b6000819050919050565b6000611cd282611cbd565b91507fffffffffffffffffffffffffffffffffffffffffffffffffffffffffffffffff821415611d0557611d04611d10565b5b600182019050919050565b7f4e487b7100000000000000000000000000000000000000000000000000000000600052601160045260246000fd5b611d4881611c7f565b8114611d5357600080fd5b50565b611d5f81611c91565b8114611d6a57600080fd5b50565b611d7681611cbd565b8114611d8157600080fd5b5056fea26469706673582212207eefb38fd74b06c01f03377e92557cc76ab57779e8660639f225c3906fb0c79e64736f6c63430008000033",
  "immutableReferences": {},
  "source": "//SPDX-License-Identifier: UNLICENSED\npragma solidity ^0.8.0;\nimport '@openzeppelin/contracts/token/ERC20/ERC20.sol';\nimport '@openzeppelin/contracts/token/ERC20/IERC20.sol';\nimport '@openzeppelin/contracts/security/ReentrancyGuard.sol';\nimport '@openzeppelin/contracts/utils/math/SafeMath.sol';\nimport '@openzeppelin/contracts/access/Ownable.sol';\n\ninterface ISeed {\n    function getSeed() external returns(uint256);\n}\n\ninterface IFwarBlackList {\n    function isBlackList(address _address) external view returns (bool);\n}\n\ncontract FWTDelegate is Ownable, ReentrancyGuard {\n    using SafeMath for uint;\n\n    address public fwtAddress;\n    //Seed Address\n    address public seedAddress;\n    //FwarBlackList Address\n    address public blackListAddress;\n\n    mapping(address => uint) tokenAmounts;\n\n    event Claim(address indexed _caller, uint amount);\n\n    constructor(address _fwtAddress, address _seedAddress, address _blackListAddress) {\n        fwtAddress = _fwtAddress;\n        seedAddress = _seedAddress;\n        blackListAddress = _blackListAddress;\n    }\n\n    receive() external payable{}\n\n    function setFWTAddress(address _fwtAddress) external onlyOwner {\n        fwtAddress = _fwtAddress;\n    }\n\n    function setSeedAddress(address _seedAddress) external onlyOwner{\n        seedAddress = _seedAddress;\n    }\n\n    function setBlackListAddress(address _blackListAddress) external onlyOwner{\n        blackListAddress = _blackListAddress;\n    }\n        \n    function addAmount(address _userAdd, uint _amount) external onlyOwner{\n        require(_userAdd != address(0), \"User address error\");\n        require(_amount > 0, \"Amount must greater than 0\");\n\n        tokenAmounts[_userAdd] = tokenAmounts[_userAdd].add(_amount);\n    }\n\n    function setListReward(address[] calldata _userAdds, uint[] calldata _amounts) external onlyOwner{\n        for (uint i = 0; i < _userAdds.length; i++) {\n            require(_userAdds[i] != address(0), \"User address error\");\n            require(_amounts[i] > 0, \"Amount must greater than 0\");\n\n            tokenAmounts[_userAdds[i]] = tokenAmounts[_userAdds[i]].add(_amounts[i]);\n        }\n        \n    }\n\n    function setListRewardUncheck(address[] calldata _userAdds, uint[] calldata _amounts) external onlyOwner{\n        for (uint i = 0; i < _userAdds.length; i++) {\n            tokenAmounts[_userAdds[i]] = tokenAmounts[_userAdds[i]].add(_amounts[i]);\n        }\n    }\n\n    function getAmount(address _userAdd) public view returns (uint amount){\n        amount = tokenAmounts[_userAdd];\n    }\n\n    function claim() external nonReentrant{\n        require(_msgSender() == tx.origin, \"FWTVL: Can not call from contract\");\n        require(!IFwarBlackList(blackListAddress).isBlackList(_msgSender()), \"FWTVL: you are in black list\");\n\n        //Call for generate new seed for random\n        ISeed(seedAddress).getSeed();\n\n        uint amount = tokenAmounts[_msgSender()];\n\n        uint fwtBalance = IERC20(fwtAddress).balanceOf(address(this));\n        require(fwtBalance >= amount, \"FWTVL: blance of token is not enough for claim!\");\n\n        tokenAmounts[_msgSender()] = 0;\n        ERC20(fwtAddress).transfer(_msgSender(), amount);\n\n        emit Claim(_msgSender(),amount);\n    }\n    \n    // function to allow admin to claim *other* ERC20 tokens sent to this contract (by mistake)\n    function withdrawERC20Tokens(address _tokenAddress, uint _amount) external onlyOwner {\n        ERC20(_tokenAddress).transfer(_msgSender(), _amount);\n    }\n}\n",
  "sourcePath": "/Users/badung1870/Working/Node/FWar-Main/SourceCode/SmartContracts/Fwar/FwarToken/contracts/FWTDelegate.sol",
  "compiler": {
    "name": "solc",
    "version": "0.8.0+commit.c7dfd78e.Emscripten.clang"
  },
  "schemaVersion": "3.4.3",
  "updatedAt": "2021-10-26T10:31:21.352Z",
  "networkType": "ethereum",
  "devdoc": {
    "kind": "dev",
    "methods": {
      "owner()": {
        "details": "Returns the address of the current owner."
      },
      "renounceOwnership()": {
        "details": "Leaves the contract without owner. It will not be possible to call `onlyOwner` functions anymore. Can only be called by the current owner. NOTE: Renouncing ownership will leave the contract without an owner, thereby removing any functionality that is only available to the owner."
      },
      "transferOwnership(address)": {
        "details": "Transfers ownership of the contract to a new account (`newOwner`). Can only be called by the current owner."
      }
    },
    "version": 1
  },
  "userdoc": {
    "kind": "user",
    "methods": {},
    "version": 1
  }
}