{
  "contractName": "FWTVestingLock",
  "abi": [
    {
      "inputs": [
        {
          "internalType": "address",
          "name": "_fwtAddress",
          "type": "address"
        },
        {
          "internalType": "address",
          "name": "_busdAdress",
          "type": "address"
        },
        {
          "internalType": "uint256",
          "name": "_privateSaleAmount",
          "type": "uint256"
        },
        {
          "internalType": "uint256",
          "name": "_rate",
          "type": "uint256"
        },
        {
          "internalType": "uint256",
          "name": "_duration",
          "type": "uint256"
        }
      ],
      "stateMutability": "nonpayable",
      "type": "constructor"
    },
    {
      "anonymous": false,
      "inputs": [
        {
          "indexed": true,
          "internalType": "address",
          "name": "_caller",
          "type": "address"
        },
        {
          "indexed": false,
          "internalType": "uint256",
          "name": "amount",
          "type": "uint256"
        }
      ],
      "name": "Claim",
      "type": "event"
    },
    {
      "anonymous": false,
      "inputs": [
        {
          "indexed": true,
          "internalType": "address",
          "name": "previousOwner",
          "type": "address"
        },
        {
          "indexed": true,
          "internalType": "address",
          "name": "newOwner",
          "type": "address"
        }
      ],
      "name": "OwnershipTransferred",
      "type": "event"
    },
    {
      "inputs": [],
      "name": "busdAdress",
      "outputs": [
        {
          "internalType": "address",
          "name": "",
          "type": "address"
        }
      ],
      "stateMutability": "view",
      "type": "function"
    },
    {
      "inputs": [],
      "name": "deployTime",
      "outputs": [
        {
          "internalType": "uint256",
          "name": "",
          "type": "uint256"
        }
      ],
      "stateMutability": "view",
      "type": "function"
    },
    {
      "inputs": [],
      "name": "duration",
      "outputs": [
        {
          "internalType": "uint256",
          "name": "",
          "type": "uint256"
        }
      ],
      "stateMutability": "view",
      "type": "function"
    },
    {
      "inputs": [],
      "name": "endSaleTime",
      "outputs": [
        {
          "internalType": "uint256",
          "name": "",
          "type": "uint256"
        }
      ],
      "stateMutability": "view",
      "type": "function"
    },
    {
      "inputs": [],
      "name": "fwtAddress",
      "outputs": [
        {
          "internalType": "address",
          "name": "",
          "type": "address"
        }
      ],
      "stateMutability": "view",
      "type": "function"
    },
    {
      "inputs": [],
      "name": "lockTime",
      "outputs": [
        {
          "internalType": "uint256",
          "name": "",
          "type": "uint256"
        }
      ],
      "stateMutability": "view",
      "type": "function"
    },
    {
      "inputs": [],
      "name": "owner",
      "outputs": [
        {
          "internalType": "address",
          "name": "",
          "type": "address"
        }
      ],
      "stateMutability": "view",
      "type": "function"
    },
    {
      "inputs": [],
      "name": "privateSaleAmount",
      "outputs": [
        {
          "internalType": "uint256",
          "name": "",
          "type": "uint256"
        }
      ],
      "stateMutability": "view",
      "type": "function"
    },
    {
      "inputs": [],
      "name": "rate",
      "outputs": [
        {
          "internalType": "uint256",
          "name": "",
          "type": "uint256"
        }
      ],
      "stateMutability": "view",
      "type": "function"
    },
    {
      "inputs": [],
      "name": "renounceOwnership",
      "outputs": [],
      "stateMutability": "nonpayable",
      "type": "function"
    },
    {
      "inputs": [
        {
          "internalType": "address",
          "name": "newOwner",
          "type": "address"
        }
      ],
      "name": "transferOwnership",
      "outputs": [],
      "stateMutability": "nonpayable",
      "type": "function"
    },
    {
      "stateMutability": "payable",
      "type": "receive"
    },
    {
      "inputs": [
        {
          "internalType": "uint256",
          "name": "_amount",
          "type": "uint256"
        }
      ],
      "name": "buy",
      "outputs": [],
      "stateMutability": "nonpayable",
      "type": "function"
    },
    {
      "inputs": [
        {
          "internalType": "address",
          "name": "_investorAdd",
          "type": "address"
        }
      ],
      "name": "getInvestor",
      "outputs": [
        {
          "internalType": "uint256",
          "name": "totalAmount",
          "type": "uint256"
        },
        {
          "internalType": "uint256",
          "name": "claimedAmount",
          "type": "uint256"
        },
        {
          "internalType": "uint256",
          "name": "amountOfMonth",
          "type": "uint256"
        }
      ],
      "stateMutability": "view",
      "type": "function"
    },
    {
      "inputs": [],
      "name": "claim",
      "outputs": [],
      "stateMutability": "nonpayable",
      "type": "function"
    },
    {
      "inputs": [
        {
          "internalType": "address",
          "name": "_tokenAddress",
          "type": "address"
        },
        {
          "internalType": "uint256",
          "name": "_amount",
          "type": "uint256"
        }
      ],
      "name": "withdrawERC20Tokens",
      "outputs": [],
      "stateMutability": "nonpayable",
      "type": "function"
    }
  ],
  "bytecode": "0x60806040523480156200001157600080fd5b5060405162001df438038062001df4833981810160405281019062000037919062000256565b620000576200004b6200014460201b60201c565b6200014c60201b60201c565b600180819055504260028190555062093a80600254620000789190620002d8565b60038190555084600960006101000a81548173ffffffffffffffffffffffffffffffffffffffff021916908373ffffffffffffffffffffffffffffffffffffffff16021790555083600860006101000a81548173ffffffffffffffffffffffffffffffffffffffff021916908373ffffffffffffffffffffffffffffffffffffffff160217905550826007819055508160068190555080600481905550620001336004546002546200021060201b6200102c1790919060201c565b6005819055505050505050620003d6565b600033905090565b60008060009054906101000a900473ffffffffffffffffffffffffffffffffffffffff169050816000806101000a81548173ffffffffffffffffffffffffffffffffffffffff021916908373ffffffffffffffffffffffffffffffffffffffff1602179055508173ffffffffffffffffffffffffffffffffffffffff168173ffffffffffffffffffffffffffffffffffffffff167f8be0079c531659141344cd1fd0a4f28419497f9722a3daafe3b4186f6b6457e060405160405180910390a35050565b60008183620002209190620002d8565b905092915050565b6000815190506200023981620003a2565b92915050565b6000815190506200025081620003bc565b92915050565b600080600080600060a086880312156200026f57600080fd5b60006200027f8882890162000228565b9550506020620002928882890162000228565b9450506040620002a5888289016200023f565b9350506060620002b8888289016200023f565b9250506080620002cb888289016200023f565b9150509295509295909350565b6000620002e58262000369565b9150620002f28362000369565b9250827fffffffffffffffffffffffffffffffffffffffffffffffffffffffffffffffff038211156200032a576200032962000373565b5b828201905092915050565b6000620003428262000349565b9050919050565b600073ffffffffffffffffffffffffffffffffffffffff82169050919050565b6000819050919050565b7f4e487b7100000000000000000000000000000000000000000000000000000000600052601160045260246000fd5b620003ad8162000335565b8114620003b957600080fd5b50565b620003c78162000369565b8114620003d357600080fd5b50565b611a0e80620003e66000396000f3fe6080604052600436106100ec5760003560e01c80637a40624b1161008a578063b9320d4311610059578063b9320d43146102bd578063d96a094a146102e8578063e49cb2fb14610311578063f2fde38b1461033a576100f3565b80637a40624b146101fd5780638b2b423a146102285780638da5cb5b146102535780638f35a75e1461027e576100f3565b80632c4e722e116100c65780632c4e722e146101795780634e71d92d146101a457806358371ccd146101bb578063715018a6146101e6576100f3565b80630d668087146100f85780630fb5a6b414610123578063126455871461014e576100f3565b366100f357005b600080fd5b34801561010457600080fd5b5061010d610363565b60405161011a9190611775565b60405180910390f35b34801561012f57600080fd5b50610138610369565b6040516101459190611775565b60405180910390f35b34801561015a57600080fd5b5061016361036f565b60405161017091906115ba565b60405180910390f35b34801561018557600080fd5b5061018e610395565b60405161019b9190611775565b60405180910390f35b3480156101b057600080fd5b506101b961039b565b005b3480156101c757600080fd5b506101d0610983565b6040516101dd9190611775565b60405180910390f35b3480156101f257600080fd5b506101fb610989565b005b34801561020957600080fd5b50610212610a11565b60405161021f9190611775565b60405180910390f35b34801561023457600080fd5b5061023d610a17565b60405161024a9190611775565b60405180910390f35b34801561025f57600080fd5b50610268610a1d565b60405161027591906115ba565b60405180910390f35b34801561028a57600080fd5b506102a560048036038101906102a091906111a4565b610a46565b6040516102b493929190611790565b60405180910390f35b3480156102c957600080fd5b506102d2610b21565b6040516102df91906115ba565b60405180910390f35b3480156102f457600080fd5b5061030f600480360381019061030a9190611232565b610b47565b005b34801561031d57600080fd5b50610338600480360381019061033391906111cd565b610d82565b005b34801561034657600080fd5b50610361600480360381019061035c91906111a4565b610f34565b005b60055481565b60045481565b600960009054906101000a900473ffffffffffffffffffffffffffffffffffffffff1681565b60065481565b600260015414156103e1576040517f08c379a00000000000000000000000000000000000000000000000000000000081526004016103d890611735565b60405180910390fd5b60026001819055503273ffffffffffffffffffffffffffffffffffffffff16610408611042565b73ffffffffffffffffffffffffffffffffffffffff161461045e576040517f08c379a0000000000000000000000000000000000000000000000000000000008152600401610455906116b5565b60405180910390fd5b60055442116104a2576040517f08c379a000000000000000000000000000000000000000000000000000000000815260040161049990611755565b60405180910390fd5b6000600a60006104b0611042565b73ffffffffffffffffffffffffffffffffffffffff1673ffffffffffffffffffffffffffffffffffffffff1681526020019081526020016000206000015490506000600a60006104fe611042565b73ffffffffffffffffffffffffffffffffffffffff1673ffffffffffffffffffffffffffffffffffffffff1681526020019081526020016000206001015490506000600a600061054c611042565b73ffffffffffffffffffffffffffffffffffffffff1673ffffffffffffffffffffffffffffffffffffffff168152602001908152602001600020600201549050601481106105cf576040517f08c379a00000000000000000000000000000000000000000000000000000000081526004016105c690611695565b60405180910390fd5b600061060e600161060062278d006105f26005544261104a90919063ffffffff16565b61106090919063ffffffff16565b61102c90919063ffffffff16565b9050601481111561061e57601490505b6000610633838361104a90919063ffffffff16565b9050600061067060646106626005610654868b61107690919063ffffffff16565b61107690919063ffffffff16565b61106090919063ffffffff16565b9050600081116106b5576040517f08c379a00000000000000000000000000000000000000000000000000000000081526004016106ac90611715565b60405180910390fd5b6000600960009054906101000a900473ffffffffffffffffffffffffffffffffffffffff1673ffffffffffffffffffffffffffffffffffffffff166370a08231306040518263ffffffff1660e01b815260040161071291906115ba565b60206040518083038186803b15801561072a57600080fd5b505afa15801561073e573d6000803e3d6000fd5b505050506040513d601f19601f82011682018060405250810190610762919061125b565b9050818110156107a7576040517f08c379a000000000000000000000000000000000000000000000000000000000815260040161079e90611655565b60405180910390fd5b6107ba828761102c90919063ffffffff16565b600a60006107c6611042565b73ffffffffffffffffffffffffffffffffffffffff1673ffffffffffffffffffffffffffffffffffffffff1681526020019081526020016000206001018190555061081a838661102c90919063ffffffff16565b600a6000610826611042565b73ffffffffffffffffffffffffffffffffffffffff1673ffffffffffffffffffffffffffffffffffffffff16815260200190815260200160002060020181905550600960009054906101000a900473ffffffffffffffffffffffffffffffffffffffff1673ffffffffffffffffffffffffffffffffffffffff1663a9059cbb6108ad611042565b846040518363ffffffff1660e01b81526004016108cb92919061160c565b602060405180830381600087803b1580156108e557600080fd5b505af11580156108f9573d6000803e3d6000fd5b505050506040513d601f19601f8201168201806040525081019061091d9190611209565b50610926611042565b73ffffffffffffffffffffffffffffffffffffffff167f47cee97cb7acd717b3c0aa1435d004cd5b3c8c57d70dbceb4e4458bbd60e39d48360405161096b9190611775565b60405180910390a25050505050505060018081905550565b60035481565b610991611042565b73ffffffffffffffffffffffffffffffffffffffff166109af610a1d565b73ffffffffffffffffffffffffffffffffffffffff1614610a05576040517f08c379a00000000000000000000000000000000000000000000000000000000081526004016109fc906116d5565b60405180910390fd5b610a0f600061108c565b565b60025481565b60075481565b60008060009054906101000a900473ffffffffffffffffffffffffffffffffffffffff16905090565b6000806000600a60008573ffffffffffffffffffffffffffffffffffffffff1673ffffffffffffffffffffffffffffffffffffffff168152602001908152602001600020600001549250600a60008573ffffffffffffffffffffffffffffffffffffffff1673ffffffffffffffffffffffffffffffffffffffff168152602001908152602001600020600101549150600a60008573ffffffffffffffffffffffffffffffffffffffff1673ffffffffffffffffffffffffffffffffffffffff1681526020019081526020016000206002015490509193909250565b600860009054906101000a900473ffffffffffffffffffffffffffffffffffffffff1681565b600354421115610b8c576040517f08c379a0000000000000000000000000000000000000000000000000000000008152600401610b83906116f5565b60405180910390fd5b806007541015610bd1576040517f08c379a0000000000000000000000000000000000000000000000000000000008152600401610bc890611675565b60405180910390fd5b610be68160075461104a90919063ffffffff16565b6007819055506000610c1a64e8d4a51000610c0c6006548561107690919063ffffffff16565b61106090919063ffffffff16565b9050600860009054906101000a900473ffffffffffffffffffffffffffffffffffffffff1673ffffffffffffffffffffffffffffffffffffffff166323b872dd610c62611042565b30846040518463ffffffff1660e01b8152600401610c82939291906115d5565b602060405180830381600087803b158015610c9c57600080fd5b505af1158015610cb0573d6000803e3d6000fd5b505050506040513d601f19601f82011682018060405250810190610cd49190611209565b50610d3182600a6000610ce5611042565b73ffffffffffffffffffffffffffffffffffffffff1673ffffffffffffffffffffffffffffffffffffffff1681526020019081526020016000206000015461102c90919063ffffffff16565b600a6000610d3d611042565b73ffffffffffffffffffffffffffffffffffffffff1673ffffffffffffffffffffffffffffffffffffffff168152602001908152602001600020600001819055505050565b610d8a611042565b73ffffffffffffffffffffffffffffffffffffffff16610da8610a1d565b73ffffffffffffffffffffffffffffffffffffffff1614610dfe576040517f08c379a0000000000000000000000000000000000000000000000000000000008152600401610df5906116d5565b60405180910390fd5b600960009054906101000a900473ffffffffffffffffffffffffffffffffffffffff1673ffffffffffffffffffffffffffffffffffffffff168273ffffffffffffffffffffffffffffffffffffffff16141580610e5c575060055442115b610e9b576040517f08c379a0000000000000000000000000000000000000000000000000000000008152600401610e9290611755565b60405180910390fd5b8173ffffffffffffffffffffffffffffffffffffffff1663a9059cbb610ebf611042565b836040518363ffffffff1660e01b8152600401610edd92919061160c565b602060405180830381600087803b158015610ef757600080fd5b505af1158015610f0b573d6000803e3d6000fd5b505050506040513d601f19601f82011682018060405250810190610f2f9190611209565b505050565b610f3c611042565b73ffffffffffffffffffffffffffffffffffffffff16610f5a610a1d565b73ffffffffffffffffffffffffffffffffffffffff1614610fb0576040517f08c379a0000000000000000000000000000000000000000000000000000000008152600401610fa7906116d5565b60405180910390fd5b600073ffffffffffffffffffffffffffffffffffffffff168173ffffffffffffffffffffffffffffffffffffffff161415611020576040517f08c379a000000000000000000000000000000000000000000000000000000000815260040161101790611635565b60405180910390fd5b6110298161108c565b50565b6000818361103a91906117d8565b905092915050565b600033905090565b6000818361105891906118b9565b905092915050565b6000818361106e919061182e565b905092915050565b60008183611084919061185f565b905092915050565b60008060009054906101000a900473ffffffffffffffffffffffffffffffffffffffff169050816000806101000a81548173ffffffffffffffffffffffffffffffffffffffff021916908373ffffffffffffffffffffffffffffffffffffffff1602179055508173ffffffffffffffffffffffffffffffffffffffff168173ffffffffffffffffffffffffffffffffffffffff167f8be0079c531659141344cd1fd0a4f28419497f9722a3daafe3b4186f6b6457e060405160405180910390a35050565b60008135905061115f81611993565b92915050565b600081519050611174816119aa565b92915050565b600081359050611189816119c1565b92915050565b60008151905061119e816119c1565b92915050565b6000602082840312156111b657600080fd5b60006111c484828501611150565b91505092915050565b600080604083850312156111e057600080fd5b60006111ee85828601611150565b92505060206111ff8582860161117a565b9150509250929050565b60006020828403121561121b57600080fd5b600061122984828501611165565b91505092915050565b60006020828403121561124457600080fd5b60006112528482850161117a565b91505092915050565b60006020828403121561126d57600080fd5b600061127b8482850161118f565b91505092915050565b61128d816118ed565b82525050565b60006112a06026836117c7565b91507f4f776e61626c653a206e6577206f776e657220697320746865207a65726f206160008301527f64647265737300000000000000000000000000000000000000000000000000006020830152604082019050919050565b6000611306602f836117c7565b91507f465754564c3a20626c616e6365206f6620746f6b656e206973206e6f7420656e60008301527f6f75676820666f7220636c61696d2100000000000000000000000000000000006020830152604082019050919050565b600061136c6018836117c7565b91507f465754564c3a20616d6f756e74206973206578636565642100000000000000006000830152602082019050919050565b60006113ac601f836117c7565b91507f465754564c3a20596f7520686176652066756c6c7920636c61696d65642121006000830152602082019050919050565b60006113ec6021836117c7565b91507f465754564c3a2043616e206e6f742063616c6c2066726f6d20636f6e7472616360008301527f74000000000000000000000000000000000000000000000000000000000000006020830152604082019050919050565b60006114526020836117c7565b91507f4f776e61626c653a2063616c6c6572206973206e6f7420746865206f776e65726000830152602082019050919050565b6000611492601b836117c7565b91507f465754564c3a20707269766174652073616c65206578706972656400000000006000830152602082019050919050565b60006114d2601e836117c7565b91507f465754564c3a2070656e64696e6720616d6f756e74206973207a65726f2100006000830152602082019050919050565b6000611512601f836117c7565b91507f5265656e7472616e637947756172643a207265656e7472616e742063616c6c006000830152602082019050919050565b6000611552602d836117c7565b91507f465754564c3a2043616e6e6f74207472616e73666572206f7574206c6f636b6560008301527f6420746f6b656e732079657421000000000000000000000000000000000000006020830152604082019050919050565b6115b48161192b565b82525050565b60006020820190506115cf6000830184611284565b92915050565b60006060820190506115ea6000830186611284565b6115f76020830185611284565b61160460408301846115ab565b949350505050565b60006040820190506116216000830185611284565b61162e60208301846115ab565b9392505050565b6000602082019050818103600083015261164e81611293565b9050919050565b6000602082019050818103600083015261166e816112f9565b9050919050565b6000602082019050818103600083015261168e8161135f565b9050919050565b600060208201905081810360008301526116ae8161139f565b9050919050565b600060208201905081810360008301526116ce816113df565b9050919050565b600060208201905081810360008301526116ee81611445565b9050919050565b6000602082019050818103600083015261170e81611485565b9050919050565b6000602082019050818103600083015261172e816114c5565b9050919050565b6000602082019050818103600083015261174e81611505565b9050919050565b6000602082019050818103600083015261176e81611545565b9050919050565b600060208201905061178a60008301846115ab565b92915050565b60006060820190506117a560008301866115ab565b6117b260208301856115ab565b6117bf60408301846115ab565b949350505050565b600082825260208201905092915050565b60006117e38261192b565b91506117ee8361192b565b9250827fffffffffffffffffffffffffffffffffffffffffffffffffffffffffffffffff0382111561182357611822611935565b5b828201905092915050565b60006118398261192b565b91506118448361192b565b92508261185457611853611964565b5b828204905092915050565b600061186a8261192b565b91506118758361192b565b9250817fffffffffffffffffffffffffffffffffffffffffffffffffffffffffffffffff04831182151516156118ae576118ad611935565b5b828202905092915050565b60006118c48261192b565b91506118cf8361192b565b9250828210156118e2576118e1611935565b5b828203905092915050565b60006118f88261190b565b9050919050565b60008115159050919050565b600073ffffffffffffffffffffffffffffffffffffffff82169050919050565b6000819050919050565b7f4e487b7100000000000000000000000000000000000000000000000000000000600052601160045260246000fd5b7f4e487b7100000000000000000000000000000000000000000000000000000000600052601260045260246000fd5b61199c816118ed565b81146119a757600080fd5b50565b6119b3816118ff565b81146119be57600080fd5b50565b6119ca8161192b565b81146119d557600080fd5b5056fea2646970667358221220da01c36b15220077941b221843a122028ff1f5a3b88ce172f90e822707bee50864736f6c63430008000033",
  "immutableReferences": {},
  "source": "//SPDX-License-Identifier: UNLICENSED\npragma solidity ^0.8.0;\nimport '@openzeppelin/contracts/token/ERC20/ERC20.sol';\nimport '@openzeppelin/contracts/token/ERC20/IERC20.sol';\nimport '@openzeppelin/contracts/security/ReentrancyGuard.sol';\nimport '@openzeppelin/contracts/utils/math/SafeMath.sol';\nimport '@openzeppelin/contracts/access/Ownable.sol';\n\ncontract FWTVestingLock is Ownable, ReentrancyGuard {\n    using SafeMath for uint;\n    \n    uint public deployTime;\n    uint public endSaleTime;\n    uint public duration;\n    uint public lockTime;\n    uint public rate;\n    uint public privateSaleAmount;\n    address public busdAdress;\n    address public fwtAddress;\n\n\n    // withdraw period\n    uint256 internal constant period = 30 days;\n\n    struct Investor{\n        uint totalAmount;\n        uint claimedAmount;\n        uint amountOfMonth;\n    }\n\n    mapping(address => Investor) investors;\n\n    event Claim(address indexed _caller, uint amount);\n\n    constructor(address _fwtAddress, address _busdAdress, uint _privateSaleAmount, uint _rate, uint _duration) {\n        deployTime = block.timestamp;\n        endSaleTime = deployTime + 7 days;\n        fwtAddress = _fwtAddress;\n        busdAdress = _busdAdress;\n        privateSaleAmount = _privateSaleAmount;\n        rate = _rate;\n        duration = _duration;\n        lockTime = deployTime.add(duration);\n    }\n\n    receive() external payable{}\n        \n    function buy(uint _amount) external{\n        require(block.timestamp <= endSaleTime, 'FWTVL: private sale expired');\n        require(privateSaleAmount >= _amount, 'FWTVL: amount is exceed!');\n\n        privateSaleAmount = privateSaleAmount.sub(_amount);\n        uint totalUsd = _amount.mul(rate).div(1e12);\n        IERC20(busdAdress).transferFrom(_msgSender(), address(this), totalUsd);\n\n        investors[_msgSender()].totalAmount = investors[_msgSender()].totalAmount.add(_amount);\n    }\n\n    function getInvestor(address _investorAdd) public view returns (uint totalAmount, uint claimedAmount, uint amountOfMonth){\n        totalAmount  = investors[_investorAdd].totalAmount;\n        claimedAmount = investors[_investorAdd].claimedAmount;\n        amountOfMonth = investors[_investorAdd].amountOfMonth;\n    }\n\n    function claim() external nonReentrant{\n        require(_msgSender() == tx.origin, \"FWTVL: Can not call from contract\");\n\n        require(block.timestamp > lockTime, \"FWTVL: Cannot transfer out locked tokens yet!\");\n\n        uint totalAmount = investors[_msgSender()].totalAmount;\n        uint claimedAmount = investors[_msgSender()].claimedAmount;\n        uint amountOfMonth = investors[_msgSender()].amountOfMonth;\n\n        require(amountOfMonth < 20, \"FWTVL: You have fully claimed!!\");\n        \n        uint periodAmount = (block.timestamp.sub(lockTime)).div(period).add(1);\n        if(periodAmount > 20){\n            periodAmount = 20;\n        }\n\n        uint pendingPeriodAmount = periodAmount.sub(amountOfMonth);\n\n        uint amount = totalAmount.mul(pendingPeriodAmount).mul(5).div(100); //5% for each months\n\n        require(amount > 0, \"FWTVL: pending amount is zero!\");\n\n        uint fwtBalance = IERC20(fwtAddress).balanceOf(address(this));\n        require(fwtBalance >= amount, \"FWTVL: blance of token is not enough for claim!\");\n        investors[_msgSender()].claimedAmount = claimedAmount.add(amount);\n        investors[_msgSender()].amountOfMonth = amountOfMonth.add(pendingPeriodAmount);\n        ERC20(fwtAddress).transfer(_msgSender(), amount);\n\n        emit Claim(_msgSender(),amount);\n    }\n    \n    // function to allow admin to claim *other* ERC20 tokens sent to this contract (by mistake)\n    function withdrawERC20Tokens(address _tokenAddress, uint _amount) external onlyOwner {\n        require(_tokenAddress != fwtAddress || block.timestamp > lockTime, \"FWTVL: Cannot transfer out locked tokens yet!\");\n\n        ERC20(_tokenAddress).transfer(_msgSender(), _amount);\n    }\n}\n",
  "sourcePath": "/Users/badung1870/Working/Node/FWar-Main/SourceCode/SmartContracts/Fwar/FwarToken/contracts/FWTVestingLock.sol",
  "compiler": {
    "name": "solc",
    "version": "0.8.0+commit.c7dfd78e.Emscripten.clang"
  },
  "schemaVersion": "3.4.3",
  "updatedAt": "2021-10-26T10:31:20.562Z",
  "networkType": "ethereum",
  "devdoc": {
    "kind": "dev",
    "methods": {
      "owner()": {
        "details": "Returns the address of the current owner."
      },
      "renounceOwnership()": {
        "details": "Leaves the contract without owner. It will not be possible to call `onlyOwner` functions anymore. Can only be called by the current owner. NOTE: Renouncing ownership will leave the contract without an owner, thereby removing any functionality that is only available to the owner."
      },
      "transferOwnership(address)": {
        "details": "Transfers ownership of the contract to a new account (`newOwner`). Can only be called by the current owner."
      }
    },
    "version": 1
  },
  "userdoc": {
    "kind": "user",
    "methods": {},
    "version": 1
  }
}