{
  "contractName": "FWarChar",
  "abi": [
    {
      "anonymous": false,
      "inputs": [
        {
          "indexed": true,
          "internalType": "address",
          "name": "owner",
          "type": "address"
        },
        {
          "indexed": true,
          "internalType": "address",
          "name": "approved",
          "type": "address"
        },
        {
          "indexed": true,
          "internalType": "uint256",
          "name": "tokenId",
          "type": "uint256"
        }
      ],
      "name": "Approval",
      "type": "event"
    },
    {
      "anonymous": false,
      "inputs": [
        {
          "indexed": true,
          "internalType": "address",
          "name": "owner",
          "type": "address"
        },
        {
          "indexed": true,
          "internalType": "address",
          "name": "operator",
          "type": "address"
        },
        {
          "indexed": false,
          "internalType": "bool",
          "name": "approved",
          "type": "bool"
        }
      ],
      "name": "ApprovalForAll",
      "type": "event"
    },
    {
      "anonymous": false,
      "inputs": [
        {
          "indexed": false,
          "internalType": "address",
          "name": "receiver",
          "type": "address"
        },
        {
          "indexed": true,
          "internalType": "uint32",
          "name": "tokenId",
          "type": "uint32"
        },
        {
          "indexed": false,
          "internalType": "uint8",
          "name": "level",
          "type": "uint8"
        },
        {
          "indexed": true,
          "internalType": "uint8",
          "name": "rarity",
          "type": "uint8"
        },
        {
          "indexed": true,
          "internalType": "uint8",
          "name": "elementType",
          "type": "uint8"
        },
        {
          "indexed": false,
          "internalType": "uint32",
          "name": "teamId",
          "type": "uint32"
        },
        {
          "indexed": false,
          "internalType": "uint32",
          "name": "attack",
          "type": "uint32"
        },
        {
          "indexed": false,
          "internalType": "uint32",
          "name": "defense",
          "type": "uint32"
        },
        {
          "indexed": false,
          "internalType": "uint32",
          "name": "health",
          "type": "uint32"
        }
      ],
      "name": "MintNFT",
      "type": "event"
    },
    {
      "anonymous": false,
      "inputs": [
        {
          "indexed": true,
          "internalType": "bytes32",
          "name": "role",
          "type": "bytes32"
        },
        {
          "indexed": true,
          "internalType": "bytes32",
          "name": "previousAdminRole",
          "type": "bytes32"
        },
        {
          "indexed": true,
          "internalType": "bytes32",
          "name": "newAdminRole",
          "type": "bytes32"
        }
      ],
      "name": "RoleAdminChanged",
      "type": "event"
    },
    {
      "anonymous": false,
      "inputs": [
        {
          "indexed": true,
          "internalType": "bytes32",
          "name": "role",
          "type": "bytes32"
        },
        {
          "indexed": true,
          "internalType": "address",
          "name": "account",
          "type": "address"
        },
        {
          "indexed": true,
          "internalType": "address",
          "name": "sender",
          "type": "address"
        }
      ],
      "name": "RoleGranted",
      "type": "event"
    },
    {
      "anonymous": false,
      "inputs": [
        {
          "indexed": true,
          "internalType": "bytes32",
          "name": "role",
          "type": "bytes32"
        },
        {
          "indexed": true,
          "internalType": "address",
          "name": "account",
          "type": "address"
        },
        {
          "indexed": true,
          "internalType": "address",
          "name": "sender",
          "type": "address"
        }
      ],
      "name": "RoleRevoked",
      "type": "event"
    },
    {
      "anonymous": false,
      "inputs": [
        {
          "indexed": true,
          "internalType": "address",
          "name": "from",
          "type": "address"
        },
        {
          "indexed": true,
          "internalType": "address",
          "name": "to",
          "type": "address"
        },
        {
          "indexed": true,
          "internalType": "uint256",
          "name": "tokenId",
          "type": "uint256"
        }
      ],
      "name": "Transfer",
      "type": "event"
    },
    {
      "anonymous": false,
      "inputs": [
        {
          "indexed": true,
          "internalType": "uint32",
          "name": "tokenId",
          "type": "uint32"
        },
        {
          "indexed": false,
          "internalType": "uint8",
          "name": "level",
          "type": "uint8"
        },
        {
          "indexed": false,
          "internalType": "uint32",
          "name": "attack",
          "type": "uint32"
        },
        {
          "indexed": false,
          "internalType": "uint32",
          "name": "defense",
          "type": "uint32"
        },
        {
          "indexed": false,
          "internalType": "uint32",
          "name": "health",
          "type": "uint32"
        }
      ],
      "name": "UpgradeNFT",
      "type": "event"
    },
    {
      "inputs": [],
      "name": "DEFAULT_ADMIN_ROLE",
      "outputs": [
        {
          "internalType": "bytes32",
          "name": "",
          "type": "bytes32"
        }
      ],
      "stateMutability": "view",
      "type": "function",
      "constant": true
    },
    {
      "inputs": [],
      "name": "MINTER_ROLE",
      "outputs": [
        {
          "internalType": "bytes32",
          "name": "",
          "type": "bytes32"
        }
      ],
      "stateMutability": "view",
      "type": "function",
      "constant": true
    },
    {
      "inputs": [],
      "name": "TRANSFER_ROLE",
      "outputs": [
        {
          "internalType": "bytes32",
          "name": "",
          "type": "bytes32"
        }
      ],
      "stateMutability": "view",
      "type": "function",
      "constant": true
    },
    {
      "inputs": [],
      "name": "UPGRADATOR_ROLE",
      "outputs": [
        {
          "internalType": "bytes32",
          "name": "",
          "type": "bytes32"
        }
      ],
      "stateMutability": "view",
      "type": "function",
      "constant": true
    },
    {
      "inputs": [
        {
          "internalType": "address",
          "name": "to",
          "type": "address"
        },
        {
          "internalType": "uint256",
          "name": "tokenId",
          "type": "uint256"
        }
      ],
      "name": "approve",
      "outputs": [],
      "stateMutability": "nonpayable",
      "type": "function"
    },
    {
      "inputs": [
        {
          "internalType": "address",
          "name": "owner",
          "type": "address"
        }
      ],
      "name": "balanceOf",
      "outputs": [
        {
          "internalType": "uint256",
          "name": "",
          "type": "uint256"
        }
      ],
      "stateMutability": "view",
      "type": "function",
      "constant": true
    },
    {
      "inputs": [],
      "name": "baseURI",
      "outputs": [
        {
          "internalType": "string",
          "name": "",
          "type": "string"
        }
      ],
      "stateMutability": "view",
      "type": "function",
      "constant": true
    },
    {
      "inputs": [
        {
          "internalType": "uint256",
          "name": "",
          "type": "uint256"
        }
      ],
      "name": "charInfos",
      "outputs": [
        {
          "internalType": "uint8",
          "name": "level",
          "type": "uint8"
        },
        {
          "internalType": "uint8",
          "name": "rarity",
          "type": "uint8"
        },
        {
          "internalType": "uint8",
          "name": "elementType",
          "type": "uint8"
        },
        {
          "internalType": "uint32",
          "name": "teamId",
          "type": "uint32"
        },
        {
          "internalType": "uint32",
          "name": "baseAttack",
          "type": "uint32"
        },
        {
          "internalType": "uint32",
          "name": "baseDefense",
          "type": "uint32"
        },
        {
          "internalType": "uint32",
          "name": "baseHealth",
          "type": "uint32"
        },
        {
          "internalType": "uint32",
          "name": "attack",
          "type": "uint32"
        },
        {
          "internalType": "uint32",
          "name": "defense",
          "type": "uint32"
        },
        {
          "internalType": "uint32",
          "name": "health",
          "type": "uint32"
        }
      ],
      "stateMutability": "view",
      "type": "function",
      "constant": true
    },
    {
      "inputs": [
        {
          "internalType": "uint256",
          "name": "tokenId",
          "type": "uint256"
        }
      ],
      "name": "getApproved",
      "outputs": [
        {
          "internalType": "address",
          "name": "",
          "type": "address"
        }
      ],
      "stateMutability": "view",
      "type": "function",
      "constant": true
    },
    {
      "inputs": [
        {
          "internalType": "bytes32",
          "name": "role",
          "type": "bytes32"
        }
      ],
      "name": "getRoleAdmin",
      "outputs": [
        {
          "internalType": "bytes32",
          "name": "",
          "type": "bytes32"
        }
      ],
      "stateMutability": "view",
      "type": "function",
      "constant": true
    },
    {
      "inputs": [
        {
          "internalType": "bytes32",
          "name": "role",
          "type": "bytes32"
        },
        {
          "internalType": "uint256",
          "name": "index",
          "type": "uint256"
        }
      ],
      "name": "getRoleMember",
      "outputs": [
        {
          "internalType": "address",
          "name": "",
          "type": "address"
        }
      ],
      "stateMutability": "view",
      "type": "function",
      "constant": true
    },
    {
      "inputs": [
        {
          "internalType": "bytes32",
          "name": "role",
          "type": "bytes32"
        }
      ],
      "name": "getRoleMemberCount",
      "outputs": [
        {
          "internalType": "uint256",
          "name": "",
          "type": "uint256"
        }
      ],
      "stateMutability": "view",
      "type": "function",
      "constant": true
    },
    {
      "inputs": [
        {
          "internalType": "bytes32",
          "name": "role",
          "type": "bytes32"
        },
        {
          "internalType": "address",
          "name": "account",
          "type": "address"
        }
      ],
      "name": "grantRole",
      "outputs": [],
      "stateMutability": "nonpayable",
      "type": "function"
    },
    {
      "inputs": [
        {
          "internalType": "bytes32",
          "name": "role",
          "type": "bytes32"
        },
        {
          "internalType": "address",
          "name": "account",
          "type": "address"
        }
      ],
      "name": "hasRole",
      "outputs": [
        {
          "internalType": "bool",
          "name": "",
          "type": "bool"
        }
      ],
      "stateMutability": "view",
      "type": "function",
      "constant": true
    },
    {
      "inputs": [
        {
          "internalType": "address",
          "name": "owner",
          "type": "address"
        },
        {
          "internalType": "address",
          "name": "operator",
          "type": "address"
        }
      ],
      "name": "isApprovedForAll",
      "outputs": [
        {
          "internalType": "bool",
          "name": "",
          "type": "bool"
        }
      ],
      "stateMutability": "view",
      "type": "function",
      "constant": true
    },
    {
      "inputs": [],
      "name": "name",
      "outputs": [
        {
          "internalType": "string",
          "name": "",
          "type": "string"
        }
      ],
      "stateMutability": "view",
      "type": "function",
      "constant": true
    },
    {
      "inputs": [
        {
          "internalType": "uint256",
          "name": "",
          "type": "uint256"
        },
        {
          "internalType": "uint256",
          "name": "",
          "type": "uint256"
        },
        {
          "internalType": "uint256",
          "name": "",
          "type": "uint256"
        }
      ],
      "name": "nftURI",
      "outputs": [
        {
          "internalType": "string",
          "name": "",
          "type": "string"
        }
      ],
      "stateMutability": "view",
      "type": "function",
      "constant": true
    },
    {
      "inputs": [
        {
          "internalType": "uint256",
          "name": "tokenId",
          "type": "uint256"
        }
      ],
      "name": "ownerOf",
      "outputs": [
        {
          "internalType": "address",
          "name": "",
          "type": "address"
        }
      ],
      "stateMutability": "view",
      "type": "function",
      "constant": true
    },
    {
      "inputs": [
        {
          "internalType": "bytes32",
          "name": "role",
          "type": "bytes32"
        },
        {
          "internalType": "address",
          "name": "account",
          "type": "address"
        }
      ],
      "name": "renounceRole",
      "outputs": [],
      "stateMutability": "nonpayable",
      "type": "function"
    },
    {
      "inputs": [
        {
          "internalType": "bytes32",
          "name": "role",
          "type": "bytes32"
        },
        {
          "internalType": "address",
          "name": "account",
          "type": "address"
        }
      ],
      "name": "revokeRole",
      "outputs": [],
      "stateMutability": "nonpayable",
      "type": "function"
    },
    {
      "inputs": [
        {
          "internalType": "address",
          "name": "from",
          "type": "address"
        },
        {
          "internalType": "address",
          "name": "to",
          "type": "address"
        },
        {
          "internalType": "uint256",
          "name": "tokenId",
          "type": "uint256"
        }
      ],
      "name": "safeTransferFrom",
      "outputs": [],
      "stateMutability": "nonpayable",
      "type": "function"
    },
    {
      "inputs": [
        {
          "internalType": "address",
          "name": "from",
          "type": "address"
        },
        {
          "internalType": "address",
          "name": "to",
          "type": "address"
        },
        {
          "internalType": "uint256",
          "name": "tokenId",
          "type": "uint256"
        },
        {
          "internalType": "bytes",
          "name": "_data",
          "type": "bytes"
        }
      ],
      "name": "safeTransferFrom",
      "outputs": [],
      "stateMutability": "nonpayable",
      "type": "function"
    },
    {
      "inputs": [
        {
          "internalType": "address",
          "name": "operator",
          "type": "address"
        },
        {
          "internalType": "bool",
          "name": "approved",
          "type": "bool"
        }
      ],
      "name": "setApprovalForAll",
      "outputs": [],
      "stateMutability": "nonpayable",
      "type": "function"
    },
    {
      "inputs": [
        {
          "internalType": "bytes4",
          "name": "interfaceId",
          "type": "bytes4"
        }
      ],
      "name": "supportsInterface",
      "outputs": [
        {
          "internalType": "bool",
          "name": "",
          "type": "bool"
        }
      ],
      "stateMutability": "view",
      "type": "function",
      "constant": true
    },
    {
      "inputs": [],
      "name": "symbol",
      "outputs": [
        {
          "internalType": "string",
          "name": "",
          "type": "string"
        }
      ],
      "stateMutability": "view",
      "type": "function",
      "constant": true
    },
    {
      "inputs": [
        {
          "internalType": "uint256",
          "name": "index",
          "type": "uint256"
        }
      ],
      "name": "tokenByIndex",
      "outputs": [
        {
          "internalType": "uint256",
          "name": "",
          "type": "uint256"
        }
      ],
      "stateMutability": "view",
      "type": "function",
      "constant": true
    },
    {
      "inputs": [
        {
          "internalType": "address",
          "name": "owner",
          "type": "address"
        },
        {
          "internalType": "uint256",
          "name": "index",
          "type": "uint256"
        }
      ],
      "name": "tokenOfOwnerByIndex",
      "outputs": [
        {
          "internalType": "uint256",
          "name": "",
          "type": "uint256"
        }
      ],
      "stateMutability": "view",
      "type": "function",
      "constant": true
    },
    {
      "inputs": [
        {
          "internalType": "uint256",
          "name": "tokenId",
          "type": "uint256"
        }
      ],
      "name": "tokenURI",
      "outputs": [
        {
          "internalType": "string",
          "name": "",
          "type": "string"
        }
      ],
      "stateMutability": "view",
      "type": "function",
      "constant": true
    },
    {
      "inputs": [],
      "name": "totalSupply",
      "outputs": [
        {
          "internalType": "uint256",
          "name": "",
          "type": "uint256"
        }
      ],
      "stateMutability": "view",
      "type": "function",
      "constant": true
    },
    {
      "inputs": [
        {
          "internalType": "address",
          "name": "from",
          "type": "address"
        },
        {
          "internalType": "address",
          "name": "to",
          "type": "address"
        },
        {
          "internalType": "uint256",
          "name": "tokenId",
          "type": "uint256"
        }
      ],
      "name": "transferFrom",
      "outputs": [],
      "stateMutability": "nonpayable",
      "type": "function"
    },
    {
      "inputs": [
        {
          "internalType": "address",
          "name": "admin",
          "type": "address"
        }
      ],
      "name": "initialize",
      "outputs": [],
      "stateMutability": "payable",
      "type": "function",
      "payable": true
    },
    {
      "inputs": [
        {
          "internalType": "uint32",
          "name": "_id",
          "type": "uint32"
        }
      ],
      "name": "getCharInfo",
      "outputs": [
        {
          "internalType": "uint8",
          "name": "level",
          "type": "uint8"
        },
        {
          "internalType": "uint8",
          "name": "rarity",
          "type": "uint8"
        },
        {
          "internalType": "uint8",
          "name": "elementType",
          "type": "uint8"
        },
        {
          "internalType": "uint32",
          "name": "teamId",
          "type": "uint32"
        },
        {
          "internalType": "uint32",
          "name": "attack",
          "type": "uint32"
        },
        {
          "internalType": "uint32",
          "name": "defense",
          "type": "uint32"
        },
        {
          "internalType": "uint32",
          "name": "health",
          "type": "uint32"
        }
      ],
      "stateMutability": "view",
      "type": "function",
      "constant": true
    },
    {
      "inputs": [
        {
          "internalType": "uint256",
          "name": "_id",
          "type": "uint256"
        }
      ],
      "name": "getCharFullInfo",
      "outputs": [
        {
          "internalType": "uint8",
          "name": "level",
          "type": "uint8"
        },
        {
          "internalType": "uint8",
          "name": "rarity",
          "type": "uint8"
        },
        {
          "internalType": "uint8",
          "name": "elementType",
          "type": "uint8"
        },
        {
          "internalType": "uint32",
          "name": "teamId",
          "type": "uint32"
        },
        {
          "internalType": "uint32",
          "name": "baseAttack",
          "type": "uint32"
        },
        {
          "internalType": "uint32",
          "name": "baseDefense",
          "type": "uint32"
        },
        {
          "internalType": "uint32",
          "name": "baseHealth",
          "type": "uint32"
        },
        {
          "internalType": "uint32",
          "name": "attack",
          "type": "uint32"
        },
        {
          "internalType": "uint32",
          "name": "defense",
          "type": "uint32"
        },
        {
          "internalType": "uint32",
          "name": "health",
          "type": "uint32"
        }
      ],
      "stateMutability": "view",
      "type": "function",
      "constant": true
    },
    {
      "inputs": [
        {
          "internalType": "uint32",
          "name": "_id",
          "type": "uint32"
        }
      ],
      "name": "getCharBaseInfo",
      "outputs": [
        {
          "internalType": "uint32",
          "name": "baseAttack",
          "type": "uint32"
        },
        {
          "internalType": "uint32",
          "name": "baseDefense",
          "type": "uint32"
        },
        {
          "internalType": "uint32",
          "name": "baseHealth",
          "type": "uint32"
        }
      ],
      "stateMutability": "view",
      "type": "function",
      "constant": true
    },
    {
      "inputs": [
        {
          "internalType": "address",
          "name": "_receiver",
          "type": "address"
        },
        {
          "internalType": "uint32",
          "name": "_id",
          "type": "uint32"
        },
        {
          "internalType": "uint8",
          "name": "_level",
          "type": "uint8"
        },
        {
          "internalType": "uint8",
          "name": "_rarity",
          "type": "uint8"
        },
        {
          "internalType": "uint8",
          "name": "_elementType",
          "type": "uint8"
        },
        {
          "internalType": "uint32",
          "name": "_teamId",
          "type": "uint32"
        },
        {
          "internalType": "uint32",
          "name": "_attack",
          "type": "uint32"
        },
        {
          "internalType": "uint32",
          "name": "_defense",
          "type": "uint32"
        },
        {
          "internalType": "uint32",
          "name": "_health",
          "type": "uint32"
        }
      ],
      "name": "mint",
      "outputs": [],
      "stateMutability": "nonpayable",
      "type": "function"
    },
    {
      "inputs": [
        {
          "internalType": "uint32",
          "name": "_tokenId",
          "type": "uint32"
        }
      ],
      "name": "burn",
      "outputs": [],
      "stateMutability": "nonpayable",
      "type": "function"
    },
    {
      "inputs": [
        {
          "internalType": "uint32",
          "name": "_id",
          "type": "uint32"
        },
        {
          "internalType": "uint8",
          "name": "_level",
          "type": "uint8"
        },
        {
          "internalType": "uint32",
          "name": "_attack",
          "type": "uint32"
        },
        {
          "internalType": "uint32",
          "name": "_defense",
          "type": "uint32"
        },
        {
          "internalType": "uint32",
          "name": "_health",
          "type": "uint32"
        }
      ],
      "name": "upgrade",
      "outputs": [],
      "stateMutability": "nonpayable",
      "type": "function"
    }
  ],
  "bytecode": "0x60806040523480156200001157600080fd5b506040518060400160405280600881526020017f46776172436861720000000000000000000000000000000000000000000000008152506040518060400160405280600381526020017f4657430000000000000000000000000000000000000000000000000000000000815250620000966301ffc9a760e01b6200011860201b60201c565b8160069080519060200190620000ae92919062000221565b508060079080519060200190620000c792919062000221565b50620000e06380ac58cd60e01b6200011860201b60201c565b620000f8635b5e139f60e01b6200011860201b60201c565b6200011063780e9d6360e01b6200011860201b60201c565b5050620002c7565b63ffffffff60e01b817bffffffffffffffffffffffffffffffffffffffffffffffffffffffff19161415620001b5576040517f08c379a000000000000000000000000000000000000000000000000000000000815260040180806020018281038252601c8152602001807f4552433136353a20696e76616c696420696e746572666163652069640000000081525060200191505060405180910390fd5b6001600080837bffffffffffffffffffffffffffffffffffffffffffffffffffffffff19167bffffffffffffffffffffffffffffffffffffffffffffffffffffffff1916815260200190815260200160002060006101000a81548160ff02191690831515021790555050565b828054600181600116156101000203166002900490600052602060002090601f016020900481019282601f106200026457805160ff191683800117855562000295565b8280016001018555821562000295579182015b828111156200029457825182559160200191906001019062000277565b5b509050620002a49190620002a8565b5090565b5b80821115620002c3576000816000905550600101620002a9565b5090565b614d5e80620002d76000396000f3fe60806040526004361061021a5760003560e01c806379cd6f6311610123578063b88d4fde116100ab578063d53913931161006f578063d539139314611022578063d547741f1461104d578063db69323a146110a8578063e985e9c514611170578063fb9397b4146111f75761021a565b8063b88d4fde14610d08578063c4d66de814610e1a578063c87b56dd14610e5e578063ca15c87314610f12578063d4f0053314610f615761021a565b806391d14854116100f257806391d1485414610b0a57806395d89b4114610b7b578063a217fddf14610c0b578063a22cb46514610c36578063abafa8f114610c935761021a565b806379cd6f631461093c5780637a5984c4146109ba5780637d37048c146109fb5780639010d07c14610a9b5761021a565b80632f2ff15d116101a657806342b6f7c21161017557806342b6f7c2146107685780634f6ccce7146107935780636352211e146107e25780636c0360eb1461084757806370a08231146108d75761021a565b80632f2ff15d146105c85780632f745c591461062357806336568abe1461069257806342842e0e146106ed5761021a565b806318160ddd116101ed57806318160ddd146103df5780631dea667c1461040a578063206b60f9146104d357806323b872dd146104fe578063248a9ca3146105795761021a565b806301ffc9a71461021f57806306fdde031461028f578063081812fc1461031f578063095ea7b314610384575b600080fd5b34801561022b57600080fd5b506102776004803603602081101561024257600080fd5b8101908080357bffffffffffffffffffffffffffffffffffffffffffffffffffffffff191690602001909291905050506112b8565b60405180821515815260200191505060405180910390f35b34801561029b57600080fd5b506102a461131f565b6040518080602001828103825283818151815260200191508051906020019080838360005b838110156102e45780820151818401526020810190506102c9565b50505050905090810190601f1680156103115780820380516001836020036101000a031916815260200191505b509250505060405180910390f35b34801561032b57600080fd5b506103586004803603602081101561034257600080fd5b81019080803590602001909291905050506113c1565b604051808273ffffffffffffffffffffffffffffffffffffffff16815260200191505060405180910390f35b34801561039057600080fd5b506103dd600480360360408110156103a757600080fd5b81019080803573ffffffffffffffffffffffffffffffffffffffff1690602001909291908035906020019092919050505061145c565b005b3480156103eb57600080fd5b506103f46115a0565b6040518082815260200191505060405180910390f35b34801561041657600080fd5b506104d1600480360361012081101561042e57600080fd5b81019080803573ffffffffffffffffffffffffffffffffffffffff169060200190929190803563ffffffff169060200190929190803560ff169060200190929190803560ff169060200190929190803560ff169060200190929190803563ffffffff169060200190929190803563ffffffff169060200190929190803563ffffffff169060200190929190803563ffffffff1690602001909291905050506115b1565b005b3480156104df57600080fd5b506104e86118a7565b6040518082815260200191505060405180910390f35b34801561050a57600080fd5b506105776004803603606081101561052157600080fd5b81019080803573ffffffffffffffffffffffffffffffffffffffff169060200190929190803573ffffffffffffffffffffffffffffffffffffffff169060200190929190803590602001909291905050506118cb565b005b34801561058557600080fd5b506105b26004803603602081101561059c57600080fd5b8101908080359060200190929190505050611941565b6040518082815260200191505060405180910390f35b3480156105d457600080fd5b50610621600480360360408110156105eb57600080fd5b8101908080359060200190929190803573ffffffffffffffffffffffffffffffffffffffff169060200190929190505050611961565b005b34801561062f57600080fd5b5061067c6004803603604081101561064657600080fd5b81019080803573ffffffffffffffffffffffffffffffffffffffff169060200190929190803590602001909291905050506119eb565b6040518082815260200191505060405180910390f35b34801561069e57600080fd5b506106eb600480360360408110156106b557600080fd5b8101908080359060200190929190803573ffffffffffffffffffffffffffffffffffffffff169060200190929190505050611a46565b005b3480156106f957600080fd5b506107666004803603606081101561071057600080fd5b81019080803573ffffffffffffffffffffffffffffffffffffffff169060200190929190803573ffffffffffffffffffffffffffffffffffffffff16906020019092919080359060200190929190505050611adf565b005b34801561077457600080fd5b5061077d611aff565b6040518082815260200191505060405180910390f35b34801561079f57600080fd5b506107cc600480360360208110156107b657600080fd5b8101908080359060200190929190505050611b23565b6040518082815260200191505060405180910390f35b3480156107ee57600080fd5b5061081b6004803603602081101561080557600080fd5b8101908080359060200190929190505050611b46565b604051808273ffffffffffffffffffffffffffffffffffffffff16815260200191505060405180910390f35b34801561085357600080fd5b5061085c611b7d565b6040518080602001828103825283818151815260200191508051906020019080838360005b8381101561089c578082015181840152602081019050610881565b50505050905090810190601f1680156108c95780820380516001836020036101000a031916815260200191505b509250505060405180910390f35b3480156108e357600080fd5b50610926600480360360208110156108fa57600080fd5b81019080803573ffffffffffffffffffffffffffffffffffffffff169060200190929190505050611c1f565b6040518082815260200191505060405180910390f35b34801561094857600080fd5b506109b8600480360360a081101561095f57600080fd5b81019080803563ffffffff169060200190929190803560ff169060200190929190803563ffffffff169060200190929190803563ffffffff169060200190929190803563ffffffff169060200190929190505050611cf4565b005b3480156109c657600080fd5b506109f9600480360360208110156109dd57600080fd5b81019080803563ffffffff169060200190929190505050611eef565b005b348015610a0757600080fd5b50610a3a60048036036020811015610a1e57600080fd5b81019080803563ffffffff169060200190929190505050611f6d565b604051808860ff1681526020018760ff1681526020018660ff1681526020018563ffffffff1681526020018463ffffffff1681526020018363ffffffff1681526020018263ffffffff16815260200197505050505050505060405180910390f35b348015610aa757600080fd5b50610ade60048036036040811015610abe57600080fd5b810190808035906020019092919080359060200190929190505050612147565b604051808273ffffffffffffffffffffffffffffffffffffffff16815260200191505060405180910390f35b348015610b1657600080fd5b50610b6360048036036040811015610b2d57600080fd5b8101908080359060200190929190803573ffffffffffffffffffffffffffffffffffffffff169060200190929190505050612179565b60405180821515815260200191505060405180910390f35b348015610b8757600080fd5b50610b906121ab565b6040518080602001828103825283818151815260200191508051906020019080838360005b83811015610bd0578082015181840152602081019050610bb5565b50505050905090810190601f168015610bfd5780820380516001836020036101000a031916815260200191505b509250505060405180910390f35b348015610c1757600080fd5b50610c2061224d565b6040518082815260200191505060405180910390f35b348015610c4257600080fd5b50610c9160048036036040811015610c5957600080fd5b81019080803573ffffffffffffffffffffffffffffffffffffffff169060200190929190803515159060200190929190505050612254565b005b348015610c9f57600080fd5b50610cd260048036036020811015610cb657600080fd5b81019080803563ffffffff16906020019092919050505061240a565b604051808463ffffffff1681526020018363ffffffff1681526020018263ffffffff168152602001935050505060405180910390f35b348015610d1457600080fd5b50610e1860048036036080811015610d2b57600080fd5b81019080803573ffffffffffffffffffffffffffffffffffffffff169060200190929190803573ffffffffffffffffffffffffffffffffffffffff1690602001909291908035906020019092919080359060200190640100000000811115610d9257600080fd5b820183602082011115610da457600080fd5b80359060200191846001830284011164010000000083111715610dc657600080fd5b91908080601f016020809104026020016040519081016040528093929190818152602001838380828437600081840152601f19601f8201169050808301925050505050505091929192905050506125bc565b005b610e5c60048036036020811015610e3057600080fd5b81019080803573ffffffffffffffffffffffffffffffffffffffff169060200190929190505050612634565b005b348015610e6a57600080fd5b50610e9760048036036020811015610e8157600080fd5b81019080803590602001909291905050506127cc565b6040518080602001828103825283818151815260200191508051906020019080838360005b83811015610ed7578082015181840152602081019050610ebc565b50505050905090810190601f168015610f045780820380516001836020036101000a031916815260200191505b509250505060405180910390f35b348015610f1e57600080fd5b50610f4b60048036036020811015610f3557600080fd5b8101908080359060200190929190505050612a9d565b6040518082815260200191505060405180910390f35b348015610f6d57600080fd5b50610f9a60048036036020811015610f8457600080fd5b8101908080359060200190929190505050612ac4565b604051808b60ff1681526020018a60ff1681526020018960ff1681526020018863ffffffff1681526020018763ffffffff1681526020018663ffffffff1681526020018563ffffffff1681526020018463ffffffff1681526020018363ffffffff1681526020018263ffffffff1681526020019a505050505050505050505060405180910390f35b34801561102e57600080fd5b50611037612cb3565b6040518082815260200191505060405180910390f35b34801561105957600080fd5b506110a66004803603604081101561107057600080fd5b8101908080359060200190929190803573ffffffffffffffffffffffffffffffffffffffff169060200190929190505050612cd7565b005b3480156110b457600080fd5b506110f5600480360360608110156110cb57600080fd5b81019080803590602001909291908035906020019092919080359060200190929190505050612d61565b6040518080602001828103825283818151815260200191508051906020019080838360005b8381101561113557808201518184015260208101905061111a565b50505050905090810190601f1680156111625780820380516001836020036101000a031916815260200191505b509250505060405180910390f35b34801561117c57600080fd5b506111df6004803603604081101561119357600080fd5b81019080803573ffffffffffffffffffffffffffffffffffffffff169060200190929190803573ffffffffffffffffffffffffffffffffffffffff169060200190929190505050612e2b565b60405180821515815260200191505060405180910390f35b34801561120357600080fd5b506112306004803603602081101561121a57600080fd5b8101908080359060200190929190505050612ebf565b604051808b60ff1681526020018a60ff1681526020018960ff1681526020018863ffffffff1681526020018763ffffffff1681526020018663ffffffff1681526020018563ffffffff1681526020018463ffffffff1681526020018363ffffffff1681526020018263ffffffff1681526020019a505050505050505050505060405180910390f35b6000806000837bffffffffffffffffffffffffffffffffffffffffffffffffffffffff19167bffffffffffffffffffffffffffffffffffffffffffffffffffffffff1916815260200190815260200160002060009054906101000a900460ff169050919050565b606060068054600181600116156101000203166002900480601f0160208091040260200160405190810160405280929190818152602001828054600181600116156101000203166002900480156113b75780601f1061138c576101008083540402835291602001916113b7565b820191906000526020600020905b81548152906001019060200180831161139a57829003601f168201915b5050505050905090565b60006113cc82612faa565b611421576040517f08c379a000000000000000000000000000000000000000000000000000000000815260040180806020018281038252602c815260200180614bf6602c913960400191505060405180910390fd5b6004600083815260200190815260200160002060009054906101000a900473ffffffffffffffffffffffffffffffffffffffff169050919050565b600061146782611b46565b90508073ffffffffffffffffffffffffffffffffffffffff168373ffffffffffffffffffffffffffffffffffffffff1614156114ee576040517f08c379a0000000000000000000000000000000000000000000000000000000008152600401808060200182810382526021815260200180614c7a6021913960400191505060405180910390fd5b8073ffffffffffffffffffffffffffffffffffffffff1661150d612fc7565b73ffffffffffffffffffffffffffffffffffffffff16148061153c575061153b81611536612fc7565b612e2b565b5b611591576040517f08c379a0000000000000000000000000000000000000000000000000000000008152600401808060200182810382526038815260200180614b1b6038913960400191505060405180910390fd5b61159b8383612fcf565b505050565b60006115ac6002613088565b905090565b6115c1898963ffffffff1661309d565b86600c60008a63ffffffff16815260200190815260200160002060000160006101000a81548160ff021916908360ff16021790555085600c60008a63ffffffff16815260200190815260200160002060000160016101000a81548160ff021916908360ff16021790555084600c60008a63ffffffff16815260200190815260200160002060000160026101000a81548160ff021916908360ff16021790555083600c60008a63ffffffff16815260200190815260200160002060000160036101000a81548163ffffffff021916908363ffffffff16021790555082600c60008a63ffffffff16815260200190815260200160002060000160076101000a81548163ffffffff021916908363ffffffff16021790555081600c60008a63ffffffff168152602001908152602001600020600001600b6101000a81548163ffffffff021916908363ffffffff16021790555080600c60008a63ffffffff168152602001908152602001600020600001600f6101000a81548163ffffffff021916908363ffffffff16021790555082600c60008a63ffffffff16815260200190815260200160002060000160136101000a81548163ffffffff021916908363ffffffff16021790555081600c60008a63ffffffff16815260200190815260200160002060000160176101000a81548163ffffffff021916908363ffffffff16021790555080600c60008a63ffffffff168152602001908152602001600020600001601b6101000a81548163ffffffff021916908363ffffffff1602179055508460ff168660ff168963ffffffff167fafc76ab417343e35a3c07ab2221dedcc03e99538d3825103e348fe8b978d825f8c8b89898989604051808773ffffffffffffffffffffffffffffffffffffffff1681526020018660ff1681526020018563ffffffff1681526020018463ffffffff1681526020018363ffffffff1681526020018263ffffffff168152602001965050505050505060405180910390a4505050505050505050565b7f8502233096d909befbda0999bb8ea2f3a6be3c138b9fbf003752a4c8bce86f6c81565b6118dc6118d6612fc7565b826130bb565b611931576040517f08c379a0000000000000000000000000000000000000000000000000000000008152600401808060200182810382526031815260200180614c9b6031913960400191505060405180910390fd5b61193c8383836131af565b505050565b6000600b6000838152602001908152602001600020600201549050919050565b611988600b600084815260200190815260200160002060020154611983612fc7565b612179565b6119dd576040517f08c379a000000000000000000000000000000000000000000000000000000000815260040180806020018281038252602f815260200180614a14602f913960400191505060405180910390fd5b6119e782826133f2565b5050565b6000611a3e82600160008673ffffffffffffffffffffffffffffffffffffffff1673ffffffffffffffffffffffffffffffffffffffff16815260200190815260200160002061348690919063ffffffff16565b905092915050565b611a4e612fc7565b73ffffffffffffffffffffffffffffffffffffffff168173ffffffffffffffffffffffffffffffffffffffff1614611ad1576040517f08c379a000000000000000000000000000000000000000000000000000000000815260040180806020018281038252602f815260200180614cfa602f913960400191505060405180910390fd5b611adb82826134a0565b5050565b611afa838383604051806020016040528060008152506125bc565b505050565b7fa48978b4005c636910d4509d0b2cba835948bfd426c647cce40bbbec61dd636181565b600080611b3a83600261353490919063ffffffff16565b50905080915050919050565b6000611b7682604051806060016040528060298152602001614b7d6029913960026135609092919063ffffffff16565b9050919050565b606060098054600181600116156101000203166002900480601f016020809104026020016040519081016040528092919081815260200182805460018160011615610100020316600290048015611c155780601f10611bea57610100808354040283529160200191611c15565b820191906000526020600020905b815481529060010190602001808311611bf857829003601f168201915b5050505050905090565b60008073ffffffffffffffffffffffffffffffffffffffff168273ffffffffffffffffffffffffffffffffffffffff161415611ca6576040517f08c379a000000000000000000000000000000000000000000000000000000000815260040180806020018281038252602a815260200180614b53602a913960400191505060405180910390fd5b611ced600160008473ffffffffffffffffffffffffffffffffffffffff1673ffffffffffffffffffffffffffffffffffffffff16815260200190815260200160002061357f565b9050919050565b611d257fa48978b4005c636910d4509d0b2cba835948bfd426c647cce40bbbec61dd6361611d20612fc7565b612179565b611d97576040517f08c379a000000000000000000000000000000000000000000000000000000000815260040180806020018281038252601e8152602001807f4657433a205570677261646520726f6c6520697320726571756972656421000081525060200191505060405180910390fd5b83600c60008763ffffffff16815260200190815260200160002060000160006101000a81548160ff021916908360ff16021790555082600c60008763ffffffff16815260200190815260200160002060000160136101000a81548163ffffffff021916908363ffffffff16021790555081600c60008763ffffffff16815260200190815260200160002060000160176101000a81548163ffffffff021916908363ffffffff16021790555080600c60008763ffffffff168152602001908152602001600020600001601b6101000a81548163ffffffff021916908363ffffffff1602179055508463ffffffff167f603dea8fbc5990534d2cb8b2e29f7a51836cbd75459f6ca381c0a254642c849a85858585604051808560ff1681526020018463ffffffff1681526020018363ffffffff1681526020018263ffffffff16815260200194505050505060405180910390a25050505050565b611f06611efa612fc7565b8263ffffffff166130bb565b611f5b576040517f08c379a000000000000000000000000000000000000000000000000000000000815260040180806020018281038252602e815260200180614ccc602e913960400191505060405180910390fd5b611f6a8163ffffffff16613594565b50565b6000806000806000806000611f80614906565b600c60008a63ffffffff168152602001908152602001600020604051806101400160405290816000820160009054906101000a900460ff1660ff1660ff1681526020016000820160019054906101000a900460ff1660ff1660ff1681526020016000820160029054906101000a900460ff1660ff1660ff1681526020016000820160039054906101000a900463ffffffff1663ffffffff1663ffffffff1681526020016000820160079054906101000a900463ffffffff1663ffffffff1663ffffffff16815260200160008201600b9054906101000a900463ffffffff1663ffffffff1663ffffffff16815260200160008201600f9054906101000a900463ffffffff1663ffffffff1663ffffffff1681526020016000820160139054906101000a900463ffffffff1663ffffffff1663ffffffff1681526020016000820160179054906101000a900463ffffffff1663ffffffff1663ffffffff16815260200160008201601b9054906101000a900463ffffffff1663ffffffff1663ffffffff1681525050905080600001518160200151826040015183606001518460e00151856101000151866101200151975097509750975097509750975050919395979092949650565b600061217182600b60008681526020019081526020016000206000016136ce90919063ffffffff16565b905092915050565b60006121a382600b60008681526020019081526020016000206000016136e890919063ffffffff16565b905092915050565b606060078054600181600116156101000203166002900480601f0160208091040260200160405190810160405280929190818152602001828054600181600116156101000203166002900480156122435780601f1061221857610100808354040283529160200191612243565b820191906000526020600020905b81548152906001019060200180831161222657829003601f168201915b5050505050905090565b6000801b81565b61225c612fc7565b73ffffffffffffffffffffffffffffffffffffffff168273ffffffffffffffffffffffffffffffffffffffff1614156122fd576040517f08c379a00000000000000000000000000000000000000000000000000000000081526004018080602001828103825260198152602001807f4552433732313a20617070726f766520746f2063616c6c65720000000000000081525060200191505060405180910390fd5b806005600061230a612fc7565b73ffffffffffffffffffffffffffffffffffffffff1673ffffffffffffffffffffffffffffffffffffffff16815260200190815260200160002060008473ffffffffffffffffffffffffffffffffffffffff1673ffffffffffffffffffffffffffffffffffffffff16815260200190815260200160002060006101000a81548160ff0219169083151502179055508173ffffffffffffffffffffffffffffffffffffffff166123b7612fc7565b73ffffffffffffffffffffffffffffffffffffffff167f17307eab39ab6107e8899845ad3d59bd9653f200f220920489ca2b5937696c318360405180821515815260200191505060405180910390a35050565b6000806000612417614906565b600c60008663ffffffff168152602001908152602001600020604051806101400160405290816000820160009054906101000a900460ff1660ff1660ff1681526020016000820160019054906101000a900460ff1660ff1660ff1681526020016000820160029054906101000a900460ff1660ff1660ff1681526020016000820160039054906101000a900463ffffffff1663ffffffff1663ffffffff1681526020016000820160079054906101000a900463ffffffff1663ffffffff1663ffffffff16815260200160008201600b9054906101000a900463ffffffff1663ffffffff1663ffffffff16815260200160008201600f9054906101000a900463ffffffff1663ffffffff1663ffffffff1681526020016000820160139054906101000a900463ffffffff1663ffffffff1663ffffffff1681526020016000820160179054906101000a900463ffffffff1663ffffffff1663ffffffff16815260200160008201601b9054906101000a900463ffffffff1663ffffffff1663ffffffff1681525050905080608001518160a001518260c00151935093509350509193909250565b6125cd6125c7612fc7565b836130bb565b612622576040517f08c379a0000000000000000000000000000000000000000000000000000000008152600401808060200182810382526031815260200180614c9b6031913960400191505060405180910390fd5b61262e84848484613718565b50505050565b600a60019054906101000a900460ff1680612653575061265261378a565b5b8061266b5750600a60009054906101000a900460ff16155b6126c0576040517f08c379a000000000000000000000000000000000000000000000000000000000815260040180806020018281038252602e815260200180614ba6602e913960400191505060405180910390fd5b6000600a60019054906101000a900460ff161590508015612712576001600a60016101000a81548160ff0219169083151502179055506001600a60006101000a81548160ff0219169083151502179055505b61271f6000801b8361379b565b61274c7f9f2df0fed2c77648de5860a4cc508cd0818c85b8b8a1ab4ceeef8d981c8956a66000801b6137a9565b6127797fa48978b4005c636910d4509d0b2cba835948bfd426c647cce40bbbec61dd63616000801b6137a9565b6127a67f8502233096d909befbda0999bb8ea2f3a6be3c138b9fbf003752a4c8bce86f6c6000801b6137a9565b80156127c8576000600a60016101000a81548160ff0219169083151502179055505b5050565b60606127d782612faa565b61282c576040517f08c379a000000000000000000000000000000000000000000000000000000000815260040180806020018281038252602f815260200180614c4b602f913960400191505060405180910390fd5b6060600860008481526020019081526020016000208054600181600116156101000203166002900480601f0160208091040260200160405190810160405280929190818152602001828054600181600116156101000203166002900480156128d55780601f106128aa576101008083540402835291602001916128d5565b820191906000526020600020905b8154815290600101906020018083116128b857829003601f168201915b5050505050905060606128e6611b7d565b90506000815114156128fc578192505050612a98565b6000825111156129cd5780826040516020018083805190602001908083835b6020831061293e578051825260208201915060208101905060208303925061291b565b6001836020036101000a03801982511681845116808217855250505050505090500182805190602001908083835b6020831061298f578051825260208201915060208101905060208303925061296c565b6001836020036101000a0380198251168184511680821785525050505050509050019250505060405160208183030381529060405292505050612a98565b806129d78561380d565b6040516020018083805190602001908083835b60208310612a0d57805182526020820191506020810190506020830392506129ea565b6001836020036101000a03801982511681845116808217855250505050505090500182805190602001908083835b60208310612a5e5780518252602082019150602081019050602083039250612a3b565b6001836020036101000a03801982511681845116808217855250505050505090500192505050604051602081830303815290604052925050505b919050565b6000612abd600b6000848152602001908152602001600020600001613954565b9050919050565b600080600080600080600080600080612adb614906565b600c60008d8152602001908152602001600020604051806101400160405290816000820160009054906101000a900460ff1660ff1660ff1681526020016000820160019054906101000a900460ff1660ff1660ff1681526020016000820160029054906101000a900460ff1660ff1660ff1681526020016000820160039054906101000a900463ffffffff1663ffffffff1663ffffffff1681526020016000820160079054906101000a900463ffffffff1663ffffffff1663ffffffff16815260200160008201600b9054906101000a900463ffffffff1663ffffffff1663ffffffff16815260200160008201600f9054906101000a900463ffffffff1663ffffffff1663ffffffff1681526020016000820160139054906101000a900463ffffffff1663ffffffff1663ffffffff1681526020016000820160179054906101000a900463ffffffff1663ffffffff1663ffffffff16815260200160008201601b9054906101000a900463ffffffff1663ffffffff1663ffffffff16815250509050806000015181602001518260400151836060015184608001518560a001518660c001518760e001518861010001518961012001519a509a509a509a509a509a509a509a509a509a50509193959799509193959799565b7f9f2df0fed2c77648de5860a4cc508cd0818c85b8b8a1ab4ceeef8d981c8956a681565b612cfe600b600084815260200190815260200160002060020154612cf9612fc7565b612179565b612d53576040517f08c379a0000000000000000000000000000000000000000000000000000000008152600401808060200182810382526030815260200180614aeb6030913960400191505060405180910390fd5b612d5d82826134a0565b5050565b600d60205282600052604060002060205281600052604060002060205280600052604060002060009250925050508054600181600116156101000203166002900480601f016020809104026020016040519081016040528092919081815260200182805460018160011615610100020316600290048015612e235780601f10612df857610100808354040283529160200191612e23565b820191906000526020600020905b815481529060010190602001808311612e0657829003601f168201915b505050505081565b6000600560008473ffffffffffffffffffffffffffffffffffffffff1673ffffffffffffffffffffffffffffffffffffffff16815260200190815260200160002060008373ffffffffffffffffffffffffffffffffffffffff1673ffffffffffffffffffffffffffffffffffffffff16815260200190815260200160002060009054906101000a900460ff16905092915050565b600c6020528060005260406000206000915090508060000160009054906101000a900460ff16908060000160019054906101000a900460ff16908060000160029054906101000a900460ff16908060000160039054906101000a900463ffffffff16908060000160079054906101000a900463ffffffff169080600001600b9054906101000a900463ffffffff169080600001600f9054906101000a900463ffffffff16908060000160139054906101000a900463ffffffff16908060000160179054906101000a900463ffffffff169080600001601b9054906101000a900463ffffffff1690508a565b6000612fc082600261396990919063ffffffff16565b9050919050565b600033905090565b816004600083815260200190815260200160002060006101000a81548173ffffffffffffffffffffffffffffffffffffffff021916908373ffffffffffffffffffffffffffffffffffffffff160217905550808273ffffffffffffffffffffffffffffffffffffffff1661304283611b46565b73ffffffffffffffffffffffffffffffffffffffff167f8c5be1e5ebec7d5bd14f71427d1e84f3dd0314c0f7b2291e5b200ac8c7c3b92560405160405180910390a45050565b600061309682600001613983565b9050919050565b6130b7828260405180602001604052806000815250613994565b5050565b60006130c682612faa565b61311b576040517f08c379a000000000000000000000000000000000000000000000000000000000815260040180806020018281038252602c815260200180614abf602c913960400191505060405180910390fd5b600061312683611b46565b90508073ffffffffffffffffffffffffffffffffffffffff168473ffffffffffffffffffffffffffffffffffffffff16148061319557508373ffffffffffffffffffffffffffffffffffffffff1661317d846113c1565b73ffffffffffffffffffffffffffffffffffffffff16145b806131a657506131a58185612e2b565b5b91505092915050565b8273ffffffffffffffffffffffffffffffffffffffff166131cf82611b46565b73ffffffffffffffffffffffffffffffffffffffff161461323b576040517f08c379a0000000000000000000000000000000000000000000000000000000008152600401808060200182810382526029815260200180614c226029913960400191505060405180910390fd5b600073ffffffffffffffffffffffffffffffffffffffff168273ffffffffffffffffffffffffffffffffffffffff1614156132c1576040517f08c379a0000000000000000000000000000000000000000000000000000000008152600401808060200182810382526024815260200180614a756024913960400191505060405180910390fd5b6132cc838383613a05565b6132d7600082612fcf565b61332881600160008673ffffffffffffffffffffffffffffffffffffffff1673ffffffffffffffffffffffffffffffffffffffff168152602001908152602001600020613bc090919063ffffffff16565b5061337a81600160008573ffffffffffffffffffffffffffffffffffffffff1673ffffffffffffffffffffffffffffffffffffffff168152602001908152602001600020613bda90919063ffffffff16565b5061339181836002613bf49092919063ffffffff16565b50808273ffffffffffffffffffffffffffffffffffffffff168473ffffffffffffffffffffffffffffffffffffffff167fddf252ad1be2c89b69c2b068fc378daa952ba7f163c4a11628f55a4df523b3ef60405160405180910390a4505050565b61341a81600b6000858152602001908152602001600020600001613c2990919063ffffffff16565b1561348257613427612fc7565b73ffffffffffffffffffffffffffffffffffffffff168173ffffffffffffffffffffffffffffffffffffffff16837f2f8788117e7eff1d82e926ec794901d17c78024a50270940304540a733656f0d60405160405180910390a45b5050565b60006134958360000183613c59565b60001c905092915050565b6134c881600b6000858152602001908152602001600020600001613cdc90919063ffffffff16565b15613530576134d5612fc7565b73ffffffffffffffffffffffffffffffffffffffff168173ffffffffffffffffffffffffffffffffffffffff16837ff6391f5c32d9c69d2a47ea670b442974b53935d1edc7fd64eb21e047a839171b60405160405180910390a45b5050565b6000806000806135478660000186613d0c565b915091508160001c8160001c9350935050509250929050565b6000613573846000018460001b84613da5565b60001c90509392505050565b600061358d82600001613e9b565b9050919050565b600061359f82611b46565b90506135ad81600084613a05565b6135b8600083612fcf565b6000600860008481526020019081526020016000208054600181600116156101000203166002900490501461360757600860008381526020019081526020016000206000613606919061498c565b5b61365882600160008473ffffffffffffffffffffffffffffffffffffffff1673ffffffffffffffffffffffffffffffffffffffff168152602001908152602001600020613bc090919063ffffffff16565b5061366d826002613eac90919063ffffffff16565b5081600073ffffffffffffffffffffffffffffffffffffffff168273ffffffffffffffffffffffffffffffffffffffff167fddf252ad1be2c89b69c2b068fc378daa952ba7f163c4a11628f55a4df523b3ef60405160405180910390a45050565b60006136dd8360000183613c59565b60001c905092915050565b6000613710836000018373ffffffffffffffffffffffffffffffffffffffff1660001b613ec6565b905092915050565b6137238484846131af565b61372f84848484613ee9565b613784576040517f08c379a0000000000000000000000000000000000000000000000000000000008152600401808060200182810382526032815260200180614a436032913960400191505060405180910390fd5b50505050565b600061379530614102565b15905090565b6137a582826133f2565b5050565b80600b600084815260200190815260200160002060020154837fbd79b86ffe0ab8e8776151514217cd7cacd52c909f66475c3af44e129f0b00ff60405160405180910390a480600b6000848152602001908152602001600020600201819055505050565b60606000821415613855576040518060400160405280600181526020017f3000000000000000000000000000000000000000000000000000000000000000815250905061394f565b600082905060005b6000821461387f578080600101915050600a828161387757fe5b04915061385d565b60608167ffffffffffffffff8111801561389857600080fd5b506040519080825280601f01601f1916602001820160405280156138cb5781602001600182028036833780820191505090505b50905060006001830390508593505b6000841461394757600a84816138ec57fe5b0660300160f81b8282806001900393508151811061390657fe5b60200101907effffffffffffffffffffffffffffffffffffffffffffffffffffffffffffff1916908160001a905350600a848161393f57fe5b0493506138da565b819450505050505b919050565b600061396282600001613e9b565b9050919050565b600061397b836000018360001b614115565b905092915050565b600081600001805490509050919050565b61399e8383614138565b6139ab6000848484613ee9565b613a00576040517f08c379a0000000000000000000000000000000000000000000000000000000008152600401808060200182810382526032815260200180614a436032913960400191505060405180910390fd5b505050565b600073ffffffffffffffffffffffffffffffffffffffff168373ffffffffffffffffffffffffffffffffffffffff161415613ae257613a6b7f9f2df0fed2c77648de5860a4cc508cd0818c85b8b8a1ab4ceeef8d981c8956a6613a66612fc7565b612179565b613add576040517f08c379a000000000000000000000000000000000000000000000000000000000815260040180806020018281038252601d8152602001807f4657433a204d696e74657220726f6c652069732072657175697265642100000081525060200191505060405180910390fd5b613bbb565b600073ffffffffffffffffffffffffffffffffffffffff168273ffffffffffffffffffffffffffffffffffffffff1614613bba57613b477f8502233096d909befbda0999bb8ea2f3a6be3c138b9fbf003752a4c8bce86f6c613b42612fc7565b612179565b613bb9576040517f08c379a000000000000000000000000000000000000000000000000000000000815260040180806020018281038252601f8152602001807f4657433a205472616e7366657220726f6c65206973207265717569726564210081525060200191505060405180910390fd5b5b5b505050565b6000613bd2836000018360001b61432c565b905092915050565b6000613bec836000018360001b614414565b905092915050565b6000613c20846000018460001b8473ffffffffffffffffffffffffffffffffffffffff1660001b614484565b90509392505050565b6000613c51836000018373ffffffffffffffffffffffffffffffffffffffff1660001b614414565b905092915050565b600081836000018054905011613cba576040517f08c379a00000000000000000000000000000000000000000000000000000000081526004018080602001828103825260228152602001806149f26022913960400191505060405180910390fd5b826000018281548110613cc957fe5b9060005260206000200154905092915050565b6000613d04836000018373ffffffffffffffffffffffffffffffffffffffff1660001b61432c565b905092915050565b60008082846000018054905011613d6e576040517f08c379a0000000000000000000000000000000000000000000000000000000008152600401808060200182810382526022815260200180614bd46022913960400191505060405180910390fd5b6000846000018481548110613d7f57fe5b906000526020600020906002020190508060000154816001015492509250509250929050565b60008084600101600085815260200190815260200160002054905060008114158390613e6c576040517f08c379a00000000000000000000000000000000000000000000000000000000081526004018080602001828103825283818151815260200191508051906020019080838360005b83811015613e31578082015181840152602081019050613e16565b50505050905090810190601f168015613e5e5780820380516001836020036101000a031916815260200191505b509250505060405180910390fd5b50846000016001820381548110613e7f57fe5b9060005260206000209060020201600101549150509392505050565b600081600001805490509050919050565b6000613ebe836000018360001b614560565b905092915050565b600080836001016000848152602001908152602001600020541415905092915050565b6000613f0a8473ffffffffffffffffffffffffffffffffffffffff16614102565b613f1757600190506140fa565b606061408163150b7a0260e01b613f2c612fc7565b888787604051602401808573ffffffffffffffffffffffffffffffffffffffff1681526020018473ffffffffffffffffffffffffffffffffffffffff16815260200183815260200180602001828103825283818151815260200191508051906020019080838360005b83811015613fb0578082015181840152602081019050613f95565b50505050905090810190601f168015613fdd5780820380516001836020036101000a031916815260200191505b5095505050505050604051602081830303815290604052907bffffffffffffffffffffffffffffffffffffffffffffffffffffffff19166020820180517bffffffffffffffffffffffffffffffffffffffffffffffffffffffff8381831617835250505050604051806060016040528060328152602001614a43603291398773ffffffffffffffffffffffffffffffffffffffff166146799092919063ffffffff16565b9050600081806020019051602081101561409a57600080fd5b8101908080519060200190929190505050905063150b7a0260e01b7bffffffffffffffffffffffffffffffffffffffffffffffffffffffff1916817bffffffffffffffffffffffffffffffffffffffffffffffffffffffff191614925050505b949350505050565b600080823b905060008111915050919050565b600080836001016000848152602001908152602001600020541415905092915050565b600073ffffffffffffffffffffffffffffffffffffffff168273ffffffffffffffffffffffffffffffffffffffff1614156141db576040517f08c379a00000000000000000000000000000000000000000000000000000000081526004018080602001828103825260208152602001807f4552433732313a206d696e7420746f20746865207a65726f206164647265737381525060200191505060405180910390fd5b6141e481612faa565b15614257576040517f08c379a000000000000000000000000000000000000000000000000000000000815260040180806020018281038252601c8152602001807f4552433732313a20746f6b656e20616c7265616479206d696e7465640000000081525060200191505060405180910390fd5b61426360008383613a05565b6142b481600160008573ffffffffffffffffffffffffffffffffffffffff1673ffffffffffffffffffffffffffffffffffffffff168152602001908152602001600020613bda90919063ffffffff16565b506142cb81836002613bf49092919063ffffffff16565b50808273ffffffffffffffffffffffffffffffffffffffff16600073ffffffffffffffffffffffffffffffffffffffff167fddf252ad1be2c89b69c2b068fc378daa952ba7f163c4a11628f55a4df523b3ef60405160405180910390a45050565b60008083600101600084815260200190815260200160002054905060008114614408576000600182039050600060018660000180549050039050600086600001828154811061437757fe5b906000526020600020015490508087600001848154811061439457fe5b90600052602060002001819055506001830187600101600083815260200190815260200160002081905550866000018054806143cc57fe5b6001900381819060005260206000200160009055905586600101600087815260200190815260200160002060009055600194505050505061440e565b60009150505b92915050565b60006144208383613ec6565b61447957826000018290806001815401808255809150506001900390600052602060002001600090919091909150558260000180549050836001016000848152602001908152602001600020819055506001905061447e565b600090505b92915050565b600080846001016000858152602001908152602001600020549050600081141561452b57846000016040518060400160405280868152602001858152509080600181540180825580915050600190039060005260206000209060020201600090919091909150600082015181600001556020820151816001015550508460000180549050856001016000868152602001908152602001600020819055506001915050614559565b8285600001600183038154811061453e57fe5b90600052602060002090600202016001018190555060009150505b9392505050565b6000808360010160008481526020019081526020016000205490506000811461466d57600060018203905060006001866000018054905003905060008660000182815481106145ab57fe5b90600052602060002090600202019050808760000184815481106145cb57fe5b906000526020600020906002020160008201548160000155600182015481600101559050506001830187600101600083600001548152602001908152602001600020819055508660000180548061461e57fe5b6001900381819060005260206000209060020201600080820160009055600182016000905550509055866001016000878152602001908152602001600020600090556001945050505050614673565b60009150505b92915050565b60606146888484600085614691565b90509392505050565b6060824710156146ec576040517f08c379a0000000000000000000000000000000000000000000000000000000008152600401808060200182810382526026815260200180614a996026913960400191505060405180910390fd5b6146f585614102565b614767576040517f08c379a000000000000000000000000000000000000000000000000000000000815260040180806020018281038252601d8152602001807f416464726573733a2063616c6c20746f206e6f6e2d636f6e747261637400000081525060200191505060405180910390fd5b600060608673ffffffffffffffffffffffffffffffffffffffff1685876040518082805190602001908083835b602083106147b75780518252602082019150602081019050602083039250614794565b6001836020036101000a03801982511681845116808217855250505050505090500191505060006040518083038185875af1925050503d8060008114614819576040519150601f19603f3d011682016040523d82523d6000602084013e61481e565b606091505b509150915061482e82828661483a565b92505050949350505050565b6060831561484a578290506148ff565b60008351111561485d5782518084602001fd5b816040517f08c379a00000000000000000000000000000000000000000000000000000000081526004018080602001828103825283818151815260200191508051906020019080838360005b838110156148c45780820151818401526020810190506148a9565b50505050905090810190601f1680156148f15780820380516001836020036101000a031916815260200191505b509250505060405180910390fd5b9392505050565b604051806101400160405280600060ff168152602001600060ff168152602001600060ff168152602001600063ffffffff168152602001600063ffffffff168152602001600063ffffffff168152602001600063ffffffff168152602001600063ffffffff168152602001600063ffffffff168152602001600063ffffffff1681525090565b50805460018160011615610100020316600290046000825580601f106149b257506149d1565b601f0160209004906000526020600020908101906149d091906149d4565b5b50565b5b808211156149ed5760008160009055506001016149d5565b509056fe456e756d657261626c655365743a20696e646578206f7574206f6620626f756e6473416363657373436f6e74726f6c3a2073656e646572206d75737420626520616e2061646d696e20746f206772616e744552433732313a207472616e7366657220746f206e6f6e20455243373231526563656976657220696d706c656d656e7465724552433732313a207472616e7366657220746f20746865207a65726f2061646472657373416464726573733a20696e73756666696369656e742062616c616e636520666f722063616c6c4552433732313a206f70657261746f7220717565727920666f72206e6f6e6578697374656e7420746f6b656e416363657373436f6e74726f6c3a2073656e646572206d75737420626520616e2061646d696e20746f207265766f6b654552433732313a20617070726f76652063616c6c6572206973206e6f74206f776e6572206e6f7220617070726f76656420666f7220616c6c4552433732313a2062616c616e636520717565727920666f7220746865207a65726f20616464726573734552433732313a206f776e657220717565727920666f72206e6f6e6578697374656e7420746f6b656e496e697469616c697a61626c653a20636f6e747261637420697320616c726561647920696e697469616c697a6564456e756d657261626c654d61703a20696e646578206f7574206f6620626f756e64734552433732313a20617070726f76656420717565727920666f72206e6f6e6578697374656e7420746f6b656e4552433732313a207472616e73666572206f6620746f6b656e2074686174206973206e6f74206f776e4552433732314d657461646174613a2055524920717565727920666f72206e6f6e6578697374656e7420746f6b656e4552433732313a20617070726f76616c20746f2063757272656e74206f776e65724552433732313a207472616e736665722063616c6c6572206973206e6f74206f776e6572206e6f7220617070726f7665644657433a207472616e736665722063616c6c6572206973206e6f74206f776e6572206e6f7220617070726f766564416363657373436f6e74726f6c3a2063616e206f6e6c792072656e6f756e636520726f6c657320666f722073656c66a264697066735822122028f7ef682aa6d1cd463dc787cc3157b11dc59e420046442199989bb30c34b81864736f6c634300060c0033",
  "immutableReferences": {},
  "source": "//SPDX-License-Identifier: UNLICENSED\npragma solidity ^0.6.12;\nimport \"@openzeppelin/contracts/math/SafeMath.sol\";\nimport \"@openzeppelin/contracts/token/ERC721/ERC721.sol\";\nimport \"@openzeppelin/contracts/access/AccessControl.sol\";\nimport \"@openzeppelin/contracts/proxy/Initializable.sol\";\nimport \"./SafeMath32.sol\";\nimport \"./SafeMath8.sol\";\n\ncontract FWarChar is \n    ERC721(\"FwarChar\", \"FWC\"),\n    Initializable,\n    AccessControl\n{\n    using SafeMath for uint256;\n    using SafeMath32 for uint32;\n    using SafeMath8 for uint8;\n\n    event MintNFT(address receiver, uint32 indexed tokenId, uint8 level, uint8 indexed rarity, uint8 indexed elementType, uint32 teamId, uint32 attack, uint32 defense, uint32 health);\n    event UpgradeNFT(uint32 indexed tokenId, uint8 level, uint32 attack, uint32 defense, uint32 health);\n    struct CharInfo {\n        uint8 level;\n        \n        uint8 rarity;\n        \n        uint8 elementType;\n\n        uint32 teamId;\n\n        uint32 baseAttack;\n        uint32 baseDefense;\n        uint32 baseHealth;\n\n        uint32 attack;\n        uint32 defense;\n        uint32 health;\n    }\n\n    // tokenId => CharInfo\n    mapping(uint => CharInfo) public charInfos;\n\n    // level => category => item => tokenURI\n    mapping(uint => mapping(uint => mapping(uint => string))) public nftURI;\n\n    bytes32 public constant MINTER_ROLE = keccak256(\"MINTER_ROLE\");\n    bytes32 public constant UPGRADATOR_ROLE = keccak256(\"UPGRADATOR_ROLE\");\n    bytes32 public constant TRANSFER_ROLE = keccak256(\"TRANSFER_ROLE\");\n\n    function initialize(address admin) public payable initializer {\n        _setupRole(DEFAULT_ADMIN_ROLE, admin);\n        _setRoleAdmin(MINTER_ROLE, DEFAULT_ADMIN_ROLE);\n        _setRoleAdmin(UPGRADATOR_ROLE, DEFAULT_ADMIN_ROLE);\n        _setRoleAdmin(TRANSFER_ROLE, DEFAULT_ADMIN_ROLE);\n    }\n\n    /// @dev getCharInfo is called by a user\n    /// @param _id is the NFT Id \n    function getCharInfo(uint32 _id) external view returns (uint8 level, uint8 rarity, uint8 elementType, \n        uint32 teamId, uint32 attack, uint32 defense, uint32 health) \n    {\n        CharInfo memory charInfo = charInfos[_id];\n        return (charInfo.level, charInfo.rarity, charInfo.elementType, charInfo.teamId, charInfo.attack, charInfo.defense, charInfo.health);\n    }\n\n    /// @dev getCharFullInfo is called by a user\n    /// @param _id is the NFT Id \n    function getCharFullInfo(uint _id) external view returns (uint8 level, uint8 rarity, uint8 elementType, \n        uint32 teamId, uint32 baseAttack, uint32 baseDefense, \n        uint32 baseHealth, uint32 attack, uint32 defense, uint32 health) \n    {\n        CharInfo memory charInfo = charInfos[_id];\n        return (charInfo.level, charInfo.rarity, charInfo.elementType, charInfo.teamId, charInfo.baseAttack, charInfo.baseDefense,\n         charInfo.baseHealth, charInfo.attack, charInfo.defense, charInfo.health);\n    }\n\n    /// @dev getCharBaseInfo is called by a user\n    /// @param _id is the NFT Id \n    function getCharBaseInfo(uint32 _id) external view returns (uint32 baseAttack, uint32 baseDefense, uint32 baseHealth) \n    {\n        CharInfo memory charInfo = charInfos[_id];\n        return (charInfo.baseAttack, charInfo.baseDefense, charInfo.baseHealth);\n    }\n\n\n    //mint NFT\n    function mint(\n        address _receiver, \n        uint32 _id,\n        uint8 _level,\n        uint8 _rarity,\n        uint8 _elementType,\n        uint32 _teamId,\n        uint32 _attack,\n        uint32 _defense,\n        uint32 _health\n    ) external {\n        _safeMint(_receiver, _id);\n        charInfos[_id].level = _level;\n        charInfos[_id].rarity = _rarity;\n        charInfos[_id].elementType = _elementType;\n        charInfos[_id].teamId = _teamId;\n\n        charInfos[_id].baseAttack = _attack;\n        charInfos[_id].baseDefense = _defense;\n        charInfos[_id].baseHealth = _health;\n\n        charInfos[_id].attack = _attack;\n        charInfos[_id].defense = _defense;\n        charInfos[_id].health = _health;\n\n        emit MintNFT(_receiver, _id, _level, _rarity, _elementType, _teamId, _attack, _defense, _health);\n    }\n\n\n    //burn NFT\n    function burn(uint32 _tokenId) external {\n        require(_isApprovedOrOwner(_msgSender(), _tokenId), \"FWC: transfer caller is not owner nor approved\");\n        _burn(_tokenId);\n    }\n\n    //upgrade NFT\n    function upgrade(\n        uint32 _id,\n        uint8 _level,\n        uint32 _attack,\n        uint32 _defense,\n        uint32 _health\n    ) external {\n        require(hasRole(UPGRADATOR_ROLE, _msgSender()), 'FWC: Upgrade role is required!');\n\n        charInfos[_id].level = _level;\n        charInfos[_id].attack = _attack;\n        charInfos[_id].defense = _defense;\n        charInfos[_id].health = _health;\n\n        emit UpgradeNFT(_id, _level, _attack, _defense, _health);\n    }\n\n    function _beforeTokenTransfer(address from, address to, uint256 tokenId) internal virtual override{\n        if(from == address(0))\n        {\n            require(hasRole(MINTER_ROLE, _msgSender()), 'FWC: Minter role is required!');\n        }\n        else if(to != address(0))\n        {\n            require(hasRole(TRANSFER_ROLE, _msgSender()), 'FWC: Transfer role is required!');\n        }\n    }\n\n}",
  "sourcePath": "/Users/badung1870/Working/Node/FWar-Main/SourceCode/SmartContracts/Fwar/FwarChar/contracts/FwarChar.sol",
  "compiler": {
    "name": "solc",
    "version": "0.6.12+commit.27d51765.Emscripten.clang"
  },
  "schemaVersion": "3.4.3",
  "updatedAt": "2021-10-26T17:06:26.817Z",
  "networkType": "ethereum",
  "devdoc": {
    "kind": "dev",
    "methods": {
      "approve(address,uint256)": {
        "details": "See {IERC721-approve}."
      },
      "balanceOf(address)": {
        "details": "See {IERC721-balanceOf}."
      },
      "baseURI()": {
        "details": "Returns the base URI set via {_setBaseURI}. This will be automatically added as a prefix in {tokenURI} to each token's URI, or to the token ID if no specific URI is set for that token ID."
      },
      "getApproved(uint256)": {
        "details": "See {IERC721-getApproved}."
      },
      "getCharBaseInfo(uint32)": {
        "details": "getCharBaseInfo is called by a user",
        "params": {
          "_id": "is the NFT Id "
        }
      },
      "getCharFullInfo(uint256)": {
        "details": "getCharFullInfo is called by a user",
        "params": {
          "_id": "is the NFT Id "
        }
      },
      "getCharInfo(uint32)": {
        "details": "getCharInfo is called by a user",
        "params": {
          "_id": "is the NFT Id "
        }
      },
      "getRoleAdmin(bytes32)": {
        "details": "Returns the admin role that controls `role`. See {grantRole} and {revokeRole}. To change a role's admin, use {_setRoleAdmin}."
      },
      "getRoleMember(bytes32,uint256)": {
        "details": "Returns one of the accounts that have `role`. `index` must be a value between 0 and {getRoleMemberCount}, non-inclusive. Role bearers are not sorted in any particular way, and their ordering may change at any point. WARNING: When using {getRoleMember} and {getRoleMemberCount}, make sure you perform all queries on the same block. See the following https://forum.openzeppelin.com/t/iterating-over-elements-on-enumerableset-in-openzeppelin-contracts/2296[forum post] for more information."
      },
      "getRoleMemberCount(bytes32)": {
        "details": "Returns the number of accounts that have `role`. Can be used together with {getRoleMember} to enumerate all bearers of a role."
      },
      "grantRole(bytes32,address)": {
        "details": "Grants `role` to `account`. If `account` had not been already granted `role`, emits a {RoleGranted} event. Requirements: - the caller must have ``role``'s admin role."
      },
      "hasRole(bytes32,address)": {
        "details": "Returns `true` if `account` has been granted `role`."
      },
      "isApprovedForAll(address,address)": {
        "details": "See {IERC721-isApprovedForAll}."
      },
      "name()": {
        "details": "See {IERC721Metadata-name}."
      },
      "ownerOf(uint256)": {
        "details": "See {IERC721-ownerOf}."
      },
      "renounceRole(bytes32,address)": {
        "details": "Revokes `role` from the calling account. Roles are often managed via {grantRole} and {revokeRole}: this function's purpose is to provide a mechanism for accounts to lose their privileges if they are compromised (such as when a trusted device is misplaced). If the calling account had been granted `role`, emits a {RoleRevoked} event. Requirements: - the caller must be `account`."
      },
      "revokeRole(bytes32,address)": {
        "details": "Revokes `role` from `account`. If `account` had been granted `role`, emits a {RoleRevoked} event. Requirements: - the caller must have ``role``'s admin role."
      },
      "safeTransferFrom(address,address,uint256)": {
        "details": "See {IERC721-safeTransferFrom}."
      },
      "safeTransferFrom(address,address,uint256,bytes)": {
        "details": "See {IERC721-safeTransferFrom}."
      },
      "setApprovalForAll(address,bool)": {
        "details": "See {IERC721-setApprovalForAll}."
      },
      "supportsInterface(bytes4)": {
        "details": "See {IERC165-supportsInterface}. Time complexity O(1), guaranteed to always use less than 30 000 gas."
      },
      "symbol()": {
        "details": "See {IERC721Metadata-symbol}."
      },
      "tokenByIndex(uint256)": {
        "details": "See {IERC721Enumerable-tokenByIndex}."
      },
      "tokenOfOwnerByIndex(address,uint256)": {
        "details": "See {IERC721Enumerable-tokenOfOwnerByIndex}."
      },
      "tokenURI(uint256)": {
        "details": "See {IERC721Metadata-tokenURI}."
      },
      "totalSupply()": {
        "details": "See {IERC721Enumerable-totalSupply}."
      },
      "transferFrom(address,address,uint256)": {
        "details": "See {IERC721-transferFrom}."
      }
    },
    "version": 1
  },
  "userdoc": {
    "kind": "user",
    "methods": {},
    "version": 1
  }
}