{
  "contractName": "FwarCharDelegate",
  "abi": [
    {
      "anonymous": false,
      "inputs": [
        {
          "indexed": true,
          "internalType": "address",
          "name": "_caller",
          "type": "address"
        },
        {
          "indexed": true,
          "internalType": "address",
          "name": "_receiver",
          "type": "address"
        },
        {
          "indexed": false,
          "internalType": "uint256[4][]",
          "name": "_openChestInfo",
          "type": "uint256[4][]"
        },
        {
          "indexed": false,
          "internalType": "uint256",
          "name": "_number",
          "type": "uint256"
        }
      ],
      "name": "OpenChest",
      "type": "event"
    },
    {
      "anonymous": false,
      "inputs": [
        {
          "indexed": true,
          "internalType": "bytes32",
          "name": "role",
          "type": "bytes32"
        },
        {
          "indexed": true,
          "internalType": "bytes32",
          "name": "previousAdminRole",
          "type": "bytes32"
        },
        {
          "indexed": true,
          "internalType": "bytes32",
          "name": "newAdminRole",
          "type": "bytes32"
        }
      ],
      "name": "RoleAdminChanged",
      "type": "event"
    },
    {
      "anonymous": false,
      "inputs": [
        {
          "indexed": true,
          "internalType": "bytes32",
          "name": "role",
          "type": "bytes32"
        },
        {
          "indexed": true,
          "internalType": "address",
          "name": "account",
          "type": "address"
        },
        {
          "indexed": true,
          "internalType": "address",
          "name": "sender",
          "type": "address"
        }
      ],
      "name": "RoleGranted",
      "type": "event"
    },
    {
      "anonymous": false,
      "inputs": [
        {
          "indexed": true,
          "internalType": "bytes32",
          "name": "role",
          "type": "bytes32"
        },
        {
          "indexed": true,
          "internalType": "address",
          "name": "account",
          "type": "address"
        },
        {
          "indexed": true,
          "internalType": "address",
          "name": "sender",
          "type": "address"
        }
      ],
      "name": "RoleRevoked",
      "type": "event"
    },
    {
      "anonymous": false,
      "inputs": [
        {
          "indexed": true,
          "internalType": "address",
          "name": "_caller",
          "type": "address"
        },
        {
          "indexed": false,
          "internalType": "uint32",
          "name": "_mainNFTId",
          "type": "uint32"
        },
        {
          "indexed": false,
          "internalType": "uint32[]",
          "name": "_burnedNfts",
          "type": "uint32[]"
        }
      ],
      "name": "Upgrade",
      "type": "event"
    },
    {
      "inputs": [],
      "name": "DEFAULT_ADMIN_ROLE",
      "outputs": [
        {
          "internalType": "bytes32",
          "name": "",
          "type": "bytes32"
        }
      ],
      "stateMutability": "view",
      "type": "function",
      "constant": true
    },
    {
      "inputs": [
        {
          "internalType": "uint256",
          "name": "",
          "type": "uint256"
        }
      ],
      "name": "ELEMENT_MASK",
      "outputs": [
        {
          "internalType": "uint32",
          "name": "",
          "type": "uint32"
        }
      ],
      "stateMutability": "view",
      "type": "function",
      "constant": true
    },
    {
      "inputs": [
        {
          "internalType": "uint256",
          "name": "",
          "type": "uint256"
        }
      ],
      "name": "RARITY_MASK",
      "outputs": [
        {
          "internalType": "uint32",
          "name": "",
          "type": "uint32"
        }
      ],
      "stateMutability": "view",
      "type": "function",
      "constant": true
    },
    {
      "inputs": [],
      "name": "TeamCount",
      "outputs": [
        {
          "internalType": "uint32",
          "name": "",
          "type": "uint32"
        }
      ],
      "stateMutability": "view",
      "type": "function",
      "constant": true
    },
    {
      "inputs": [
        {
          "internalType": "uint256",
          "name": "",
          "type": "uint256"
        },
        {
          "internalType": "uint256",
          "name": "",
          "type": "uint256"
        }
      ],
      "name": "burnInfos",
      "outputs": [
        {
          "internalType": "uint8",
          "name": "junkAmount",
          "type": "uint8"
        },
        {
          "internalType": "uint8",
          "name": "normalAmount",
          "type": "uint8"
        },
        {
          "internalType": "uint8",
          "name": "rareAmount",
          "type": "uint8"
        },
        {
          "internalType": "uint8",
          "name": "baseAmount",
          "type": "uint8"
        },
        {
          "internalType": "uint16",
          "name": "percentConsume",
          "type": "uint16"
        },
        {
          "internalType": "uint16",
          "name": "percentOnBase",
          "type": "uint16"
        }
      ],
      "stateMutability": "view",
      "type": "function",
      "constant": true
    },
    {
      "inputs": [
        {
          "internalType": "uint32",
          "name": "",
          "type": "uint32"
        },
        {
          "internalType": "uint8",
          "name": "",
          "type": "uint8"
        }
      ],
      "name": "charStats",
      "outputs": [
        {
          "internalType": "uint32",
          "name": "maxAttack",
          "type": "uint32"
        },
        {
          "internalType": "uint32",
          "name": "minAttack",
          "type": "uint32"
        },
        {
          "internalType": "uint32",
          "name": "maxDefense",
          "type": "uint32"
        },
        {
          "internalType": "uint32",
          "name": "minDefense",
          "type": "uint32"
        },
        {
          "internalType": "uint32",
          "name": "maxHealth",
          "type": "uint32"
        },
        {
          "internalType": "uint32",
          "name": "minHealth",
          "type": "uint32"
        }
      ],
      "stateMutability": "view",
      "type": "function",
      "constant": true
    },
    {
      "inputs": [],
      "name": "fwarCharAddress",
      "outputs": [
        {
          "internalType": "address",
          "name": "",
          "type": "address"
        }
      ],
      "stateMutability": "view",
      "type": "function",
      "constant": true
    },
    {
      "inputs": [],
      "name": "fwarKeyAddress",
      "outputs": [
        {
          "internalType": "address",
          "name": "",
          "type": "address"
        }
      ],
      "stateMutability": "view",
      "type": "function",
      "constant": true
    },
    {
      "inputs": [
        {
          "internalType": "bytes32",
          "name": "role",
          "type": "bytes32"
        }
      ],
      "name": "getRoleAdmin",
      "outputs": [
        {
          "internalType": "bytes32",
          "name": "",
          "type": "bytes32"
        }
      ],
      "stateMutability": "view",
      "type": "function",
      "constant": true
    },
    {
      "inputs": [
        {
          "internalType": "bytes32",
          "name": "role",
          "type": "bytes32"
        },
        {
          "internalType": "uint256",
          "name": "index",
          "type": "uint256"
        }
      ],
      "name": "getRoleMember",
      "outputs": [
        {
          "internalType": "address",
          "name": "",
          "type": "address"
        }
      ],
      "stateMutability": "view",
      "type": "function",
      "constant": true
    },
    {
      "inputs": [
        {
          "internalType": "bytes32",
          "name": "role",
          "type": "bytes32"
        }
      ],
      "name": "getRoleMemberCount",
      "outputs": [
        {
          "internalType": "uint256",
          "name": "",
          "type": "uint256"
        }
      ],
      "stateMutability": "view",
      "type": "function",
      "constant": true
    },
    {
      "inputs": [
        {
          "internalType": "bytes32",
          "name": "role",
          "type": "bytes32"
        },
        {
          "internalType": "address",
          "name": "account",
          "type": "address"
        }
      ],
      "name": "grantRole",
      "outputs": [],
      "stateMutability": "nonpayable",
      "type": "function"
    },
    {
      "inputs": [
        {
          "internalType": "bytes32",
          "name": "role",
          "type": "bytes32"
        },
        {
          "internalType": "address",
          "name": "account",
          "type": "address"
        }
      ],
      "name": "hasRole",
      "outputs": [
        {
          "internalType": "bool",
          "name": "",
          "type": "bool"
        }
      ],
      "stateMutability": "view",
      "type": "function",
      "constant": true
    },
    {
      "inputs": [
        {
          "internalType": "address",
          "name": "",
          "type": "address"
        },
        {
          "internalType": "address",
          "name": "",
          "type": "address"
        },
        {
          "internalType": "uint256",
          "name": "",
          "type": "uint256"
        },
        {
          "internalType": "bytes",
          "name": "",
          "type": "bytes"
        }
      ],
      "name": "onERC721Received",
      "outputs": [
        {
          "internalType": "bytes4",
          "name": "",
          "type": "bytes4"
        }
      ],
      "stateMutability": "nonpayable",
      "type": "function"
    },
    {
      "inputs": [
        {
          "internalType": "bytes32",
          "name": "role",
          "type": "bytes32"
        },
        {
          "internalType": "address",
          "name": "account",
          "type": "address"
        }
      ],
      "name": "renounceRole",
      "outputs": [],
      "stateMutability": "nonpayable",
      "type": "function"
    },
    {
      "inputs": [
        {
          "internalType": "bytes32",
          "name": "role",
          "type": "bytes32"
        },
        {
          "internalType": "address",
          "name": "account",
          "type": "address"
        }
      ],
      "name": "revokeRole",
      "outputs": [],
      "stateMutability": "nonpayable",
      "type": "function"
    },
    {
      "inputs": [],
      "name": "seedAddress",
      "outputs": [
        {
          "internalType": "address",
          "name": "",
          "type": "address"
        }
      ],
      "stateMutability": "view",
      "type": "function",
      "constant": true
    },
    {
      "inputs": [
        {
          "internalType": "uint32",
          "name": "",
          "type": "uint32"
        }
      ],
      "name": "teamInfos",
      "outputs": [
        {
          "internalType": "uint32",
          "name": "maxRandom",
          "type": "uint32"
        },
        {
          "internalType": "uint32",
          "name": "minRandom",
          "type": "uint32"
        }
      ],
      "stateMutability": "view",
      "type": "function",
      "constant": true
    },
    {
      "inputs": [
        {
          "internalType": "address",
          "name": "admin",
          "type": "address"
        },
        {
          "internalType": "address",
          "name": "_fwarCharAddress",
          "type": "address"
        },
        {
          "internalType": "address",
          "name": "_seedAddress",
          "type": "address"
        },
        {
          "internalType": "address",
          "name": "_fwarKeyAddress",
          "type": "address"
        }
      ],
      "name": "initialize",
      "outputs": [],
      "stateMutability": "payable",
      "type": "function",
      "payable": true
    },
    {
      "inputs": [
        {
          "internalType": "uint32[]",
          "name": "valuelist",
          "type": "uint32[]"
        }
      ],
      "name": "setRarity",
      "outputs": [],
      "stateMutability": "nonpayable",
      "type": "function"
    },
    {
      "inputs": [
        {
          "internalType": "uint32[]",
          "name": "valuelist",
          "type": "uint32[]"
        }
      ],
      "name": "setElement",
      "outputs": [],
      "stateMutability": "nonpayable",
      "type": "function"
    },
    {
      "inputs": [],
      "name": "getRarity",
      "outputs": [
        {
          "internalType": "uint32[]",
          "name": "",
          "type": "uint32[]"
        }
      ],
      "stateMutability": "view",
      "type": "function",
      "constant": true
    },
    {
      "inputs": [],
      "name": "getElement",
      "outputs": [
        {
          "internalType": "uint32[]",
          "name": "",
          "type": "uint32[]"
        }
      ],
      "stateMutability": "view",
      "type": "function",
      "constant": true
    },
    {
      "inputs": [
        {
          "internalType": "uint32",
          "name": "_teamId",
          "type": "uint32"
        }
      ],
      "name": "getTeamInfo",
      "outputs": [
        {
          "internalType": "uint32",
          "name": "maxRandom",
          "type": "uint32"
        },
        {
          "internalType": "uint32",
          "name": "minRandom",
          "type": "uint32"
        }
      ],
      "stateMutability": "view",
      "type": "function",
      "constant": true
    },
    {
      "inputs": [
        {
          "internalType": "uint32",
          "name": "_maxRandom",
          "type": "uint32"
        },
        {
          "internalType": "uint32",
          "name": "_minRandom",
          "type": "uint32"
        }
      ],
      "name": "addTeamInfo",
      "outputs": [],
      "stateMutability": "nonpayable",
      "type": "function"
    },
    {
      "inputs": [
        {
          "internalType": "uint32",
          "name": "_teamId",
          "type": "uint32"
        },
        {
          "internalType": "uint32",
          "name": "_maxRandom",
          "type": "uint32"
        },
        {
          "internalType": "uint32",
          "name": "_minRandom",
          "type": "uint32"
        }
      ],
      "name": "updateTeamInfo",
      "outputs": [],
      "stateMutability": "nonpayable",
      "type": "function"
    },
    {
      "inputs": [
        {
          "internalType": "uint32",
          "name": "_teamId",
          "type": "uint32"
        },
        {
          "internalType": "uint8",
          "name": "_rarity",
          "type": "uint8"
        },
        {
          "internalType": "uint32",
          "name": "_maxAttack",
          "type": "uint32"
        },
        {
          "internalType": "uint32",
          "name": "_minAttack",
          "type": "uint32"
        },
        {
          "internalType": "uint32",
          "name": "_maxDefense",
          "type": "uint32"
        },
        {
          "internalType": "uint32",
          "name": "_minDefense",
          "type": "uint32"
        },
        {
          "internalType": "uint32",
          "name": "_maxHealth",
          "type": "uint32"
        },
        {
          "internalType": "uint32",
          "name": "_minHealth",
          "type": "uint32"
        }
      ],
      "name": "updateCharStat",
      "outputs": [],
      "stateMutability": "nonpayable",
      "type": "function"
    },
    {
      "inputs": [
        {
          "internalType": "uint32",
          "name": "_teamId",
          "type": "uint32"
        },
        {
          "internalType": "uint8",
          "name": "_rarity",
          "type": "uint8"
        }
      ],
      "name": "getCharStat",
      "outputs": [
        {
          "internalType": "uint32",
          "name": "maxAttack",
          "type": "uint32"
        },
        {
          "internalType": "uint32",
          "name": "minAttack",
          "type": "uint32"
        },
        {
          "internalType": "uint32",
          "name": "maxDefense",
          "type": "uint32"
        },
        {
          "internalType": "uint32",
          "name": "minDefense",
          "type": "uint32"
        },
        {
          "internalType": "uint32",
          "name": "maxHealth",
          "type": "uint32"
        },
        {
          "internalType": "uint32",
          "name": "minHealth",
          "type": "uint32"
        }
      ],
      "stateMutability": "view",
      "type": "function",
      "constant": true
    },
    {
      "inputs": [
        {
          "internalType": "address",
          "name": "_seedAddress",
          "type": "address"
        }
      ],
      "name": "setSeedAddress",
      "outputs": [],
      "stateMutability": "nonpayable",
      "type": "function"
    },
    {
      "inputs": [
        {
          "internalType": "address",
          "name": "_fwarCharAddress",
          "type": "address"
        }
      ],
      "name": "setFwarCharAddress",
      "outputs": [],
      "stateMutability": "nonpayable",
      "type": "function"
    },
    {
      "inputs": [
        {
          "internalType": "address",
          "name": "_fwarKeyAddress",
          "type": "address"
        }
      ],
      "name": "setFwarKeyAddress",
      "outputs": [],
      "stateMutability": "nonpayable",
      "type": "function"
    },
    {
      "inputs": [
        {
          "internalType": "uint8",
          "name": "_ratity",
          "type": "uint8"
        },
        {
          "internalType": "uint8",
          "name": "_level",
          "type": "uint8"
        },
        {
          "internalType": "uint8",
          "name": "_junkAmount",
          "type": "uint8"
        },
        {
          "internalType": "uint8",
          "name": "_normalAmount",
          "type": "uint8"
        },
        {
          "internalType": "uint8",
          "name": "_rareAmount",
          "type": "uint8"
        },
        {
          "internalType": "uint8",
          "name": "_baseAmount",
          "type": "uint8"
        },
        {
          "internalType": "uint16",
          "name": "_percentConsume",
          "type": "uint16"
        },
        {
          "internalType": "uint16",
          "name": "_percentOnBase",
          "type": "uint16"
        }
      ],
      "name": "setBurnInfos",
      "outputs": [],
      "stateMutability": "nonpayable",
      "type": "function"
    },
    {
      "inputs": [
        {
          "internalType": "uint8",
          "name": "_ratity",
          "type": "uint8"
        },
        {
          "internalType": "uint8",
          "name": "_level",
          "type": "uint8"
        }
      ],
      "name": "getBurnInfo",
      "outputs": [
        {
          "internalType": "uint8",
          "name": "junkAmount",
          "type": "uint8"
        },
        {
          "internalType": "uint8",
          "name": "normalAmount",
          "type": "uint8"
        },
        {
          "internalType": "uint8",
          "name": "rareAmount",
          "type": "uint8"
        },
        {
          "internalType": "uint8",
          "name": "baseAmount",
          "type": "uint8"
        }
      ],
      "stateMutability": "view",
      "type": "function",
      "constant": true
    },
    {
      "inputs": [
        {
          "internalType": "address",
          "name": "user",
          "type": "address"
        },
        {
          "internalType": "uint256",
          "name": "number",
          "type": "uint256"
        }
      ],
      "name": "OpenItems",
      "outputs": [],
      "stateMutability": "nonpayable",
      "type": "function"
    },
    {
      "inputs": [
        {
          "internalType": "uint32",
          "name": "_mainNFTId",
          "type": "uint32"
        },
        {
          "internalType": "uint32[]",
          "name": "_burnedNfts",
          "type": "uint32[]"
        }
      ],
      "name": "upgrade",
      "outputs": [],
      "stateMutability": "nonpayable",
      "type": "function"
    }
  ],
  "bytecode": "0x608060405234801561001057600080fd5b506156c6806100206000396000f3fe6080604052600436106102045760003560e01c806362339bc411610118578063b3d371fa116100a0578063d33f79781161006f578063d33f797814610ec8578063d4da7ff814610f09578063d547741f14610fb2578063e81975951461100d578063f8c8765e1461109d57610204565b8063b3d371fa14610d78578063b95c238614610dcd578063ca15c87314610e1e578063d0ba7dc814610e6d57610204565b806382e9aa8e116100e757806382e9aa8e14610bdb5780639010d07c14610c1c5780639130736814610c8b57806391d1485414610cdc578063a217fddf14610d4d57610204565b806362339bc4146109cd5780636a88c78614610a5357806378b723b014610ae95780637b32cdba14610b6f57610204565b8063294838f81161019b5780633ea7d1791161016a5780633ea7d179146107a75780633f32804314610813578063425c3dbd146108af57806354bda05e146109105780635fbd28481461096557610204565b8063294838f8146105f15780632d4fd0e2146106a05780632f2ff15d146106f157806336568abe1461074c57610204565b806316b6224b116101d757806316b6224b146104875780631dda884a146104b8578063248a9ca31461056157806325ea85c5146105b057610204565b80630205fd22146102095780630c7a465914610271578063118eeae4146102f1578063150b7a0214610342575b600080fd5b34801561021557600080fd5b506102486004803603602081101561022c57600080fd5b81019080803563ffffffff169060200190929190505050611141565b604051808363ffffffff1681526020018263ffffffff1681526020019250505060405180910390f35b34801561027d57600080fd5b506102ba6004803603604081101561029457600080fd5b81019080803560ff169060200190929190803560ff169060200190929190505050611185565b604051808560ff1681526020018460ff1681526020018360ff1681526020018260ff16815260200194505050505060405180910390f35b3480156102fd57600080fd5b506103406004803603602081101561031457600080fd5b81019080803573ffffffffffffffffffffffffffffffffffffffff169060200190929190505050611288565b005b34801561034e57600080fd5b506104526004803603608081101561036557600080fd5b81019080803573ffffffffffffffffffffffffffffffffffffffff169060200190929190803573ffffffffffffffffffffffffffffffffffffffff16906020019092919080359060200190929190803590602001906401000000008111156103cc57600080fd5b8201836020820111156103de57600080fd5b8035906020019184600183028401116401000000008311171561040057600080fd5b91908080601f016020809104026020016040519081016040528093929190818152602001838380828437600081840152601f19601f820116905080830192505050505050509192919290505050611352565b60405180827bffffffffffffffffffffffffffffffffffffffffffffffffffffffff1916815260200191505060405180910390f35b34801561049357600080fd5b5061049c611366565b604051808263ffffffff16815260200191505060405180910390f35b3480156104c457600080fd5b50610504600480360360408110156104db57600080fd5b81019080803563ffffffff169060200190929190803560ff16906020019092919050505061137c565b604051808763ffffffff1681526020018663ffffffff1681526020018563ffffffff1681526020018463ffffffff1681526020018363ffffffff1681526020018263ffffffff168152602001965050505050505060405180910390f35b34801561056d57600080fd5b5061059a6004803603602081101561058457600080fd5b8101908080359060200190929190505050611425565b6040518082815260200191505060405180910390f35b3480156105bc57600080fd5b506105c5611445565b604051808273ffffffffffffffffffffffffffffffffffffffff16815260200191505060405180910390f35b3480156105fd57600080fd5b5061069e600480360361010081101561061557600080fd5b81019080803563ffffffff169060200190929190803560ff169060200190929190803563ffffffff169060200190929190803563ffffffff169060200190929190803563ffffffff169060200190929190803563ffffffff169060200190929190803563ffffffff169060200190929190803563ffffffff16906020019092919050505061146b565b005b3480156106ac57600080fd5b506106ef600480360360208110156106c357600080fd5b81019080803573ffffffffffffffffffffffffffffffffffffffff16906020019092919050505061170b565b005b3480156106fd57600080fd5b5061074a6004803603604081101561071457600080fd5b8101908080359060200190929190803573ffffffffffffffffffffffffffffffffffffffff1690602001909291905050506117d5565b005b34801561075857600080fd5b506107a56004803603604081101561076f57600080fd5b8101908080359060200190929190803573ffffffffffffffffffffffffffffffffffffffff16906020019092919050505061185f565b005b3480156107b357600080fd5b506107bc6118f8565b6040518080602001828103825283818151815260200191508051906020019060200280838360005b838110156107ff5780820151818401526020810190506107e4565b505050509050019250505060405180910390f35b34801561081f57600080fd5b506108ad600480360361010081101561083757600080fd5b81019080803560ff169060200190929190803560ff169060200190929190803560ff169060200190929190803560ff169060200190929190803560ff169060200190929190803560ff169060200190929190803561ffff169060200190929190803561ffff16906020019092919050505061197c565b005b3480156108bb57600080fd5b5061090e600480360360608110156108d257600080fd5b81019080803563ffffffff169060200190929190803563ffffffff169060200190929190803563ffffffff169060200190929190505050611c2e565b005b34801561091c57600080fd5b506109496004803603602081101561093357600080fd5b8101908080359060200190929190505050611d3b565b604051808263ffffffff16815260200191505060405180910390f35b34801561097157600080fd5b506109a46004803603602081101561098857600080fd5b81019080803563ffffffff169060200190929190505050611d72565b604051808363ffffffff1681526020018263ffffffff1681526020019250505060405180910390f35b3480156109d957600080fd5b50610a51600480360360208110156109f057600080fd5b8101908080359060200190640100000000811115610a0d57600080fd5b820183602082011115610a1f57600080fd5b80359060200191846020830284011164010000000083111715610a4157600080fd5b9091929391929390505050611de4565b005b348015610a5f57600080fd5b50610ae760048036036040811015610a7657600080fd5b81019080803563ffffffff16906020019092919080359060200190640100000000811115610aa357600080fd5b820183602082011115610ab557600080fd5b80359060200191846020830284011164010000000083111715610ad757600080fd5b9091929391929390505050611e80565b005b348015610af557600080fd5b50610b6d60048036036020811015610b0c57600080fd5b8101908080359060200190640100000000811115610b2957600080fd5b820183602082011115610b3b57600080fd5b80359060200191846020830284011164010000000083111715610b5d57600080fd5b9091929391929390505050612713565b005b348015610b7b57600080fd5b50610b846127af565b6040518080602001828103825283818151815260200191508051906020019060200280838360005b83811015610bc7578082015181840152602081019050610bac565b505050509050019250505060405180910390f35b348015610be757600080fd5b50610bf0612833565b604051808273ffffffffffffffffffffffffffffffffffffffff16815260200191505060405180910390f35b348015610c2857600080fd5b50610c5f60048036036040811015610c3f57600080fd5b810190808035906020019092919080359060200190929190505050612859565b604051808273ffffffffffffffffffffffffffffffffffffffff16815260200191505060405180910390f35b348015610c9757600080fd5b50610cda60048036036020811015610cae57600080fd5b81019080803573ffffffffffffffffffffffffffffffffffffffff16906020019092919050505061288b565b005b348015610ce857600080fd5b50610d3560048036036040811015610cff57600080fd5b8101908080359060200190929190803573ffffffffffffffffffffffffffffffffffffffff169060200190929190505050612955565b60405180821515815260200191505060405180910390f35b348015610d5957600080fd5b50610d62612987565b6040518082815260200191505060405180910390f35b348015610d8457600080fd5b50610db160048036036020811015610d9b57600080fd5b810190808035906020019092919050505061298e565b604051808263ffffffff16815260200191505060405180910390f35b348015610dd957600080fd5b50610e1c60048036036040811015610df057600080fd5b81019080803563ffffffff169060200190929190803563ffffffff1690602001909291905050506129c5565b005b348015610e2a57600080fd5b50610e5760048036036020811015610e4157600080fd5b8101908080359060200190929190505050612b35565b6040518082815260200191505060405180910390f35b348015610e7957600080fd5b50610ec660048036036040811015610e9057600080fd5b81019080803573ffffffffffffffffffffffffffffffffffffffff16906020019092919080359060200190929190505050612b5c565b005b348015610ed457600080fd5b50610edd613233565b604051808273ffffffffffffffffffffffffffffffffffffffff16815260200191505060405180910390f35b348015610f1557600080fd5b50610f5560048036036040811015610f2c57600080fd5b81019080803563ffffffff169060200190929190803560ff169060200190929190505050613259565b604051808763ffffffff1681526020018663ffffffff1681526020018563ffffffff1681526020018463ffffffff1681526020018363ffffffff1681526020018263ffffffff168152602001965050505050505060405180910390f35b348015610fbe57600080fd5b5061100b60048036036040811015610fd557600080fd5b8101908080359060200190929190803573ffffffffffffffffffffffffffffffffffffffff169060200190929190505050613434565b005b34801561101957600080fd5b506110506004803603604081101561103057600080fd5b8101908080359060200190929190803590602001909291905050506134be565b604051808760ff1681526020018660ff1681526020018560ff1681526020018460ff1681526020018361ffff1681526020018261ffff168152602001965050505050505060405180910390f35b61113f600480360360808110156110b357600080fd5b81019080803573ffffffffffffffffffffffffffffffffffffffff169060200190929190803573ffffffffffffffffffffffffffffffffffffffff169060200190929190803573ffffffffffffffffffffffffffffffffffffffff169060200190929190803573ffffffffffffffffffffffffffffffffffffffff169060200190929190505050613557565b005b60036020528060005260406000206000915090508060000160009054906101000a900463ffffffff16908060000160049054906101000a900463ffffffff16905082565b600080600080600b60008760ff16815260200190815260200160002060008660ff16815260200190815260200160002060000160009054906101000a900460ff169350600b60008760ff16815260200190815260200160002060008660ff16815260200190815260200160002060000160019054906101000a900460ff169250600b60008760ff16815260200190815260200160002060008660ff16815260200190815260200160002060000160029054906101000a900460ff169150600b60008760ff16815260200190815260200160002060008660ff16815260200190815260200160002060000160039054906101000a900460ff16905092959194509250565b61129c6000801b61129761374c565b612955565b61130e576040517f08c379a00000000000000000000000000000000000000000000000000000000081526004018080602001828103825260168152602001807f41646d696e20726f6c652069732072657175697265640000000000000000000081525060200191505060405180910390fd5b80600560006101000a81548173ffffffffffffffffffffffffffffffffffffffff021916908373ffffffffffffffffffffffffffffffffffffffff16021790555050565b600063150b7a0260e01b9050949350505050565b600260009054906101000a900463ffffffff1681565b6004602052816000526040600020602052806000526040600020600091509150508060000160009054906101000a900463ffffffff16908060000160049054906101000a900463ffffffff16908060000160089054906101000a900463ffffffff169080600001600c9054906101000a900463ffffffff16908060000160109054906101000a900463ffffffff16908060000160149054906101000a900463ffffffff16905086565b600060016000838152602001908152602001600020600201549050919050565b600660009054906101000a900473ffffffffffffffffffffffffffffffffffffffff1681565b61147f6000801b61147a61374c565b612955565b6114f1576040517f08c379a00000000000000000000000000000000000000000000000000000000081526004018080602001828103825260168152602001807f41646d696e20726f6c652069732072657175697265640000000000000000000081525060200191505060405180910390fd5b85600460008a63ffffffff1663ffffffff16815260200190815260200160002060008960ff1660ff16815260200190815260200160002060000160006101000a81548163ffffffff021916908363ffffffff16021790555084600460008a63ffffffff1663ffffffff16815260200190815260200160002060008960ff1660ff16815260200190815260200160002060000160046101000a81548163ffffffff021916908363ffffffff16021790555083600460008a63ffffffff1663ffffffff16815260200190815260200160002060008960ff1660ff16815260200190815260200160002060000160086101000a81548163ffffffff021916908363ffffffff16021790555082600460008a63ffffffff1663ffffffff16815260200190815260200160002060008960ff1660ff168152602001908152602001600020600001600c6101000a81548163ffffffff021916908363ffffffff16021790555081600460008a63ffffffff1663ffffffff16815260200190815260200160002060008960ff1660ff16815260200190815260200160002060000160106101000a81548163ffffffff021916908363ffffffff16021790555080600460008a63ffffffff1663ffffffff16815260200190815260200160002060008960ff1660ff16815260200190815260200160002060000160146101000a81548163ffffffff021916908363ffffffff1602179055505050505050505050565b61171f6000801b61171a61374c565b612955565b611791576040517f08c379a00000000000000000000000000000000000000000000000000000000081526004018080602001828103825260168152602001807f41646d696e20726f6c652069732072657175697265640000000000000000000081525060200191505060405180910390fd5b80600760006101000a81548173ffffffffffffffffffffffffffffffffffffffff021916908373ffffffffffffffffffffffffffffffffffffffff16021790555050565b6117fc60016000848152602001908152602001600020600201546117f761374c565b612955565b611851576040517f08c379a000000000000000000000000000000000000000000000000000000000815260040180806020018281038252602f81526020018061549c602f913960400191505060405180910390fd5b61185b8282613754565b5050565b61186761374c565b73ffffffffffffffffffffffffffffffffffffffff168173ffffffffffffffffffffffffffffffffffffffff16146118ea576040517f08c379a000000000000000000000000000000000000000000000000000000000815260040180806020018281038252602f815260200180615662602f913960400191505060405180910390fd5b6118f482826137e8565b5050565b6060600980548060200260200160405190810160405280929190818152602001828054801561197257602002820191906000526020600020906000905b82829054906101000a900463ffffffff1663ffffffff16815260200190600401906020826003010492830192600103820291508084116119355790505b5050505050905090565b6119906000801b61198b61374c565b612955565b611a02576040517f08c379a00000000000000000000000000000000000000000000000000000000081526004018080602001828103825260168152602001807f41646d696e20726f6c652069732072657175697265640000000000000000000081525060200191505060405180910390fd5b60048860ff161015611a7c576040517f08c379a000000000000000000000000000000000000000000000000000000000815260040180806020018281038252601a8152602001807f526172697479206d7573742067726561746572207468616e203300000000000081525060200191505060405180910390fd5b85600b60008a60ff16815260200190815260200160002060008960ff16815260200190815260200160002060000160006101000a81548160ff021916908360ff16021790555084600b60008a60ff16815260200190815260200160002060008960ff16815260200190815260200160002060000160016101000a81548160ff021916908360ff16021790555083600b60008a60ff16815260200190815260200160002060008960ff16815260200190815260200160002060000160026101000a81548160ff021916908360ff16021790555082600b60008a60ff16815260200190815260200160002060008960ff16815260200190815260200160002060000160036101000a81548160ff021916908360ff16021790555081600b60008a60ff16815260200190815260200160002060008960ff16815260200190815260200160002060000160046101000a81548161ffff021916908361ffff16021790555080600b60008a60ff16815260200190815260200160002060008960ff16815260200190815260200160002060000160066101000a81548161ffff021916908361ffff1602179055505050505050505050565b611c426000801b611c3d61374c565b612955565b611cb4576040517f08c379a00000000000000000000000000000000000000000000000000000000081526004018080602001828103825260168152602001807f41646d696e20726f6c652069732072657175697265640000000000000000000081525060200191505060405180910390fd5b81600360008563ffffffff1663ffffffff16815260200190815260200160002060000160006101000a81548163ffffffff021916908363ffffffff16021790555080600360008563ffffffff1663ffffffff16815260200190815260200160002060000160046101000a81548163ffffffff021916908363ffffffff160217905550505050565b60098181548110611d4857fe5b9060005260206000209060089182820401919006600402915054906101000a900463ffffffff1681565b600080600360008463ffffffff1663ffffffff16815260200190815260200160002060000160009054906101000a900463ffffffff169150600360008463ffffffff1663ffffffff16815260200190815260200160002060000160049054906101000a900463ffffffff169050915091565b611df86000801b611df361374c565b612955565b611e6a576040517f08c379a00000000000000000000000000000000000000000000000000000000081526004018080602001828103825260168152602001807f41646d696e20726f6c652069732072657175697265640000000000000000000081525060200191505060405180910390fd5b818160089190611e7b9291906152f0565b505050565b3273ffffffffffffffffffffffffffffffffffffffff16611e9f61374c565b73ffffffffffffffffffffffffffffffffffffffff1614611f0b576040517f08c379a000000000000000000000000000000000000000000000000000000000815260040180806020018281038252602c81526020018061560e602c913960400191505060405180910390fd5b60008363ffffffff161415611f6b576040517f08c379a00000000000000000000000000000000000000000000000000000000081526004018080602001828103825260228152602001806155cb6022913960400191505060405180910390fd5b611f7361374c565b73ffffffffffffffffffffffffffffffffffffffff16600560009054906101000a900473ffffffffffffffffffffffffffffffffffffffff1673ffffffffffffffffffffffffffffffffffffffff16636352211e856040518263ffffffff1660e01b8152600401808263ffffffff16815260200191505060206040518083038186803b15801561200257600080fd5b505afa158015612016573d6000803e3d6000fd5b505050506040513d602081101561202c57600080fd5b810190808051906020019092919050505073ffffffffffffffffffffffffffffffffffffffff16146120a9576040517f08c379a00000000000000000000000000000000000000000000000000000000081526004018080602001828103825260288152602001806155246028913960400191505060405180910390fd5b6120b16153a6565b6120ba8461387c565b905060016120ce826020015160ff16613a08565b14612141576040517f08c379a00000000000000000000000000000000000000000000000000000000081526004018080602001828103825260138152602001807f4e46542063616e206e6f7420757067726164650000000000000000000000000081525060200191505060405180910390fd5b600080600061219184878780806020026020016040519081016040528093929190818152602001838360200280828437600081840152601f19601f82011690508083019250505050505050613a1c565b92509250925060005b8686905081101561225d57600560009054906101000a900473ffffffffffffffffffffffffffffffffffffffff1673ffffffffffffffffffffffffffffffffffffffff16637a5984c48888848181106121ef57fe5b9050602002013563ffffffff166040518263ffffffff1660e01b8152600401808263ffffffff168152602001915050600060405180830381600087803b15801561223857600080fd5b505af115801561224c573d6000803e3d6000fd5b50505050808060010191505061219a565b506000600b6000866020015160ff1681526020019081526020016000206000866000015160ff16815260200190815260200160002060000160049054906101000a900461ffff1690506000600b6000876020015160ff1681526020019081526020016000206000876000015160ff16815260200190815260200160002060000160069054906101000a900461ffff1690506123b361233c600a60009054906101000a900463ffffffff166123288561ffff168a6080015163ffffffff1661422a90919063ffffffff16565b63ffffffff166142ce90919063ffffffff16565b61239f612386600a60009054906101000a900463ffffffff166123728661ffff168b63ffffffff1661422a90919063ffffffff16565b63ffffffff166142ce90919063ffffffff16565b8960e0015163ffffffff1661436f90919063ffffffff16565b63ffffffff1661436f90919063ffffffff16565b8660e0019063ffffffff16908163ffffffff1681525050612490612418600a60009054906101000a900463ffffffff166124048561ffff168a60a0015163ffffffff1661422a90919063ffffffff16565b63ffffffff166142ce90919063ffffffff16565b61247c612462600a60009054906101000a900463ffffffff1661244e8661ffff168a63ffffffff1661422a90919063ffffffff16565b63ffffffff166142ce90919063ffffffff16565b89610100015163ffffffff1661436f90919063ffffffff16565b63ffffffff1661436f90919063ffffffff16565b86610100019063ffffffff16908163ffffffff168152505061256e6124f6600a60009054906101000a900463ffffffff166124e28561ffff168a60c0015163ffffffff1661422a90919063ffffffff16565b63ffffffff166142ce90919063ffffffff16565b61255a612540600a60009054906101000a900463ffffffff1661252c8661ffff168963ffffffff1661422a90919063ffffffff16565b63ffffffff166142ce90919063ffffffff16565b89610120015163ffffffff1661436f90919063ffffffff16565b63ffffffff1661436f90919063ffffffff16565b86610120019063ffffffff16908163ffffffff1681525050600560009054906101000a900473ffffffffffffffffffffffffffffffffffffffff1673ffffffffffffffffffffffffffffffffffffffff166379cd6f638a6125e060018a6000015160ff1661440390919063ffffffff16565b8960e001518a61010001518b61012001516040518663ffffffff1660e01b8152600401808663ffffffff1681526020018560ff1681526020018463ffffffff1681526020018363ffffffff1681526020018263ffffffff16815260200195505050505050600060405180830381600087803b15801561265e57600080fd5b505af1158015612672573d6000803e3d6000fd5b5050505061267e61374c565b73ffffffffffffffffffffffffffffffffffffffff167f4e5b306004d35fd69e57fb8afce15045c9a721a1b8652b1dd9a8136403e71d568a8a8a604051808463ffffffff168152602001806020018281038252848482818152602001925060200280828437600081840152601f19601f82011690508083019250505094505050505060405180910390a2505050505050505050565b6127276000801b61272261374c565b612955565b612799576040517f08c379a00000000000000000000000000000000000000000000000000000000081526004018080602001828103825260168152602001807f41646d696e20726f6c652069732072657175697265640000000000000000000081525060200191505060405180910390fd5b8181600991906127aa9291906152f0565b505050565b6060600880548060200260200160405190810160405280929190818152602001828054801561282957602002820191906000526020600020906000905b82829054906101000a900463ffffffff1663ffffffff16815260200190600401906020826003010492830192600103820291508084116127ec5790505b5050505050905090565b600560009054906101000a900473ffffffffffffffffffffffffffffffffffffffff1681565b6000612883826001600086815260200190815260200160002060000161449190919063ffffffff16565b905092915050565b61289f6000801b61289a61374c565b612955565b612911576040517f08c379a00000000000000000000000000000000000000000000000000000000081526004018080602001828103825260168152602001807f41646d696e20726f6c652069732072657175697265640000000000000000000081525060200191505060405180910390fd5b80600660006101000a81548173ffffffffffffffffffffffffffffffffffffffff021916908373ffffffffffffffffffffffffffffffffffffffff16021790555050565b600061297f82600160008681526020019081526020016000206000016144ab90919063ffffffff16565b905092915050565b6000801b81565b6008818154811061299b57fe5b9060005260206000209060089182820401919006600402915054906101000a900463ffffffff1681565b6129d96000801b6129d461374c565b612955565b612a4b576040517f08c379a00000000000000000000000000000000000000000000000000000000081526004018080602001828103825260168152602001807f41646d696e20726f6c652069732072657175697265640000000000000000000081525060200191505060405180910390fd5b6000600260009054906101000a900463ffffffff16905082600360008363ffffffff1663ffffffff16815260200190815260200160002060000160006101000a81548163ffffffff021916908363ffffffff16021790555081600360008363ffffffff1663ffffffff16815260200190815260200160002060000160046101000a81548163ffffffff021916908363ffffffff160217905550612b106001600260009054906101000a900463ffffffff1663ffffffff1661436f90919063ffffffff16565b600260006101000a81548163ffffffff021916908363ffffffff160217905550505050565b6000612b55600160008481526020019081526020016000206000016144db565b9050919050565b3273ffffffffffffffffffffffffffffffffffffffff16612b7b61374c565b73ffffffffffffffffffffffffffffffffffffffff1614612c04576040517f08c379a000000000000000000000000000000000000000000000000000000000815260040180806020018281038252601a8152602001807f63616e206e6f742063616c6c2066726f6d20636f6e747261637400000000000081525060200191505060405180910390fd5b600081118015612c145750600b81105b612c69576040517f08c379a00000000000000000000000000000000000000000000000000000000081526004018080602001828103825260368152602001806154cb6036913960400191505060405180910390fd5b600660009054906101000a900473ffffffffffffffffffffffffffffffffffffffff1673ffffffffffffffffffffffffffffffffffffffff166323b872dd612caf61374c565b30612ccb670de0b6b3a7640000866144f090919063ffffffff16565b6040518463ffffffff1660e01b8152600401808473ffffffffffffffffffffffffffffffffffffffff1681526020018373ffffffffffffffffffffffffffffffffffffffff1681526020018281526020019350505050602060405180830381600087803b158015612d3b57600080fd5b505af1158015612d4f573d6000803e3d6000fd5b505050506040513d6020811015612d6557600080fd5b810190808051906020019092919050505050600660009054906101000a900473ffffffffffffffffffffffffffffffffffffffff1673ffffffffffffffffffffffffffffffffffffffff16639dc29fac30612dd1670de0b6b3a7640000856144f090919063ffffffff16565b6040518363ffffffff1660e01b8152600401808373ffffffffffffffffffffffffffffffffffffffff16815260200182815260200192505050600060405180830381600087803b158015612e2457600080fd5b505af1158015612e38573d6000803e3d6000fd5b5050505060608167ffffffffffffffff81118015612e5557600080fd5b50604051908082528060200260200182016040528015612e8f57816020015b612e7c61542c565b815260200190600190039081612e745790505b50905060005b82811015613157576000600760009054906101000a900473ffffffffffffffffffffffffffffffffffffffff1673ffffffffffffffffffffffffffffffffffffffff166339e7357c6040518163ffffffff1660e01b8152600401602060405180830381600087803b158015612f0957600080fd5b505af1158015612f1d573d6000803e3d6000fd5b505050506040513d6020811015612f3357600080fd5b81019080805190602001909291905050509050612f4e6153a6565b612f588683614576565b9050600560009054906101000a900473ffffffffffffffffffffffffffffffffffffffff1673ffffffffffffffffffffffffffffffffffffffff16631dea667c878484600001518560200151866040015187606001518860e001518961010001518a61012001516040518a63ffffffff1660e01b8152600401808a73ffffffffffffffffffffffffffffffffffffffff1681526020018963ffffffff1681526020018860ff1681526020018760ff1681526020018660ff1681526020018563ffffffff1681526020018463ffffffff1681526020018363ffffffff1681526020018263ffffffff1681526020019950505050505050505050600060405180830381600087803b15801561306a57600080fd5b505af115801561307e573d6000803e3d6000fd5b505050508163ffffffff1684848151811061309557fe5b60200260200101516000600481106130a957fe5b602002018181525050806020015160ff168484815181106130c657fe5b60200260200101516001600481106130da57fe5b602002018181525050806040015160ff168484815181106130f757fe5b602002602001015160026004811061310b57fe5b602002018181525050806060015163ffffffff1684848151811061312b57fe5b602002602001015160036004811061313f57fe5b60200201818152505050508080600101915050612e95565b508273ffffffffffffffffffffffffffffffffffffffff1661317761374c565b73ffffffffffffffffffffffffffffffffffffffff167f2520f28f6570e1738d318e1de9087d63b309b58f3f4043700b08cb9f99e33446838560405180806020018381526020018281038252848181518152602001915080516000925b8184101561321d5782846020026020010151600460200280838360005b8381101561320c5780820151818401526020810190506131f1565b5050505090500192600101926131d4565b92505050935050505060405180910390a3505050565b600760009054906101000a900473ffffffffffffffffffffffffffffffffffffffff1681565b600080600080600080600460008963ffffffff1663ffffffff16815260200190815260200160002060008860ff1660ff16815260200190815260200160002060000160009054906101000a900463ffffffff169550600460008963ffffffff1663ffffffff16815260200190815260200160002060008860ff1660ff16815260200190815260200160002060000160049054906101000a900463ffffffff169450600460008963ffffffff1663ffffffff16815260200190815260200160002060008860ff1660ff16815260200190815260200160002060000160089054906101000a900463ffffffff169350600460008963ffffffff1663ffffffff16815260200190815260200160002060008860ff1660ff168152602001908152602001600020600001600c9054906101000a900463ffffffff169250600460008963ffffffff1663ffffffff16815260200190815260200160002060008860ff1660ff16815260200190815260200160002060000160109054906101000a900463ffffffff169150600460008963ffffffff1663ffffffff16815260200190815260200160002060008860ff1660ff16815260200190815260200160002060000160149054906101000a900463ffffffff1690509295509295509295565b61345b600160008481526020019081526020016000206002015461345661374c565b612955565b6134b0576040517f08c379a000000000000000000000000000000000000000000000000000000000815260040180806020018281038252603081526020018061556d6030913960400191505060405180910390fd5b6134ba82826137e8565b5050565b600b602052816000526040600020602052806000526040600020600091509150508060000160009054906101000a900460ff16908060000160019054906101000a900460ff16908060000160029054906101000a900460ff16908060000160039054906101000a900460ff16908060000160049054906101000a900461ffff16908060000160069054906101000a900461ffff16905086565b600060019054906101000a900460ff16806135765750613575614b77565b5b8061358c575060008054906101000a900460ff16155b6135e1576040517f08c379a000000000000000000000000000000000000000000000000000000000815260040180806020018281038252602e81526020018061559d602e913960400191505060405180910390fd5b60008060019054906101000a900460ff161590508015613631576001600060016101000a81548160ff02191690831515021790555060016000806101000a81548160ff0219169083151502179055505b61363e6000801b86614b88565b83600560006101000a81548173ffffffffffffffffffffffffffffffffffffffff021916908373ffffffffffffffffffffffffffffffffffffffff16021790555082600760006101000a81548173ffffffffffffffffffffffffffffffffffffffff021916908373ffffffffffffffffffffffffffffffffffffffff16021790555081600660006101000a81548173ffffffffffffffffffffffffffffffffffffffff021916908373ffffffffffffffffffffffffffffffffffffffff1602179055506103e8600a60006101000a81548163ffffffff021916908363ffffffff16021790555080156137455760008060016101000a81548160ff0219169083151502179055505b5050505050565b600033905090565b61377c8160016000858152602001908152602001600020600001614b9690919063ffffffff16565b156137e45761378961374c565b73ffffffffffffffffffffffffffffffffffffffff168173ffffffffffffffffffffffffffffffffffffffff16837f2f8788117e7eff1d82e926ec794901d17c78024a50270940304540a733656f0d60405160405180910390a45b5050565b6138108160016000858152602001908152602001600020600001614bc690919063ffffffff16565b156138785761381d61374c565b73ffffffffffffffffffffffffffffffffffffffff168173ffffffffffffffffffffffffffffffffffffffff16837ff6391f5c32d9c69d2a47ea670b442974b53935d1edc7fd64eb21e047a839171b60405160405180910390a45b5050565b6138846153a6565b600560009054906101000a900473ffffffffffffffffffffffffffffffffffffffff1673ffffffffffffffffffffffffffffffffffffffff16637d37048c836040518263ffffffff1660e01b8152600401808263ffffffff16815260200191505060e06040518083038186803b1580156138fd57600080fd5b505afa158015613911573d6000803e3d6000fd5b505050506040513d60e081101561392757600080fd5b81019080805190602001909291908051906020019092919080519060200190929190805190602001909291908051906020019092919080519060200190929190805190602001909291905050508760000188602001896040018a6060018b60e0018c610100018d610120018763ffffffff1663ffffffff168152508763ffffffff1663ffffffff168152508763ffffffff1663ffffffff168152508763ffffffff1663ffffffff168152508760ff1660ff168152508760ff1660ff168152508760ff1660ff1681525050505050505050613a018282614bf6565b9050919050565b600060048210613a1757600190505b919050565b600080600080600080600080600090505b8851811015613f2a576000898281518110613a4457fe5b602002602001015163ffffffff161415613ac6576040517f08c379a00000000000000000000000000000000000000000000000000000000081526004018080602001828103825260128152602001807f6275726e6564204e46544964206572726f72000000000000000000000000000081525060200191505060405180910390fd5b613ace61374c565b73ffffffffffffffffffffffffffffffffffffffff16600560009054906101000a900473ffffffffffffffffffffffffffffffffffffffff1673ffffffffffffffffffffffffffffffffffffffff16636352211e8b8481518110613b2e57fe5b60200260200101516040518263ffffffff1660e01b8152600401808263ffffffff16815260200191505060206040518083038186803b158015613b7057600080fd5b505afa158015613b84573d6000803e3d6000fd5b505050506040513d6020811015613b9a57600080fd5b810190808051906020019092919050505073ffffffffffffffffffffffffffffffffffffffff1614613c17576040517f08c379a00000000000000000000000000000000000000000000000000000000081526004018080602001828103825260288152602001806155246028913960400191505060405180910390fd5b613c1f6153a6565b613c3b8a8381518110613c2e57fe5b602002602001015161387c565b9050806060015163ffffffff168b6060015163ffffffff1614613cc6576040517f08c379a00000000000000000000000000000000000000000000000000000000081526004018080602001828103825260208152602001807f4275726e6564204e46542073686f756c6420686176652073616d65207465616d81525060200191505060405180910390fd5b806040015160ff168b6040015160ff1614613d2c576040517f08c379a00000000000000000000000000000000000000000000000000000000081526004018080602001828103825260238152602001806155016023913960400191505060405180910390fd5b6001816020015160ff161415613d5657613d5360018760ff1661440390919063ffffffff16565b95505b6002816020015160ff161415613d8057613d7d60018660ff1661440390919063ffffffff16565b94505b6003816020015160ff161415613daa57613da760018560ff1661440390919063ffffffff16565b93505b8a6020015160ff16816020015160ff161415613f1c57613ddd8160e001518a63ffffffff1661436f90919063ffffffff16565b9850613dfd8161010001518963ffffffff1661436f90919063ffffffff16565b9750613e1d8161012001518863ffffffff1661436f90919063ffffffff16565b9650613e3660018460ff1661440390919063ffffffff16565b9250601e8b6000015160ff161015613eb457806000015160ff168b6000015160ff161015613eaf576040517f08c379a000000000000000000000000000000000000000000000000000000000815260040180806020018281038252602881526020018061563a6028913960400191505060405180910390fd5b613f1b565b806000015160ff168b6000015160ff1614613f1a576040517f08c379a000000000000000000000000000000000000000000000000000000000815260040180806020018281038252602181526020018061554c6021913960400191505060405180910390fd5b5b5b508080600101915050613a2d565b508360ff16600b60008b6020015160ff16815260200190815260200160002060008b6000015160ff16815260200190815260200160002060000160009054906101000a900460ff1660ff1614613fe8576040517f08c379a000000000000000000000000000000000000000000000000000000000815260040180806020018281038252601b8152602001807f616d6f756e74206f66206a756e6b20697320696e636f7272656374000000000081525060200191505060405180910390fd5b8260ff16600b60008b6020015160ff16815260200190815260200160002060008b6000015160ff16815260200190815260200160002060000160019054906101000a900460ff1660ff16146140a5576040517f08c379a000000000000000000000000000000000000000000000000000000000815260040180806020018281038252601d8152602001807f616d6f756e74206f66206e6f726d616c20697320696e636f727265637400000081525060200191505060405180910390fd5b8160ff16600b60008b6020015160ff16815260200190815260200160002060008b6000015160ff16815260200190815260200160002060000160029054906101000a900460ff1660ff1614614162576040517f08c379a000000000000000000000000000000000000000000000000000000000815260040180806020018281038252601b8152602001807f616d6f756e74206f66207261726520697320696e636f7272656374000000000081525060200191505060405180910390fd5b8060ff16600b60008b6020015160ff16815260200190815260200160002060008b6000015160ff16815260200190815260200160002060000160039054906101000a900460ff1660ff161461421f576040517f08c379a000000000000000000000000000000000000000000000000000000000815260040180806020018281038252601b8152602001807f616d6f756e74206f66206261736520697320696e636f7272656374000000000081525060200191505060405180910390fd5b505050509250925092565b6000808363ffffffff16141561424357600090506142c8565b600082840290508263ffffffff168463ffffffff168263ffffffff168161426657fe5b0463ffffffff16146142c3576040517f08c379a00000000000000000000000000000000000000000000000000000000081526004018080602001828103825260218152602001806155ed6021913960400191505060405180910390fd5b809150505b92915050565b6000808263ffffffff161161434b576040517f08c379a000000000000000000000000000000000000000000000000000000000815260040180806020018281038252601a8152602001807f536166654d6174683a206469766973696f6e206279207a65726f00000000000081525060200191505060405180910390fd5b60008263ffffffff168463ffffffff168161436257fe5b0490508091505092915050565b60008082840190508363ffffffff168163ffffffff1610156143f9576040517f08c379a000000000000000000000000000000000000000000000000000000000815260040180806020018281038252601b8152602001807f536166654d6174683a206164646974696f6e206f766572666c6f77000000000081525060200191505060405180910390fd5b8091505092915050565b60008082840190508360ff168160ff161015614487576040517f08c379a000000000000000000000000000000000000000000000000000000000815260040180806020018281038252601b8152602001807f536166654d6174683a206164646974696f6e206f766572666c6f77000000000081525060200191505060405180910390fd5b8091505092915050565b60006144a08360000183614d0e565b60001c905092915050565b60006144d3836000018373ffffffffffffffffffffffffffffffffffffffff1660001b614d91565b905092915050565b60006144e982600001614db4565b9050919050565b6000808314156145035760009050614570565b600082840290508284828161451457fe5b041461456b576040517f08c379a00000000000000000000000000000000000000000000000000000000081526004018080602001828103825260218152602001806155ed6021913960400191505060405180910390fd5b809150505b92915050565b61457e6153a6565b6000614594600143614dc590919063ffffffff16565b408385604051602001808481526020018381526020018273ffffffffffffffffffffffffffffffffffffffff16815260200193505050506040516020818303038152906040528051906020012060001c9050600081604051602001808281526020019150506040516020818303038152906040528051906020012060001c9050600081604051602001808281526020019150506040516020818303038152906040528051906020012060001c9050600081604051602001808281526020019150506040516020818303038152906040528051906020012060001c9050600081604051602001808281526020019150506040516020818303038152906040528051906020012060001c9050600081604051602001808281526020019150506040516020818303038152906040528051906020012060001c90506001876000019060ff16908160ff168152505061478c600161477e6146fc6103e886614e4890919063ffffffff16565b600980548060200260200160405190810160405280929190818152602001828054801561477457602002820191906000526020600020906000905b82829054906101000a900463ffffffff1663ffffffff16815260200190600401906020826003010492830192600103820291508084116147375790505b5050505050614ed1565b614f2190919063ffffffff16565b876040019060ff16908160ff16815250506147ba6147b56103e885614e4890919063ffffffff16565b614fa9565b876060019063ffffffff16908163ffffffff168152505061487e60016148706147ee6103e885614e4890919063ffffffff16565b600880548060200260200160405190810160405280929190818152602001828054801561486657602002820191906000526020600020906000905b82829054906101000a900463ffffffff1663ffffffff16815260200190600401906020826003010492830192600103820291508084116148295790505b5050505050614ed1565b614f2190919063ffffffff16565b876020019060ff16908160ff16815250506004876020015160ff1610614b6b57614975600a60009054906101000a900463ffffffff1661496186600460008c6060015163ffffffff1663ffffffff16815260200190815260200160002060008c6020015160ff1660ff16815260200190815260200160002060000160009054906101000a900463ffffffff16600460008d6060015163ffffffff1663ffffffff16815260200190815260200160002060008d6020015160ff1660ff16815260200190815260200160002060000160049054906101000a900463ffffffff16615089565b63ffffffff1661422a90919063ffffffff16565b8760e0019063ffffffff16908163ffffffff1681525050614a63600a60009054906101000a900463ffffffff16614a4f87600460008c6060015163ffffffff1663ffffffff16815260200190815260200160002060008c6020015160ff1660ff16815260200190815260200160002060000160089054906101000a900463ffffffff16600460008d6060015163ffffffff1663ffffffff16815260200190815260200160002060008d6020015160ff1660ff168152602001908152602001600020600001600c9054906101000a900463ffffffff16615089565b63ffffffff1661422a90919063ffffffff16565b87610100019063ffffffff16908163ffffffff1681525050614b52600a60009054906101000a900463ffffffff16614b3e88600460008c6060015163ffffffff1663ffffffff16815260200190815260200160002060008c6020015160ff1660ff16815260200190815260200160002060000160109054906101000a900463ffffffff16600460008d6060015163ffffffff1663ffffffff16815260200190815260200160002060008d6020015160ff1660ff16815260200190815260200160002060000160149054906101000a900463ffffffff16615089565b63ffffffff1661422a90919063ffffffff16565b87610120019063ffffffff16908163ffffffff16815250505b50505050505092915050565b6000614b82306150f0565b15905090565b614b928282613754565b5050565b6000614bbe836000018373ffffffffffffffffffffffffffffffffffffffff1660001b615103565b905092915050565b6000614bee836000018373ffffffffffffffffffffffffffffffffffffffff1660001b615173565b905092915050565b614bfe6153a6565b600560009054906101000a900473ffffffffffffffffffffffffffffffffffffffff1673ffffffffffffffffffffffffffffffffffffffff1663abafa8f1846040518263ffffffff1660e01b8152600401808263ffffffff16815260200191505060606040518083038186803b158015614c7757600080fd5b505afa158015614c8b573d6000803e3d6000fd5b505050506040513d6060811015614ca157600080fd5b81019080805190602001909291908051906020019092919080519060200190929190505050846080018560a0018660c0018363ffffffff1663ffffffff168152508363ffffffff1663ffffffff168152508363ffffffff1663ffffffff1681525050505081905092915050565b600081836000018054905011614d6f576040517f08c379a000000000000000000000000000000000000000000000000000000000815260040180806020018281038252602281526020018061547a6022913960400191505060405180910390fd5b826000018281548110614d7e57fe5b9060005260206000200154905092915050565b600080836001016000848152602001908152602001600020541415905092915050565b600081600001805490509050919050565b600082821115614e3d576040517f08c379a000000000000000000000000000000000000000000000000000000000815260040180806020018281038252601e8152602001807f536166654d6174683a207375627472616374696f6e206f766572666c6f77000081525060200191505060405180910390fd5b818303905092915050565b6000808211614ebf576040517f08c379a00000000000000000000000000000000000000000000000000000000081526004018080602001828103825260188152602001807f536166654d6174683a206d6f64756c6f206279207a65726f000000000000000081525060200191505060405180910390fd5b818381614ec857fe5b06905092915050565b600080600090505b8251811015614f1957828181518110614eee57fe5b602002602001015163ffffffff16841015614f0c5780915050614f1b565b8080600101915050614ed9565b505b92915050565b600080828401905083811015614f9f576040517f08c379a000000000000000000000000000000000000000000000000000000000815260040180806020018281038252601b8152602001807f536166654d6174683a206164646974696f6e206f766572666c6f77000000000081525060200191505060405180910390fd5b8091505092915050565b6000806000905060005b600260009054906101000a900463ffffffff1663ffffffff168163ffffffff16101561507f578363ffffffff16600360008363ffffffff1663ffffffff16815260200190815260200160002060000160049054906101000a900463ffffffff1663ffffffff16111580156150655750600360008263ffffffff1663ffffffff16815260200190815260200160002060000160009054906101000a900463ffffffff1663ffffffff168463ffffffff1611155b156150725780915061507f565b8080600101915050614fb3565b5080915050919050565b60006150e760016150d98463ffffffff166150cb6150b6878963ffffffff1661525b90919063ffffffff16565b63ffffffff1689614e4890919063ffffffff16565b614f2190919063ffffffff16565b614f2190919063ffffffff16565b90509392505050565b600080823b905060008111915050919050565b600061510f8383614d91565b61516857826000018290806001815401808255809150506001900390600052602060002001600090919091909150558260000180549050836001016000848152602001908152602001600020819055506001905061516d565b600090505b92915050565b6000808360010160008481526020019081526020016000205490506000811461524f57600060018203905060006001866000018054905003905060008660000182815481106151be57fe5b90600052602060002001549050808760000184815481106151db57fe5b906000526020600020018190555060018301876001016000838152602001908152602001600020819055508660000180548061521357fe5b60019003818190600052602060002001600090559055866001016000878152602001908152602001600020600090556001945050505050615255565b60009150505b92915050565b60008263ffffffff168263ffffffff1611156152df576040517f08c379a000000000000000000000000000000000000000000000000000000000815260040180806020018281038252601e8152602001807f536166654d6174683a207375627472616374696f6e206f766572666c6f77000081525060200191505060405180910390fd5b600082840390508091505092915050565b828054828255906000526020600020906007016008900481019282156153955791602002820160005b8382111561536357833563ffffffff1683826101000a81548163ffffffff021916908363ffffffff1602179055509260200192600401602081600301049283019260010302615319565b80156153935782816101000a81549063ffffffff0219169055600401602081600301049283019260010302615363565b505b5090506153a2919061544e565b5090565b604051806101400160405280600060ff168152602001600060ff168152602001600060ff168152602001600063ffffffff168152602001600063ffffffff168152602001600063ffffffff168152602001600063ffffffff168152602001600063ffffffff168152602001600063ffffffff168152602001600063ffffffff1681525090565b6040518060800160405280600490602082028036833780820191505090505090565b5b8082111561547557600081816101000a81549063ffffffff02191690555060010161544f565b509056fe456e756d657261626c655365743a20696e646578206f7574206f6620626f756e6473416363657373436f6e74726f6c3a2073656e646572206d75737420626520616e2061646d696e20746f206772616e744e756d626572206f662043686573742073686f756c642067726561746572207468616e203020616e64206c657373207468616e2031314275726e6564204e46542073686f756c6420686176652073616d6520656c656d656e74465761724368617244656c65676174653a20596f752068617665206e6f207065726d697373696f6e4275726e6564204e46542073686f756c6420686176652073616d65206c6576656c416363657373436f6e74726f6c3a2073656e646572206d75737420626520616e2061646d696e20746f207265766f6b65496e697469616c697a61626c653a20636f6e747261637420697320616c726561647920696e697469616c697a6564465761724368617244656c65676174653a206d61696e204e46544964206572726f72536166654d6174683a206d756c7469706c69636174696f6e206f766572666c6f77465761724368617244656c65676174653a2043616e206e6f742063616c6c2066726f6d20636f6e74726163744275726e6564204e46542073686f756c642068617665206c6576656c203c3d206d61696e204e4654416363657373436f6e74726f6c3a2063616e206f6e6c792072656e6f756e636520726f6c657320666f722073656c66a2646970667358221220154abfeee5fb720eae8ab245b5be6eae5c1b4bf79980f9b5efb2d8f5fd7f074364736f6c634300060c0033",
  "immutableReferences": {},
  "source": "// SPDX-License-Identifier: MIT\npragma solidity 0.6.12;\n// pragma experimental ABIEncoderV2;\n\nimport \"@openzeppelin/contracts/token/ERC721/ERC721.sol\";\nimport \"@openzeppelin/contracts/token/ERC20/IERC20.sol\";\nimport \"@openzeppelin/contracts/token/ERC20/SafeERC20.sol\";\nimport \"@openzeppelin/contracts/access/AccessControl.sol\";\nimport \"@openzeppelin/contracts/proxy/Initializable.sol\";\nimport \"@openzeppelin/contracts/token/ERC721/ERC721Holder.sol\";\n\nimport \"./FwarCharStorage.sol\";\n\ninterface IFwarChar {\n    function mint(address _user, uint32 tokenId, uint8 _level, uint8 _rarity, uint8 _elementType, uint32 _teamId, \n        uint32 _attack, uint32 _defense, uint32 _health ) external;\n    function upgrade(uint32 _tokenId, uint8 _level, uint32 _attack, uint32 _defense, uint32 _health) external;\n    function totalSupply() external view returns (uint);\n    function getCharInfo(uint32 _id) external view returns (uint8 level, uint8 rarity, uint8 elementType, \n        uint32 teamId, uint32 attack, uint32 defense, uint32 health) ;\n    function getCharBaseInfo(uint32 _id) external view returns (uint32 baseAttack, uint32 baseDefense, uint32 baseHealth);\n    function burn(uint32 _tokenId) external;\n}\n\ninterface IFwarKey{\n    function burn(address _from, uint256 _amount) external;\n}\ninterface ISeed {\n    function getSeed() external returns(uint256);\n}\n\n\ncontract FwarCharDelegate is Initializable, AccessControl, ERC721Holder, FwarCharStorage {\n    using SafeERC20 for IERC20;\n\n\n    event OpenChest(address indexed _caller, address indexed _receiver, uint[4][] _openChestInfo, uint _number);\n    event Upgrade(address indexed _caller, uint32 _mainNFTId, uint32[] _burnedNfts);\n\n    function initialize(address admin, address _fwarCharAddress,address _seedAddress, address _fwarKeyAddress) public payable initializer {\n        _setupRole(DEFAULT_ADMIN_ROLE, admin);\n\n        fwarCharAddress = _fwarCharAddress;\n        seedAddress = _seedAddress;\n        fwarKeyAddress = _fwarKeyAddress;\n\n        MULTIPLER = 1e3;\n    }\n\n    function setRarity(uint32[] calldata valuelist) external {\n        require(hasRole(DEFAULT_ADMIN_ROLE, _msgSender()), 'Admin role is required');\n        RARITY_MASK = valuelist;\n    }\n\n    function setElement(uint32[] calldata valuelist) external{\n        require(hasRole(DEFAULT_ADMIN_ROLE, _msgSender()), 'Admin role is required');\n        ELEMENT_MASK = valuelist;\n    }\n\n    function getRarity() external view returns (uint32[] memory ){\n        return RARITY_MASK;\n    }\n\n    function getElement() external view returns (uint32[] memory){\n        return ELEMENT_MASK;\n    }\n\n\n    function getTeamInfo(uint32 _teamId) public view returns (uint32 maxRandom, uint32 minRandom)\n    {\n        maxRandom = teamInfos[_teamId].maxRandom;\n        minRandom = teamInfos[_teamId].minRandom;\n        return (maxRandom, minRandom);\n    }\n\n\n    function addTeamInfo(uint32 _maxRandom, uint32 _minRandom) public \n    {\n        require(hasRole(DEFAULT_ADMIN_ROLE, _msgSender()), 'Admin role is required');\n        \n        uint32 teamId = TeamCount;\n        teamInfos[teamId].maxRandom   = _maxRandom;\n        teamInfos[teamId].minRandom   = _minRandom;\n\n        TeamCount = TeamCount.add(1);\n    }\n\n    function updateTeamInfo(uint32 _teamId, uint32 _maxRandom, uint32 _minRandom) public \n    {\n        require(hasRole(DEFAULT_ADMIN_ROLE, _msgSender()), 'Admin role is required');\n\n        teamInfos[_teamId].maxRandom   = _maxRandom;\n        teamInfos[_teamId].minRandom   = _minRandom;\n    }\n\n    function updateCharStat(uint32 _teamId, uint8 _rarity, uint32 _maxAttack,  uint32 _minAttack, \n        uint32 _maxDefense, uint32 _minDefense, uint32 _maxHealth, uint32 _minHealth) public \n    {\n        require(hasRole(DEFAULT_ADMIN_ROLE, _msgSender()), 'Admin role is required');\n\n        charStats[_teamId][_rarity].maxAttack = _maxAttack;\n        charStats[_teamId][_rarity].minAttack = _minAttack;\n        charStats[_teamId][_rarity].maxDefense = _maxDefense;\n        charStats[_teamId][_rarity].minDefense =_minDefense;\n        charStats[_teamId][_rarity].maxHealth = _maxHealth;\n        charStats[_teamId][_rarity].minHealth = _minHealth;\n\n    }\n\n    function getCharStat(uint32 _teamId, uint8 _rarity) public view returns \n        (uint32 maxAttack, uint32 minAttack, uint32 maxDefense, uint32 minDefense, uint32 maxHealth, uint32 minHealth)\n    {\n        maxAttack = charStats[_teamId][_rarity].maxAttack;\n        minAttack = charStats[_teamId][_rarity].minAttack;\n        maxDefense = charStats[_teamId][_rarity].maxDefense;\n        minDefense = charStats[_teamId][_rarity].minDefense;\n        maxHealth = charStats[_teamId][_rarity].maxHealth;\n        minHealth = charStats[_teamId][_rarity].minHealth;\n\n        return (maxAttack, minAttack, maxDefense, minDefense, maxHealth, minHealth);\n    }\n\n\n    function setSeedAddress(address _seedAddress) external {\n        require(hasRole(DEFAULT_ADMIN_ROLE, _msgSender()), 'Admin role is required');\n        seedAddress = _seedAddress;\n    }\n\n\n    function setFwarCharAddress(address _fwarCharAddress) external {\n        require(hasRole(DEFAULT_ADMIN_ROLE, _msgSender()), 'Admin role is required');\n        fwarCharAddress = _fwarCharAddress;\n    }\n\n    function setFwarKeyAddress(address _fwarKeyAddress) external {\n        require(hasRole(DEFAULT_ADMIN_ROLE, _msgSender()), 'Admin role is required');\n        fwarKeyAddress = _fwarKeyAddress;\n    }\n\n    function setBurnInfos(uint8 _ratity, uint8 _level, uint8 _junkAmount, uint8 _normalAmount,  uint8 _rareAmount, \n        uint8 _baseAmount, uint16 _percentConsume, uint16 _percentOnBase) external \n    {\n        require(hasRole(DEFAULT_ADMIN_ROLE, _msgSender()), 'Admin role is required');\n        require(_ratity >= 4, \"Rarity must greater than 3\");\n\n        burnInfos[_ratity][_level].junkAmount = _junkAmount;\n        burnInfos[_ratity][_level].normalAmount = _normalAmount;\n        burnInfos[_ratity][_level].rareAmount = _rareAmount;\n        burnInfos[_ratity][_level].baseAmount = _baseAmount;\n        burnInfos[_ratity][_level].percentConsume = _percentConsume;\n        burnInfos[_ratity][_level].percentOnBase = _percentOnBase;\n    }\n\n    function getBurnInfo(uint8 _ratity, uint8 _level) external view returns(uint8 junkAmount, uint8 normalAmount, uint8 rareAmount, uint8 baseAmount){\n        junkAmount = burnInfos[_ratity][_level].junkAmount;\n        normalAmount = burnInfos[_ratity][_level].normalAmount;\n        rareAmount = burnInfos[_ratity][_level].rareAmount;\n        baseAmount = burnInfos[_ratity][_level].baseAmount;\n\n        return (junkAmount , normalAmount, rareAmount, baseAmount);\n    }\n\n    function OpenItems(address user, uint number) external {\n        require(_msgSender() == tx.origin, \"can not call from contract\");\n        require(number > 0 && number < 11, \"Number of Chest should greater than 0 and less than 11\");\n        \n        //Burn Keys    \n        IERC20(fwarKeyAddress).transferFrom(_msgSender(), address(this), number.mul(1e18));\n        IFwarKey(fwarKeyAddress).burn(address(this),number.mul(1e18));\n\n        uint[4][] memory topenChestInfos = new uint[4][](number);\n        for(uint i = 0; i < number; i++)\n        {   \n            uint tokenId = ISeed(seedAddress).getSeed();\n            CharInfo memory charInfo = randomCharStats(user, tokenId);\n\n            IFwarChar(fwarCharAddress).mint(user, uint32(tokenId), charInfo.level, charInfo.rarity, charInfo.elementType,\n            charInfo.teamId, charInfo.attack, charInfo.defense, charInfo.health);\n\n            topenChestInfos[i][0] = uint32(tokenId);\n            topenChestInfos[i][1] = charInfo.rarity;\n            topenChestInfos[i][2] = charInfo.elementType;\n            topenChestInfos[i][3] = charInfo.teamId;\n        }\n\n        emit OpenChest(_msgSender(), user, topenChestInfos, number);\n    }\n\n    function randomCharStats(address _user, uint _seed) internal view returns (\n        CharInfo memory charInfo) \n    {\n        uint random1 = uint(keccak256(abi.encode(blockhash(block.number.sub(1)), _seed, _user)));\n        uint random2 = uint(keccak256(abi.encode(random1)));\n        uint random3 = uint(keccak256(abi.encode(random2)));\n        uint random4 = uint(keccak256(abi.encode(random3)));\n        uint random5 = uint(keccak256(abi.encode(random4)));\n        uint random6 = uint(keccak256(abi.encode(random5)));\n        \n        charInfo.level = 1;\n\n        charInfo.elementType = uint8(getMaskValue(random5.mod(1000), ELEMENT_MASK).add(1));\n        charInfo.teamId = getTeamId(uint32(random4.mod(1000)));\n        charInfo.rarity = uint8(getMaskValue(random6.mod(1000), RARITY_MASK).add(1));\n        if(charInfo.rarity >= 4){\n            charInfo.attack = randomStatistic(random3, charStats[charInfo.teamId][charInfo.rarity].maxAttack,charStats[charInfo.teamId][charInfo.rarity].minAttack).mul(MULTIPLER);\n            charInfo.defense = randomStatistic(random2, charStats[charInfo.teamId][charInfo.rarity].maxDefense,charStats[charInfo.teamId][charInfo.rarity].minDefense).mul(MULTIPLER);\n            charInfo.health = randomStatistic(random1, charStats[charInfo.teamId][charInfo.rarity].maxHealth,charStats[charInfo.teamId][charInfo.rarity].minHealth).mul(MULTIPLER);\n        }\n    }\n\n    function getTeamId (uint32 random) private view returns (uint32){\n        uint32 id = 0;\n\n        for(uint32 i=0; i< TeamCount; i++)\n        {\n            if(teamInfos[i].minRandom <= random && random <= teamInfos[i].maxRandom)\n            {\n                id = i;\n                break;\n            }\n        }\n        return id;\n    }\n\n    function getMaskValue(uint random, uint32[] memory mask) private pure returns (uint) {\n        for (uint i=0; i<mask.length; i++) {\n            if (random < mask[i]) {\n                return i;\n            }\n        }\n    }\n\n    function randomStatistic(uint random, uint32 max, uint32 min) private pure returns (uint32 value){\n        value = uint32(random.mod(max.sub(min)).add(min).add(1));\n        return value;\n    }\n\n    /// @dev upgrade is called by a user\n    /// @param _mainNFTId is the NFT Id of nft which want to upgrade\n    /// @param _burnedNfts is the array of nftId which use to burn for mainNFT\n\n    //Need check isSelling or Not\n    function upgrade(uint32 _mainNFTId, uint32[] calldata _burnedNfts) external\n    {\n        require(_msgSender() == tx.origin, \"FWarCharDelegate: Can not call from contract\");\n        require(_mainNFTId != 0, \"FWarCharDelegate: main NFTId error\");\n        require(IERC721(fwarCharAddress).ownerOf(_mainNFTId) == _msgSender(), \"FWarCharDelegate: You have no permission\");\n\n        CharInfo memory mainNFT = getCharInfo(_mainNFTId);\n\n        require(isUpgradable(mainNFT.rarity) == 1, 'NFT can not upgrade');\n\n        (uint32 totalAttack, uint32 totalDefense, uint32 totalHealth) = verifyBurnedNfts(mainNFT, _burnedNfts);\n\n        for (uint i = 0; i < _burnedNfts.length; i++) {\n            IFwarChar(fwarCharAddress).burn(_burnedNfts[i]);\n        }\n\n        uint16 percentConsume = burnInfos[mainNFT.rarity][mainNFT.level].percentConsume;\n        uint16 percentBase = burnInfos[mainNFT.rarity][mainNFT.level].percentOnBase;\n\n        mainNFT.attack = mainNFT.attack.add(totalAttack.mul(percentBase).div(MULTIPLER)).add(mainNFT.baseAttack.mul(percentConsume).div(MULTIPLER));\n        mainNFT.defense = mainNFT.defense.add(totalDefense.mul(percentBase).div(MULTIPLER)).add(mainNFT.baseDefense.mul(percentConsume).div(MULTIPLER));\n        mainNFT.health = mainNFT.health.add(totalHealth.mul(percentBase).div(MULTIPLER)).add(mainNFT.baseHealth.mul(percentConsume).div(MULTIPLER));\n\n        IFwarChar(fwarCharAddress).upgrade(_mainNFTId, mainNFT.level.add(1), mainNFT.attack, mainNFT.defense, mainNFT.health);\n\n        emit Upgrade(_msgSender(), _mainNFTId, _burnedNfts);\n    }\n\n    /// @dev isUpgradable\n    /// @param _rarity is the rarity of NFT which want to check\n    function isUpgradable(uint _rarity) internal pure returns (uint returnVal){\n        if(_rarity >= 4) {\n            returnVal = 1;\n        }\n        return returnVal;\n    }\n\n    /// @dev getCharInfo\n    /// @param _nftId is the id of NFT\n    function getCharInfo(uint32 _nftId) internal view returns (CharInfo memory charInfo){\n        (charInfo.level, charInfo.rarity, charInfo.elementType, charInfo.teamId,\n            charInfo.attack, charInfo.defense, charInfo.health) = IFwarChar(fwarCharAddress).getCharInfo(_nftId);\n        charInfo = getCharBaseInfo(_nftId, charInfo);\n        return charInfo;\n    }\n\n    /// @dev getCharBaseInfo\n    /// @param _nftId is the id of NFT\n    /// @param _charInfo is the struct info will be fill\n    function getCharBaseInfo(uint32 _nftId, CharInfo memory _charInfo) internal view returns (CharInfo memory){\n        (_charInfo.baseAttack, _charInfo.baseDefense, _charInfo.baseHealth) = IFwarChar(fwarCharAddress).getCharBaseInfo(_nftId);\n        return _charInfo;\n    }\n\n    /// @dev verifyBurnedNfts\n    /// @param _burnedNfts is the id of NFT\n    function verifyBurnedNfts(CharInfo memory _mainNFT, uint32[] memory _burnedNfts) internal view\n        returns (uint32 totalAttack, uint32 totalDefense, uint32 totalHealth)\n    {\n        uint8 junkAmount;\n        uint8 normalAmount;\n        uint8 rareAmount;\n        uint8 baseAmount;\n\n        for (uint i = 0; i < _burnedNfts.length; i++) {\n            require(_burnedNfts[i] != 0, \"burned NFTId error\");\n            require(IERC721(fwarCharAddress).ownerOf(_burnedNfts[i]) == _msgSender(), \"FWarCharDelegate: You have no permission\");\n\n            CharInfo memory charInfo = getCharInfo(_burnedNfts[i]);\n\n            require(_mainNFT.teamId == charInfo.teamId, \"Burned NFT should have same team\");\n            require(_mainNFT.elementType == charInfo.elementType, \"Burned NFT should have same element\");         \n\n            if(charInfo.rarity == 1) {\n                junkAmount = junkAmount.add(1);\n            }\n            if(charInfo.rarity == 2) {\n                normalAmount = normalAmount.add(1);\n            }\n\n            if(charInfo.rarity == 3) {\n                rareAmount = rareAmount.add(1);\n            }\n\n            if(charInfo.rarity == _mainNFT.rarity) {\n                totalAttack = totalAttack.add(charInfo.attack);\n                totalDefense = totalDefense.add(charInfo.defense);\n                totalHealth = totalHealth.add(charInfo.health);\n                baseAmount = baseAmount.add(1);\n                if(_mainNFT.level<30){\n                    require(_mainNFT.level >= charInfo.level, 'Burned NFT should have level <= main NFT');\n                }else{\n                    require(_mainNFT.level == charInfo.level, 'Burned NFT should have same level');\n                }\n            }\n        }\n\n        require(burnInfos[_mainNFT.rarity][_mainNFT.level].junkAmount == junkAmount, \"amount of junk is incorrect\");\n        require(burnInfos[_mainNFT.rarity][_mainNFT.level].normalAmount == normalAmount, \"amount of normal is incorrect\");\n        require(burnInfos[_mainNFT.rarity][_mainNFT.level].rareAmount == rareAmount, \"amount of rare is incorrect\");\n        require(burnInfos[_mainNFT.rarity][_mainNFT.level].baseAmount == baseAmount, \"amount of base is incorrect\");\n    }\n}\n",
  "sourcePath": "/Users/badung1870/Working/Node/FWar-Main/SourceCode/SmartContracts/Fwar/FwarChar/contracts/FwarCharDelegate.sol",
  "compiler": {
    "name": "solc",
    "version": "0.6.12+commit.27d51765.Emscripten.clang"
  },
  "schemaVersion": "3.4.3",
  "updatedAt": "2021-10-26T17:06:58.686Z",
  "networkType": "ethereum",
  "devdoc": {
    "kind": "dev",
    "methods": {
      "getRoleAdmin(bytes32)": {
        "details": "Returns the admin role that controls `role`. See {grantRole} and {revokeRole}. To change a role's admin, use {_setRoleAdmin}."
      },
      "getRoleMember(bytes32,uint256)": {
        "details": "Returns one of the accounts that have `role`. `index` must be a value between 0 and {getRoleMemberCount}, non-inclusive. Role bearers are not sorted in any particular way, and their ordering may change at any point. WARNING: When using {getRoleMember} and {getRoleMemberCount}, make sure you perform all queries on the same block. See the following https://forum.openzeppelin.com/t/iterating-over-elements-on-enumerableset-in-openzeppelin-contracts/2296[forum post] for more information."
      },
      "getRoleMemberCount(bytes32)": {
        "details": "Returns the number of accounts that have `role`. Can be used together with {getRoleMember} to enumerate all bearers of a role."
      },
      "grantRole(bytes32,address)": {
        "details": "Grants `role` to `account`. If `account` had not been already granted `role`, emits a {RoleGranted} event. Requirements: - the caller must have ``role``'s admin role."
      },
      "hasRole(bytes32,address)": {
        "details": "Returns `true` if `account` has been granted `role`."
      },
      "onERC721Received(address,address,uint256,bytes)": {
        "details": "See {IERC721Receiver-onERC721Received}. Always returns `IERC721Receiver.onERC721Received.selector`."
      },
      "renounceRole(bytes32,address)": {
        "details": "Revokes `role` from the calling account. Roles are often managed via {grantRole} and {revokeRole}: this function's purpose is to provide a mechanism for accounts to lose their privileges if they are compromised (such as when a trusted device is misplaced). If the calling account had been granted `role`, emits a {RoleRevoked} event. Requirements: - the caller must be `account`."
      },
      "revokeRole(bytes32,address)": {
        "details": "Revokes `role` from `account`. If `account` had been granted `role`, emits a {RoleRevoked} event. Requirements: - the caller must have ``role``'s admin role."
      },
      "upgrade(uint32,uint32[])": {
        "details": "upgrade is called by a user",
        "params": {
          "_burnedNfts": "is the array of nftId which use to burn for mainNFT",
          "_mainNFTId": "is the NFT Id of nft which want to upgrade"
        }
      }
    },
    "version": 1
  },
  "userdoc": {
    "kind": "user",
    "methods": {},
    "version": 1
  }
}