{
  "contractName": "FwarPools",
  "abi": [
    {
      "anonymous": false,
      "inputs": [
        {
          "indexed": true,
          "internalType": "address",
          "name": "previousOwner",
          "type": "address"
        },
        {
          "indexed": true,
          "internalType": "address",
          "name": "newOwner",
          "type": "address"
        }
      ],
      "name": "OwnershipTransferred",
      "type": "event"
    },
    {
      "anonymous": false,
      "inputs": [
        {
          "indexed": true,
          "internalType": "address",
          "name": "user",
          "type": "address"
        },
        {
          "indexed": true,
          "internalType": "uint256",
          "name": "pid",
          "type": "uint256"
        },
        {
          "indexed": false,
          "internalType": "uint256",
          "name": "amount",
          "type": "uint256"
        }
      ],
      "name": "PoolStake",
      "type": "event"
    },
    {
      "anonymous": false,
      "inputs": [
        {
          "indexed": true,
          "internalType": "address",
          "name": "user",
          "type": "address"
        },
        {
          "indexed": true,
          "internalType": "uint256",
          "name": "pid",
          "type": "uint256"
        },
        {
          "indexed": false,
          "internalType": "uint256",
          "name": "amount",
          "type": "uint256"
        }
      ],
      "name": "PoolWithdraw",
      "type": "event"
    },
    {
      "inputs": [],
      "name": "devAddress",
      "outputs": [
        {
          "internalType": "address",
          "name": "",
          "type": "address"
        }
      ],
      "stateMutability": "view",
      "type": "function",
      "constant": true
    },
    {
      "inputs": [],
      "name": "key",
      "outputs": [
        {
          "internalType": "address",
          "name": "",
          "type": "address"
        }
      ],
      "stateMutability": "view",
      "type": "function",
      "constant": true
    },
    {
      "inputs": [],
      "name": "keyPerBlock",
      "outputs": [
        {
          "internalType": "uint256",
          "name": "",
          "type": "uint256"
        }
      ],
      "stateMutability": "view",
      "type": "function",
      "constant": true
    },
    {
      "inputs": [],
      "name": "owner",
      "outputs": [
        {
          "internalType": "address",
          "name": "",
          "type": "address"
        }
      ],
      "stateMutability": "view",
      "type": "function",
      "constant": true
    },
    {
      "inputs": [
        {
          "internalType": "uint256",
          "name": "",
          "type": "uint256"
        }
      ],
      "name": "poolInfo",
      "outputs": [
        {
          "internalType": "address",
          "name": "lpToken",
          "type": "address"
        },
        {
          "internalType": "uint256",
          "name": "pancakeLpId",
          "type": "uint256"
        },
        {
          "internalType": "uint256",
          "name": "allocPoint",
          "type": "uint256"
        },
        {
          "internalType": "uint256",
          "name": "lastRewardBlock",
          "type": "uint256"
        },
        {
          "internalType": "uint256",
          "name": "accKeyPerShare",
          "type": "uint256"
        },
        {
          "internalType": "uint256",
          "name": "lpSupply",
          "type": "uint256"
        }
      ],
      "stateMutability": "view",
      "type": "function",
      "constant": true
    },
    {
      "inputs": [],
      "name": "renounceOwnership",
      "outputs": [],
      "stateMutability": "nonpayable",
      "type": "function"
    },
    {
      "inputs": [],
      "name": "startBlock",
      "outputs": [
        {
          "internalType": "uint256",
          "name": "",
          "type": "uint256"
        }
      ],
      "stateMutability": "view",
      "type": "function",
      "constant": true
    },
    {
      "inputs": [],
      "name": "totalAllocPoint",
      "outputs": [
        {
          "internalType": "uint256",
          "name": "",
          "type": "uint256"
        }
      ],
      "stateMutability": "view",
      "type": "function",
      "constant": true
    },
    {
      "inputs": [
        {
          "internalType": "address",
          "name": "newOwner",
          "type": "address"
        }
      ],
      "name": "transferOwnership",
      "outputs": [],
      "stateMutability": "nonpayable",
      "type": "function"
    },
    {
      "inputs": [
        {
          "internalType": "uint256",
          "name": "",
          "type": "uint256"
        },
        {
          "internalType": "address",
          "name": "",
          "type": "address"
        }
      ],
      "name": "userInfo",
      "outputs": [
        {
          "internalType": "uint256",
          "name": "amount",
          "type": "uint256"
        },
        {
          "internalType": "uint256",
          "name": "rewardDebt",
          "type": "uint256"
        },
        {
          "internalType": "uint256",
          "name": "lastDepositedTime",
          "type": "uint256"
        }
      ],
      "stateMutability": "view",
      "type": "function",
      "constant": true
    },
    {
      "stateMutability": "payable",
      "type": "receive",
      "payable": true
    },
    {
      "inputs": [
        {
          "internalType": "address",
          "name": "_initialOwner",
          "type": "address"
        },
        {
          "internalType": "address",
          "name": "_key",
          "type": "address"
        },
        {
          "internalType": "uint256",
          "name": "_startBlock",
          "type": "uint256"
        },
        {
          "internalType": "uint256",
          "name": "_keyPerBlock",
          "type": "uint256"
        },
        {
          "internalType": "address",
          "name": "_teamWallet",
          "type": "address"
        },
        {
          "internalType": "address",
          "name": "_devAddress",
          "type": "address"
        },
        {
          "internalType": "address",
          "name": "_pancakeMasterChef",
          "type": "address"
        },
        {
          "internalType": "address",
          "name": "_pancakeSwap",
          "type": "address"
        }
      ],
      "name": "initialize",
      "outputs": [],
      "stateMutability": "nonpayable",
      "type": "function"
    },
    {
      "inputs": [
        {
          "internalType": "uint256",
          "name": "_keyPerBlock",
          "type": "uint256"
        }
      ],
      "name": "setKeyPerBlock",
      "outputs": [],
      "stateMutability": "nonpayable",
      "type": "function"
    },
    {
      "inputs": [
        {
          "internalType": "address",
          "name": "_pancakeMasterChef",
          "type": "address"
        }
      ],
      "name": "setMasterChef",
      "outputs": [],
      "stateMutability": "nonpayable",
      "type": "function"
    },
    {
      "inputs": [
        {
          "internalType": "address",
          "name": "_pancakeSwap",
          "type": "address"
        }
      ],
      "name": "setPancakeSwap",
      "outputs": [],
      "stateMutability": "nonpayable",
      "type": "function"
    },
    {
      "inputs": [],
      "name": "poolLength",
      "outputs": [
        {
          "internalType": "uint256",
          "name": "",
          "type": "uint256"
        }
      ],
      "stateMutability": "view",
      "type": "function",
      "constant": true
    },
    {
      "inputs": [
        {
          "internalType": "uint256",
          "name": "_from",
          "type": "uint256"
        },
        {
          "internalType": "uint256",
          "name": "_to",
          "type": "uint256"
        }
      ],
      "name": "getMultiplier",
      "outputs": [
        {
          "internalType": "uint256",
          "name": "",
          "type": "uint256"
        }
      ],
      "stateMutability": "pure",
      "type": "function",
      "constant": true
    },
    {
      "inputs": [],
      "name": "getAllKey",
      "outputs": [],
      "stateMutability": "nonpayable",
      "type": "function"
    },
    {
      "inputs": [
        {
          "internalType": "uint256",
          "name": "_allocPoint",
          "type": "uint256"
        },
        {
          "internalType": "address",
          "name": "_lpToken",
          "type": "address"
        },
        {
          "internalType": "uint256",
          "name": "_pancakeLpId",
          "type": "uint256"
        }
      ],
      "name": "createPool",
      "outputs": [],
      "stateMutability": "nonpayable",
      "type": "function"
    },
    {
      "inputs": [
        {
          "internalType": "uint256",
          "name": "_pid",
          "type": "uint256"
        },
        {
          "internalType": "uint256",
          "name": "_allocPoint",
          "type": "uint256"
        }
      ],
      "name": "setAllocPoint",
      "outputs": [],
      "stateMutability": "nonpayable",
      "type": "function"
    },
    {
      "inputs": [
        {
          "internalType": "uint256",
          "name": "_id",
          "type": "uint256"
        },
        {
          "internalType": "address",
          "name": "_user",
          "type": "address"
        }
      ],
      "name": "pendingKey",
      "outputs": [
        {
          "internalType": "uint256",
          "name": "",
          "type": "uint256"
        }
      ],
      "stateMutability": "view",
      "type": "function",
      "constant": true
    },
    {
      "inputs": [],
      "name": "updateAllPool",
      "outputs": [],
      "stateMutability": "nonpayable",
      "type": "function"
    },
    {
      "inputs": [
        {
          "internalType": "uint256",
          "name": "_pid",
          "type": "uint256"
        }
      ],
      "name": "updatePool",
      "outputs": [],
      "stateMutability": "nonpayable",
      "type": "function"
    },
    {
      "inputs": [
        {
          "internalType": "uint256",
          "name": "_pid",
          "type": "uint256"
        },
        {
          "internalType": "uint256",
          "name": "_amount",
          "type": "uint256"
        }
      ],
      "name": "poolStake",
      "outputs": [],
      "stateMutability": "nonpayable",
      "type": "function"
    },
    {
      "inputs": [
        {
          "internalType": "uint256",
          "name": "_pid",
          "type": "uint256"
        },
        {
          "internalType": "uint256",
          "name": "_amount",
          "type": "uint256"
        }
      ],
      "name": "poolWithdraw",
      "outputs": [],
      "stateMutability": "nonpayable",
      "type": "function"
    },
    {
      "inputs": [
        {
          "internalType": "uint256",
          "name": "_pid",
          "type": "uint256"
        }
      ],
      "name": "getKey",
      "outputs": [],
      "stateMutability": "nonpayable",
      "type": "function"
    },
    {
      "inputs": [
        {
          "internalType": "address[]",
          "name": "_path",
          "type": "address[]"
        },
        {
          "internalType": "uint256",
          "name": "_amount",
          "type": "uint256"
        },
        {
          "internalType": "uint256",
          "name": "deadline",
          "type": "uint256"
        }
      ],
      "name": "pancakeToToken",
      "outputs": [
        {
          "internalType": "uint256[]",
          "name": "amounts",
          "type": "uint256[]"
        }
      ],
      "stateMutability": "nonpayable",
      "type": "function"
    },
    {
      "inputs": [
        {
          "internalType": "address",
          "name": "_token",
          "type": "address"
        },
        {
          "internalType": "uint256",
          "name": "_amount",
          "type": "uint256"
        },
        {
          "internalType": "bool",
          "name": "_isBNB",
          "type": "bool"
        }
      ],
      "name": "getTokenRemaining",
      "outputs": [],
      "stateMutability": "nonpayable",
      "type": "function"
    }
  ],
  "bytecode": "0x608060405234801561001057600080fd5b5060018081905550613b0e806100276000396000f3fe6080604052600436106101a05760003560e01c8063715018a6116100ec578063a2ec889a1161008a578063bbb9b36e11610064578063bbb9b36e1461091f578063bf8030d214610986578063e80d9217146109cb578063f2fde38b14610a10576101a7565b8063a2ec889a146107ca578063ad29b8a2146107f5578063bb5b27e1146108e4576101a7565b806393f1a40b116100c657806393f1a40b146105df578063986a95301461065c5780639b3ee16e14610673578063a2d9f4dc14610779576101a7565b8063715018a61461052e5780638da5cb5b146105455780638dbb1e3a14610586576101a7565b80633ad10ef61161015957806351eb05a61161013357806351eb05a61461040857806364cded3714610443578063674ba55d146104b25780636b5b433514610517576101a7565b80633ad10ef61461035757806343dec4b21461039857806348cd4cb1146103dd576101a7565b8063081e3eda146101ac57806313006801146101d75780631526fe271461022857806317caf6f1146102b05780633927d364146102db5780633943380c14610316576101a7565b366101a757005b600080fd5b3480156101b857600080fd5b506101c1610a61565b6040518082815260200191505060405180910390f35b3480156101e357600080fd5b50610226600480360360208110156101fa57600080fd5b81019080803573ffffffffffffffffffffffffffffffffffffffff169060200190929190505050610a6e565b005b34801561023457600080fd5b506102616004803603602081101561024b57600080fd5b8101908080359060200190929190505050610b7a565b604051808773ffffffffffffffffffffffffffffffffffffffff168152602001868152602001858152602001848152602001838152602001828152602001965050505050505060405180910390f35b3480156102bc57600080fd5b506102c5610be3565b6040518082815260200191505060405180910390f35b3480156102e757600080fd5b50610314600480360360208110156102fe57600080fd5b8101908080359060200190929190505050610be9565b005b34801561032257600080fd5b5061032b610cbb565b604051808273ffffffffffffffffffffffffffffffffffffffff16815260200191505060405180910390f35b34801561036357600080fd5b5061036c610ce1565b604051808273ffffffffffffffffffffffffffffffffffffffff16815260200191505060405180910390f35b3480156103a457600080fd5b506103db600480360360408110156103bb57600080fd5b810190808035906020019092919080359060200190929190505050610d07565b005b3480156103e957600080fd5b506103f2610fb4565b6040518082815260200191505060405180910390f35b34801561041457600080fd5b506104416004803603602081101561042b57600080fd5b8101908080359060200190929190505050610fba565b005b34801561044f57600080fd5b5061049c6004803603604081101561046657600080fd5b8101908080359060200190929190803573ffffffffffffffffffffffffffffffffffffffff1690602001909291905050506110ba565b6040518082815260200191505060405180910390f35b3480156104be57600080fd5b50610515600480360360608110156104d557600080fd5b8101908080359060200190929190803573ffffffffffffffffffffffffffffffffffffffff1690602001909291908035906020019092919050505061123f565b005b34801561052357600080fd5b5061052c61142a565b005b34801561053a57600080fd5b50610543611453565b005b34801561055157600080fd5b5061055a6115d9565b604051808273ffffffffffffffffffffffffffffffffffffffff16815260200191505060405180910390f35b34801561059257600080fd5b506105c9600480360360408110156105a957600080fd5b810190808035906020019092919080359060200190929190505050611602565b6040518082815260200191505060405180910390f35b3480156105eb57600080fd5b506106386004803603604081101561060257600080fd5b8101908080359060200190929190803573ffffffffffffffffffffffffffffffffffffffff16906020019092919050505061161f565b60405180848152602001838152602001828152602001935050505060405180910390f35b34801561066857600080fd5b50610671611656565b005b34801561067f57600080fd5b50610777600480360361010081101561069757600080fd5b81019080803573ffffffffffffffffffffffffffffffffffffffff169060200190929190803573ffffffffffffffffffffffffffffffffffffffff1690602001909291908035906020019092919080359060200190929190803573ffffffffffffffffffffffffffffffffffffffff169060200190929190803573ffffffffffffffffffffffffffffffffffffffff169060200190929190803573ffffffffffffffffffffffffffffffffffffffff169060200190929190803573ffffffffffffffffffffffffffffffffffffffff16906020019092919050505061167f565b005b34801561078557600080fd5b506107c86004803603602081101561079c57600080fd5b81019080803573ffffffffffffffffffffffffffffffffffffffff1690602001909291905050506118c8565b005b3480156107d657600080fd5b506107df6119d4565b6040518082815260200191505060405180910390f35b34801561080157600080fd5b5061088d6004803603606081101561081857600080fd5b810190808035906020019064010000000081111561083557600080fd5b82018360208201111561084757600080fd5b8035906020019184602083028401116401000000008311171561086957600080fd5b909192939192939080359060200190929190803590602001909291905050506119da565b6040518080602001828103825283818151815260200191508051906020019060200280838360005b838110156108d05780820151818401526020810190506108b5565b505050509050019250505060405180910390f35b3480156108f057600080fd5b5061091d6004803603602081101561090757600080fd5b8101908080359060200190929190505050611f9a565b005b34801561092b57600080fd5b506109846004803603606081101561094257600080fd5b81019080803573ffffffffffffffffffffffffffffffffffffffff16906020019092919080359060200190929190803515159060200190929190505050612129565b005b34801561099257600080fd5b506109c9600480360360408110156109a957600080fd5b810190808035906020019092919080359060200190929190505050612300565b005b3480156109d757600080fd5b50610a0e600480360360408110156109ee57600080fd5b8101908080359060200190929190803590602001909291905050506125eb565b005b348015610a1c57600080fd5b50610a5f60048036036020811015610a3357600080fd5b81019080803573ffffffffffffffffffffffffffffffffffffffff169060200190929190505050612725565b005b6000600a80549050905090565b610a766127f9565b73ffffffffffffffffffffffffffffffffffffffff1660008054906101000a900473ffffffffffffffffffffffffffffffffffffffff1673ffffffffffffffffffffffffffffffffffffffff1614610b36576040517f08c379a00000000000000000000000000000000000000000000000000000000081526004018080602001828103825260208152602001807f4f776e61626c653a2063616c6c6572206973206e6f7420746865206f776e657281525060200191505060405180910390fd5b80600560006101000a81548173ffffffffffffffffffffffffffffffffffffffff021916908373ffffffffffffffffffffffffffffffffffffffff16021790555050565b600a8181548110610b8757fe5b90600052602060002090600602016000915090508060000160009054906101000a900473ffffffffffffffffffffffffffffffffffffffff16908060010154908060020154908060030154908060040154908060050154905086565b60085481565b610bf16127f9565b73ffffffffffffffffffffffffffffffffffffffff1660008054906101000a900473ffffffffffffffffffffffffffffffffffffffff1673ffffffffffffffffffffffffffffffffffffffff1614610cb1576040517f08c379a00000000000000000000000000000000000000000000000000000000081526004018080602001828103825260208152602001807f4f776e61626c653a2063616c6c6572206973206e6f7420746865206f776e657281525060200191505060405180910390fd5b8060078190555050565b600660009054906101000a900473ffffffffffffffffffffffffffffffffffffffff1681565b600360009054906101000a900473ffffffffffffffffffffffffffffffffffffffff1681565b6000600a8381548110610d1657fe5b906000526020600020906006020190506000600b600085815260200190815260200160002060003373ffffffffffffffffffffffffffffffffffffffff1673ffffffffffffffffffffffffffffffffffffffff1681526020019081526020016000209050610d8384610fba565b600081600001541115610e15576000610dda8260010154610dcc64e8d4a51000610dbe8760040154876000015461280190919063ffffffff16565b61288790919063ffffffff16565b6128d190919063ffffffff16565b90506000811115610e1357610e12600660009054906101000a900473ffffffffffffffffffffffffffffffffffffffff16338361291b565b5b505b6000831115610f1c57610e4e8260000160009054906101000a900473ffffffffffffffffffffffffffffffffffffffff16333086612ae1565b610e9f8260000160009054906101000a900473ffffffffffffffffffffffffffffffffffffffff16600460009054906101000a900473ffffffffffffffffffffffffffffffffffffffff1685612cc6565b610eb6838260000154612e8c90919063ffffffff16565b8160000181905550610ed5838360050154612e8c90919063ffffffff16565b82600501819055506000826001015414610f1b57610f1a600460009054906101000a900473ffffffffffffffffffffffffffffffffffffffff16836001015485612f14565b5b5b610f4e64e8d4a51000610f408460040154846000015461280190919063ffffffff16565b61288790919063ffffffff16565b8160010181905550428160020181905550833373ffffffffffffffffffffffffffffffffffffffff167f2592d8011055671174e6e406704894b3460b788fbf3c05f0495e509f901ed985856040518082815260200191505060405180910390a350505050565b60095481565b6000600a8281548110610fc957fe5b9060005260206000209060060201905080600301544311610fea57506110b7565b600081600501549050600081141561100c5743826003018190555050506110b7565b600061101c836003015443611602565b9050600061105f60085461105186600201546110436007548761280190919063ffffffff16565b61280190919063ffffffff16565b61288790919063ffffffff16565b90506110a161108e8461108064e8d4a510008561280190919063ffffffff16565b61288790919063ffffffff16565b8560040154612e8c90919063ffffffff16565b8460040181905550438460030181905550505050505b50565b600080600a84815481106110ca57fe5b906000526020600020906006020190506000600b600086815260200190815260200160002060008573ffffffffffffffffffffffffffffffffffffffff1673ffffffffffffffffffffffffffffffffffffffff1681526020019081526020016000209050600082600401549050600083600501549050836003015443118015611154575060008114155b156111ef576000611169856003015443611602565b905060006111ac60085461119e88600201546111906007548761280190919063ffffffff16565b61280190919063ffffffff16565b61288790919063ffffffff16565b90506111ea6111db846111cd64e8d4a510008561280190919063ffffffff16565b61288790919063ffffffff16565b85612e8c90919063ffffffff16565b935050505b611233836001015461122564e8d4a5100061121786886000015461280190919063ffffffff16565b61288790919063ffffffff16565b6128d190919063ffffffff16565b94505050505092915050565b6112476127f9565b73ffffffffffffffffffffffffffffffffffffffff1660008054906101000a900473ffffffffffffffffffffffffffffffffffffffff1673ffffffffffffffffffffffffffffffffffffffff1614611307576040517f08c379a00000000000000000000000000000000000000000000000000000000081526004018080602001828103825260208152602001807f4f776e61626c653a2063616c6c6572206973206e6f7420746865206f776e657281525060200191505060405180910390fd5b6000600954431161131a5760095461131c565b435b905061133384600854612e8c90919063ffffffff16565b600881905550600a6040518060c001604052808573ffffffffffffffffffffffffffffffffffffffff168152602001848152602001868152602001838152602001600081526020016000815250908060018154018082558091505060019003906000526020600020906006020160009091909190915060008201518160000160006101000a81548173ffffffffffffffffffffffffffffffffffffffff021916908373ffffffffffffffffffffffffffffffffffffffff1602179055506020820151816001015560408201518160020155606082015181600301556080820151816004015560a08201518160050155505050505050565b60005b600a805490508110156114505761144381611f9a565b808060010191505061142d565b50565b61145b6127f9565b73ffffffffffffffffffffffffffffffffffffffff1660008054906101000a900473ffffffffffffffffffffffffffffffffffffffff1673ffffffffffffffffffffffffffffffffffffffff161461151b576040517f08c379a00000000000000000000000000000000000000000000000000000000081526004018080602001828103825260208152602001807f4f776e61626c653a2063616c6c6572206973206e6f7420746865206f776e657281525060200191505060405180910390fd5b600073ffffffffffffffffffffffffffffffffffffffff1660008054906101000a900473ffffffffffffffffffffffffffffffffffffffff1673ffffffffffffffffffffffffffffffffffffffff167f8be0079c531659141344cd1fd0a4f28419497f9722a3daafe3b4186f6b6457e060405160405180910390a360008060006101000a81548173ffffffffffffffffffffffffffffffffffffffff021916908373ffffffffffffffffffffffffffffffffffffffff160217905550565b60008060009054906101000a900473ffffffffffffffffffffffffffffffffffffffff16905090565b600061161783836128d190919063ffffffff16565b905092915050565b600b602052816000526040600020602052806000526040600020600091509150508060000154908060010154908060020154905083565b60005b600a8054905081101561167c5761166f81610fba565b8080600101915050611659565b50565b60001515600260009054906101000a900460ff16151514611708576040517f08c379a000000000000000000000000000000000000000000000000000000000815260040180806020018281038252601a8152602001807f496e697469616c206d7573742072756e206f6e63652074696d6500000000000081525060200191505060405180910390fd5b6001600260006101000a81548160ff021916908315150217905550876000806101000a81548173ffffffffffffffffffffffffffffffffffffffff021916908373ffffffffffffffffffffffffffffffffffffffff160217905550856009819055508460078190555083600260016101000a81548173ffffffffffffffffffffffffffffffffffffffff021916908373ffffffffffffffffffffffffffffffffffffffff16021790555082600360006101000a81548173ffffffffffffffffffffffffffffffffffffffff021916908373ffffffffffffffffffffffffffffffffffffffff16021790555081600460006101000a81548173ffffffffffffffffffffffffffffffffffffffff021916908373ffffffffffffffffffffffffffffffffffffffff16021790555080600560006101000a81548173ffffffffffffffffffffffffffffffffffffffff021916908373ffffffffffffffffffffffffffffffffffffffff16021790555086600660006101000a81548173ffffffffffffffffffffffffffffffffffffffff021916908373ffffffffffffffffffffffffffffffffffffffff16021790555060016008819055505050505050505050565b6118d06127f9565b73ffffffffffffffffffffffffffffffffffffffff1660008054906101000a900473ffffffffffffffffffffffffffffffffffffffff1673ffffffffffffffffffffffffffffffffffffffff1614611990576040517f08c379a00000000000000000000000000000000000000000000000000000000081526004018080602001828103825260208152602001807f4f776e61626c653a2063616c6c6572206973206e6f7420746865206f776e657281525060200191505060405180910390fd5b80600460006101000a81548173ffffffffffffffffffffffffffffffffffffffff021916908373ffffffffffffffffffffffffffffffffffffffff16021790555050565b60075481565b60606119e46127f9565b73ffffffffffffffffffffffffffffffffffffffff1660008054906101000a900473ffffffffffffffffffffffffffffffffffffffff1673ffffffffffffffffffffffffffffffffffffffff1614611aa4576040517f08c379a00000000000000000000000000000000000000000000000000000000081526004018080602001828103825260208152602001807f4f776e61626c653a2063616c6c6572206973206e6f7420746865206f776e657281525060200191505060405180910390fd5b84846000818110611ab157fe5b9050602002013573ffffffffffffffffffffffffffffffffffffffff1673ffffffffffffffffffffffffffffffffffffffff1663095ea7b3600560009054906101000a900473ffffffffffffffffffffffffffffffffffffffff16856040518363ffffffff1660e01b8152600401808373ffffffffffffffffffffffffffffffffffffffff16815260200182815260200192505050602060405180830381600087803b158015611b6057600080fd5b505af1158015611b74573d6000803e3d6000fd5b505050506040513d6020811015611b8a57600080fd5b810190808051906020019092919050505050600560009054906101000a900473ffffffffffffffffffffffffffffffffffffffff1673ffffffffffffffffffffffffffffffffffffffff166338ed1739846000888830886040518763ffffffff1660e01b815260040180878152602001868152602001806020018473ffffffffffffffffffffffffffffffffffffffff1681526020018381526020018281038252868682818152602001925060200280828437600081840152601f19601f820116905080830192505050975050505050505050600060405180830381600087803b158015611c7757600080fd5b505af1158015611c8b573d6000803e3d6000fd5b505050506040513d6000823e3d601f19601f820116820180604052506020811015611cb557600080fd5b8101908080516040519392919084640100000000821115611cd557600080fd5b83820191506020820185811115611ceb57600080fd5b8251866020820283011164010000000082111715611d0857600080fd5b8083526020830192505050908051906020019060200280838360005b83811015611d3f578082015181840152602081019050611d24565b50505050905001604052505050905084846001818110611d5b57fe5b9050602002013573ffffffffffffffffffffffffffffffffffffffff1673ffffffffffffffffffffffffffffffffffffffff1663a9059cbb600260019054906101000a900473ffffffffffffffffffffffffffffffffffffffff16611de1600285600187510381518110611dcb57fe5b602002602001015161288790919063ffffffff16565b6040518363ffffffff1660e01b8152600401808373ffffffffffffffffffffffffffffffffffffffff16815260200182815260200192505050602060405180830381600087803b158015611e3457600080fd5b505af1158015611e48573d6000803e3d6000fd5b505050506040513d6020811015611e5e57600080fd5b81019080805190602001909291905050505084846001818110611e7d57fe5b9050602002013573ffffffffffffffffffffffffffffffffffffffff1673ffffffffffffffffffffffffffffffffffffffff1663a9059cbb600360009054906101000a900473ffffffffffffffffffffffffffffffffffffffff16611f03600285600187510381518110611eed57fe5b602002602001015161288790919063ffffffff16565b6040518363ffffffff1660e01b8152600401808373ffffffffffffffffffffffffffffffffffffffff16815260200182815260200192505050602060405180830381600087803b158015611f5657600080fd5b505af1158015611f6a573d6000803e3d6000fd5b505050506040513d6020811015611f8057600080fd5b810190808051906020019092919050505050949350505050565b6000600a8281548110611fa957fe5b906000526020600020906006020190506000600b600084815260200190815260200160002060003373ffffffffffffffffffffffffffffffffffffffff1673ffffffffffffffffffffffffffffffffffffffff168152602001908152602001600020905061201683610fba565b6000612060826001015461205264e8d4a510006120448760040154876000015461280190919063ffffffff16565b61288790919063ffffffff16565b6128d190919063ffffffff16565b9050600081111561209957612098600660009054906101000a900473ffffffffffffffffffffffffffffffffffffffff16338361291b565b5b6120cb64e8d4a510006120bd8560040154856000015461280190919063ffffffff16565b61288790919063ffffffff16565b8260010181905550833373ffffffffffffffffffffffffffffffffffffffff167fcbab895d7f104f6d1681ef2e6a580e5c082f1aa35a7d0c9d1be73d0018e05e8860006040518082815260200191505060405180910390a350505050565b6121316127f9565b73ffffffffffffffffffffffffffffffffffffffff1660008054906101000a900473ffffffffffffffffffffffffffffffffffffffff1673ffffffffffffffffffffffffffffffffffffffff16146121f1576040517f08c379a00000000000000000000000000000000000000000000000000000000081526004018080602001828103825260208152602001807f4f776e61626c653a2063616c6c6572206973206e6f7420746865206f776e657281525060200191505060405180910390fd5b801561227a57612236600260019054906101000a900473ffffffffffffffffffffffffffffffffffffffff1661223160028561288790919063ffffffff16565b6130c4565b612275600360009054906101000a900473ffffffffffffffffffffffffffffffffffffffff1661227060028561288790919063ffffffff16565b6130c4565b6122fb565b6122ba83600260019054906101000a900473ffffffffffffffffffffffffffffffffffffffff166122b560028661288790919063ffffffff16565b613223565b6122fa83600360009054906101000a900473ffffffffffffffffffffffffffffffffffffffff166122f560028661288790919063ffffffff16565b613223565b5b505050565b6000600a838154811061230f57fe5b906000526020600020906006020190506000600b600085815260200190815260200160002060003373ffffffffffffffffffffffffffffffffffffffff1673ffffffffffffffffffffffffffffffffffffffff168152602001908152602001600020905082816000015410156123d0576040517f08c379a0000000000000000000000000000000000000000000000000000000008152600401808060200182810382526025815260200180613a3b6025913960400191505060405180910390fd5b6123d984610fba565b6000612423826001015461241564e8d4a510006124078760040154876000015461280190919063ffffffff16565b61288790919063ffffffff16565b6128d190919063ffffffff16565b9050600081111561245c5761245b600660009054906101000a900473ffffffffffffffffffffffffffffffffffffffff16338361291b565b5b600084111561255b5761247c8483600001546128d190919063ffffffff16565b826000018190555060006124cb6124bc6127106124ae61249f87600201546133e9565b8961280190919063ffffffff16565b61288790919063ffffffff16565b866128d190919063ffffffff16565b9050600084600101541461250b5761250a600460009054906101000a900473ffffffffffffffffffffffffffffffffffffffff168560010154876134b7565b5b6125228585600501546128d190919063ffffffff16565b84600501819055506125598460000160009054906101000a900473ffffffffffffffffffffffffffffffffffffffff163383613223565b505b61258d64e8d4a5100061257f8560040154856000015461280190919063ffffffff16565b61288790919063ffffffff16565b8260010181905550843373ffffffffffffffffffffffffffffffffffffffff167fcbab895d7f104f6d1681ef2e6a580e5c082f1aa35a7d0c9d1be73d0018e05e88866040518082815260200191505060405180910390a35050505050565b6125f36127f9565b73ffffffffffffffffffffffffffffffffffffffff1660008054906101000a900473ffffffffffffffffffffffffffffffffffffffff1673ffffffffffffffffffffffffffffffffffffffff16146126b3576040517f08c379a00000000000000000000000000000000000000000000000000000000081526004018080602001828103825260208152602001807f4f776e61626c653a2063616c6c6572206973206e6f7420746865206f776e657281525060200191505060405180910390fd5b6126f8816126ea600a85815481106126c757fe5b9060005260206000209060060201600201546008546128d190919063ffffffff16565b612e8c90919063ffffffff16565b60088190555080600a838154811061270c57fe5b9060005260206000209060060201600201819055505050565b61272d6127f9565b73ffffffffffffffffffffffffffffffffffffffff1660008054906101000a900473ffffffffffffffffffffffffffffffffffffffff1673ffffffffffffffffffffffffffffffffffffffff16146127ed576040517f08c379a00000000000000000000000000000000000000000000000000000000081526004018080602001828103825260208152602001807f4f776e61626c653a2063616c6c6572206973206e6f7420746865206f776e657281525060200191505060405180910390fd5b6127f681613667565b50565b600033905090565b6000808314156128145760009050612881565b600082840290508284828161282557fe5b041461287c576040517f08c379a0000000000000000000000000000000000000000000000000000000008152600401808060200182810382526021815260200180613a606021913960400191505060405180910390fd5b809150505b92915050565b60006128c983836040518060400160405280601a81526020017f536166654d6174683a206469766973696f6e206279207a65726f0000000000008152506137aa565b905092915050565b600061291383836040518060400160405280601e81526020017f536166654d6174683a207375627472616374696f6e206f766572666c6f770000815250613870565b905092915050565b600060608473ffffffffffffffffffffffffffffffffffffffff166340c10f198585604051602401808373ffffffffffffffffffffffffffffffffffffffff168152602001828152602001925050506040516020818303038152906040529060e01b6020820180517bffffffffffffffffffffffffffffffffffffffffffffffffffffffff83818316178352505050506040518082805190602001908083835b602083106129de57805182526020820191506020810190506020830392506129bb565b6001836020036101000a0380198251168184511680821785525050505050509050019150506000604051808303816000865af19150503d8060008114612a40576040519150601f19603f3d011682016040523d82523d6000602084013e612a45565b606091505b5091509150818015612a855750600081511480612a845750808060200190516020811015612a7257600080fd5b81019080805190602001909291905050505b5b612ada576040517f08c379a00000000000000000000000000000000000000000000000000000000081526004018080602001828103825260298152602001806139316029913960400191505060405180910390fd5b5050505050565b600060608573ffffffffffffffffffffffffffffffffffffffff166323b872dd868686604051602401808473ffffffffffffffffffffffffffffffffffffffff1681526020018373ffffffffffffffffffffffffffffffffffffffff16815260200182815260200193505050506040516020818303038152906040529060e01b6020820180517bffffffffffffffffffffffffffffffffffffffffffffffffffffffff83818316178352505050506040518082805190602001908083835b60208310612bc25780518252602082019150602081019050602083039250612b9f565b6001836020036101000a0380198251168184511680821785525050505050509050019150506000604051808303816000865af19150503d8060008114612c24576040519150601f19603f3d011682016040523d82523d6000602084013e612c29565b606091505b5091509150818015612c695750600081511480612c685750808060200190516020811015612c5657600080fd5b81019080805190602001909291905050505b5b612cbe576040517f08c379a00000000000000000000000000000000000000000000000000000000081526004018080602001828103825260318152602001806139b46031913960400191505060405180910390fd5b505050505050565b600060608473ffffffffffffffffffffffffffffffffffffffff1663095ea7b38585604051602401808373ffffffffffffffffffffffffffffffffffffffff168152602001828152602001925050506040516020818303038152906040529060e01b6020820180517bffffffffffffffffffffffffffffffffffffffffffffffffffffffff83818316178352505050506040518082805190602001908083835b60208310612d895780518252602082019150602081019050602083039250612d66565b6001836020036101000a0380198251168184511680821785525050505050509050019150506000604051808303816000865af19150503d8060008114612deb576040519150601f19603f3d011682016040523d82523d6000602084013e612df0565b606091505b5091509150818015612e305750600081511480612e2f5750808060200190516020811015612e1d57600080fd5b81019080805190602001909291905050505b5b612e85576040517f08c379a000000000000000000000000000000000000000000000000000000000815260040180806020018281038252602b815260200180613a81602b913960400191505060405180910390fd5b5050505050565b600080828401905083811015612f0a576040517f08c379a000000000000000000000000000000000000000000000000000000000815260040180806020018281038252601b8152602001807f536166654d6174683a206164646974696f6e206f766572666c6f77000000000081525060200191505060405180910390fd5b8091505092915050565b600060608473ffffffffffffffffffffffffffffffffffffffff1663e2bbb158858560405160240180838152602001828152602001925050506040516020818303038152906040529060e01b6020820180517bffffffffffffffffffffffffffffffffffffffffffffffffffffffff83818316178352505050506040518082805190602001908083835b60208310612fc15780518252602082019150602081019050602083039250612f9e565b6001836020036101000a0380198251168184511680821785525050505050509050019150506000604051808303816000865af19150503d8060008114613023576040519150601f19603f3d011682016040523d82523d6000602084013e613028565b606091505b50915091508180156130685750600081511480613067575080806020019051602081101561305557600080fd5b81019080805190602001909291905050505b5b6130bd576040517f08c379a000000000000000000000000000000000000000000000000000000000815260040180806020018281038252602a8152602001806139e5602a913960400191505060405180910390fd5b5050505050565b60008273ffffffffffffffffffffffffffffffffffffffff1682600067ffffffffffffffff811180156130f657600080fd5b506040519080825280601f01601f1916602001820160405280156131295781602001600182028036833780820191505090505b506040518082805190602001908083835b6020831061315d578051825260208201915060208101905060208303925061313a565b6001836020036101000a03801982511681845116808217855250505050505090500191505060006040518083038185875af1925050503d80600081146131bf576040519150601f19603f3d011682016040523d82523d6000602084013e6131c4565b606091505b505090508061321e576040517f08c379a000000000000000000000000000000000000000000000000000000000815260040180806020018281038252603481526020018061395a6034913960400191505060405180910390fd5b505050565b600060608473ffffffffffffffffffffffffffffffffffffffff1663a9059cbb8585604051602401808373ffffffffffffffffffffffffffffffffffffffff168152602001828152602001925050506040516020818303038152906040529060e01b6020820180517bffffffffffffffffffffffffffffffffffffffffffffffffffffffff83818316178352505050506040518082805190602001908083835b602083106132e657805182526020820191506020810190506020830392506132c3565b6001836020036101000a0380198251168184511680821785525050505050509050019150506000604051808303816000865af19150503d8060008114613348576040519150601f19603f3d011682016040523d82523d6000602084013e61334d565b606091505b509150915081801561338d575060008151148061338c575080806020019051602081101561337a57600080fd5b81019080805190602001909291905050505b5b6133e2576040517f08c379a000000000000000000000000000000000000000000000000000000000815260040180806020018281038252602d815260200180613aac602d913960400191505060405180910390fd5b5050505050565b600061340162093a8083612e8c90919063ffffffff16565b42101561341157603290506134b2565b6134276212750083612e8c90919063ffffffff16565b42101561343757602890506134b1565b61344d62278d0083612e8c90919063ffffffff16565b42101561345d57601e90506134b0565b6134736276a70083612e8c90919063ffffffff16565b42101561348357601490506134af565b61349962ed4e0083612e8c90919063ffffffff16565b4210156134a957600a90506134ae565b600090505b5b5b5b5b919050565b600060608473ffffffffffffffffffffffffffffffffffffffff1663441a3e70858560405160240180838152602001828152602001925050506040516020818303038152906040529060e01b6020820180517bffffffffffffffffffffffffffffffffffffffffffffffffffffffff83818316178352505050506040518082805190602001908083835b602083106135645780518252602082019150602081019050602083039250613541565b6001836020036101000a0380198251168184511680821785525050505050509050019150506000604051808303816000865af19150503d80600081146135c6576040519150601f19603f3d011682016040523d82523d6000602084013e6135cb565b606091505b509150915081801561360b575060008151148061360a57508080602001905160208110156135f857600080fd5b81019080805190602001909291905050505b5b613660576040517f08c379a000000000000000000000000000000000000000000000000000000000815260040180806020018281038252602c815260200180613a0f602c913960400191505060405180910390fd5b5050505050565b600073ffffffffffffffffffffffffffffffffffffffff168173ffffffffffffffffffffffffffffffffffffffff1614156136ed576040517f08c379a000000000000000000000000000000000000000000000000000000000815260040180806020018281038252602681526020018061398e6026913960400191505060405180910390fd5b8073ffffffffffffffffffffffffffffffffffffffff1660008054906101000a900473ffffffffffffffffffffffffffffffffffffffff1673ffffffffffffffffffffffffffffffffffffffff167f8be0079c531659141344cd1fd0a4f28419497f9722a3daafe3b4186f6b6457e060405160405180910390a3806000806101000a81548173ffffffffffffffffffffffffffffffffffffffff021916908373ffffffffffffffffffffffffffffffffffffffff16021790555050565b60008083118290613856576040517f08c379a00000000000000000000000000000000000000000000000000000000081526004018080602001828103825283818151815260200191508051906020019080838360005b8381101561381b578082015181840152602081019050613800565b50505050905090810190601f1680156138485780820380516001836020036101000a031916815260200191505b509250505060405180910390fd5b50600083858161386257fe5b049050809150509392505050565b600083831115829061391d576040517f08c379a00000000000000000000000000000000000000000000000000000000081526004018080602001828103825283818151815260200191508051906020019080838360005b838110156138e25780820151818401526020810190506138c7565b50505050905090810190601f16801561390f5780820380516001836020036101000a031916815260200191505b509250505060405180910390fd5b506000838503905080915050939250505056fe5472616e7366657248656c7065723a3a736166655265776172643a20726577617264206661696c65645472616e7366657248656c7065723a3a736166655472616e73666572424e423a20424e42207472616e73666572206661696c65644f776e61626c653a206e6577206f776e657220697320746865207a65726f20616464726573735472616e7366657248656c7065723a3a7472616e7366657246726f6d3a207472616e7366657246726f6d206661696c656450616e63616b6548656c7065723a3a736166654465706f7369743a206465706f736974206661696c656450616e63616b6548656c7065723a3a7361666557697468647261773a207769746864726177206661696c656477697468647261773a20616d6f756e742069732065786365656420746f2062616c616e6365536166654d6174683a206d756c7469706c69636174696f6e206f766572666c6f775472616e7366657248656c7065723a3a73616665417070726f76653a20617070726f7665206661696c65645472616e7366657248656c7065723a3a736166655472616e736665723a207472616e73666572206661696c6564a26469706673582212202eecbb604f2649da80a4970a6c1dad1d72c583662e68cb86c7822ed5ff1e274564736f6c634300060c0033",
  "immutableReferences": {},
  "source": "//SPDX-License-Identifier: UNLICENSED\n\npragma solidity 0.6.12;\n\nimport '@openzeppelin/contracts/utils/Context.sol';\nimport '@openzeppelin/contracts/utils/ReentrancyGuard.sol';\n\n// base on Ownable.sol\ncontract FwarOwnable is Context {\n    address internal _owner;\n\n    event OwnershipTransferred(address indexed previousOwner, address indexed newOwner);\n\n    /**\n     * @dev Returns the address of the current owner.\n     */\n    function owner() public view returns (address) {\n        return _owner;\n    }\n\n    /**\n     * @dev Throws if called by any account other than the owner.\n     */\n    modifier onlyOwner() {\n        require(_owner == _msgSender(), 'Ownable: caller is not the owner');\n        _;\n    }\n\n    /**\n     * @dev Leaves the contract without owner. It will not be possible to call\n     * `onlyOwner` functions anymore. Can only be called by the current owner.\n     *\n     * NOTE: Renouncing ownership will leave the contract without an owner,\n     * thereby removing any functionality that is only available to the owner.\n     */\n    function renounceOwnership() public onlyOwner {\n        emit OwnershipTransferred(_owner, address(0));\n        _owner = address(0);\n    }\n\n    /**\n     * @dev Transfers ownership of the contract to a new account (`newOwner`).\n     * Can only be called by the current owner.\n     */\n    function transferOwnership(address newOwner) public onlyOwner {\n        _transferOwnership(newOwner);\n    }\n\n    /**\n     * @dev Transfers ownership of the contract to a new account (`newOwner`).\n     */\n    function _transferOwnership(address newOwner) internal {\n        require(newOwner != address(0), 'Ownable: new owner is the zero address');\n        emit OwnershipTransferred(_owner, newOwner);\n        _owner = newOwner;\n    }\n}\n\nlibrary SafeMath {\n    /**\n     * @dev Returns the addition of two unsigned integers, reverting on\n     * overflow.\n     *\n     * Counterpart to Solidity's `+` operator.\n     *\n     * Requirements:\n     *\n     * - Addition cannot overflow.\n     */\n    function add(uint256 a, uint256 b) internal pure returns (uint256) {\n        uint256 c = a + b;\n        require(c >= a, 'SafeMath: addition overflow');\n\n        return c;\n    }\n\n    /**\n     * @dev Returns the subtraction of two unsigned integers, reverting on\n     * overflow (when the result is negative).\n     *\n     * Counterpart to Solidity's `-` operator.\n     *\n     * Requirements:\n     *\n     * - Subtraction cannot overflow.\n     */\n    function sub(uint256 a, uint256 b) internal pure returns (uint256) {\n        return sub(a, b, 'SafeMath: subtraction overflow');\n    }\n\n    /**\n     * @dev Returns the subtraction of two unsigned integers, reverting with custom message on\n     * overflow (when the result is negative).\n     *\n     * Counterpart to Solidity's `-` operator.\n     *\n     * Requirements:\n     *\n     * - Subtraction cannot overflow.\n     */\n    function sub(\n        uint256 a,\n        uint256 b,\n        string memory errorMessage\n    ) internal pure returns (uint256) {\n        require(b <= a, errorMessage);\n        uint256 c = a - b;\n\n        return c;\n    }\n\n    /**\n     * @dev Returns the multiplication of two unsigned integers, reverting on\n     * overflow.\n     *\n     * Counterpart to Solidity's `*` operator.\n     *\n     * Requirements:\n     *\n     * - Multiplication cannot overflow.\n     */\n    function mul(uint256 a, uint256 b) internal pure returns (uint256) {\n        // Gas optimization: this is cheaper than requiring 'a' not being zero, but the\n        // benefit is lost if 'b' is also tested.\n        // See: https://github.com/OpenZeppelin/openzeppelin-contracts/pull/522\n        if (a == 0) {\n            return 0;\n        }\n\n        uint256 c = a * b;\n        require(c / a == b, 'SafeMath: multiplication overflow');\n\n        return c;\n    }\n\n    /**\n     * @dev Returns the integer division of two unsigned integers. Reverts on\n     * division by zero. The result is rounded towards zero.\n     *\n     * Counterpart to Solidity's `/` operator. Note: this function uses a\n     * `revert` opcode (which leaves remaining gas untouched) while Solidity\n     * uses an invalid opcode to revert (consuming all remaining gas).\n     *\n     * Requirements:\n     *\n     * - The divisor cannot be zero.\n     */\n    function div(uint256 a, uint256 b) internal pure returns (uint256) {\n        return div(a, b, 'SafeMath: division by zero');\n    }\n\n    /**\n     * @dev Returns the integer division of two unsigned integers. Reverts with custom message on\n     * division by zero. The result is rounded towards zero.\n     *\n     * Counterpart to Solidity's `/` operator. Note: this function uses a\n     * `revert` opcode (which leaves remaining gas untouched) while Solidity\n     * uses an invalid opcode to revert (consuming all remaining gas).\n     *\n     * Requirements:\n     *\n     * - The divisor cannot be zero.\n     */\n    function div(\n        uint256 a,\n        uint256 b,\n        string memory errorMessage\n    ) internal pure returns (uint256) {\n        require(b > 0, errorMessage);\n        uint256 c = a / b;\n        // assert(a == b * c + a % b); // There is no case in which this doesn't hold\n\n        return c;\n    }\n\n    /**\n     * @dev Returns the remainder of dividing two unsigned integers. (unsigned integer modulo),\n     * Reverts when dividing by zero.\n     *\n     * Counterpart to Solidity's `%` operator. This function uses a `revert`\n     * opcode (which leaves remaining gas untouched) while Solidity uses an\n     * invalid opcode to revert (consuming all remaining gas).\n     *\n     * Requirements:\n     *\n     * - The divisor cannot be zero.\n     */\n    function mod(uint256 a, uint256 b) internal pure returns (uint256) {\n        return mod(a, b, 'SafeMath: modulo by zero');\n    }\n\n    /**\n     * @dev Returns the remainder of dividing two unsigned integers. (unsigned integer modulo),\n     * Reverts with custom message when dividing by zero.\n     *\n     * Counterpart to Solidity's `%` operator. This function uses a `revert`\n     * opcode (which leaves remaining gas untouched) while Solidity uses an\n     * invalid opcode to revert (consuming all remaining gas).\n     *\n     * Requirements:\n     *\n     * - The divisor cannot be zero.\n     */\n    function mod(\n        uint256 a,\n        uint256 b,\n        string memory errorMessage\n    ) internal pure returns (uint256) {\n        require(b != 0, errorMessage);\n        return a % b;\n    }\n\n    function min(uint256 x, uint256 y) internal pure returns (uint256 z) {\n        z = x < y ? x : y;\n    }\n\n    // babylonian method (https://en.wikipedia.org/wiki/Methods_of_computing_square_roots#Babylonian_method)\n    function sqrt(uint256 y) internal pure returns (uint256 z) {\n        if (y > 3) {\n            z = y;\n            uint256 x = y / 2 + 1;\n            while (x < z) {\n                z = x;\n                x = (y / x + x) / 2;\n            }\n        } else if (y != 0) {\n            z = 1;\n        }\n    }\n}\n\ninterface IBEP20 {\n    /**\n     * @dev Returns the amount of tokens in existence.\n     */\n    function totalSupply() external view returns (uint256);\n\n    /**\n     * @dev Returns the token decimals.\n     */\n    function decimals() external view returns (uint8);\n\n    /**\n     * @dev Returns the token symbol.\n     */\n    function symbol() external view returns (string memory);\n\n    /**\n     * @dev Returns the token name.\n     */\n    function name() external view returns (string memory);\n\n    /**\n     * @dev Returns the bep token owner.\n     */\n    function getOwner() external view returns (address);\n\n    /**\n     * @dev Returns the amount of tokens owned by `account`.\n     */\n    function balanceOf(address account) external view returns (uint256);\n\n    /**\n     * @dev Moves `amount` tokens from the caller's account to `recipient`.\n     *\n     * Returns a boolean value indicating whether the operation succeeded.\n     *\n     * Emits a {Transfer} event.\n     */\n    function transfer(address recipient, uint256 amount) external returns (bool);\n\n    /**\n     * @dev Returns the remaining number of tokens that `spender` will be\n     * allowed to spend on behalf of `owner` through {transferFrom}. This is\n     * zero by default.\n     *\n     * This value changes when {approve} or {transferFrom} are called.\n     */\n    function allowance(address _owner, address spender) external view returns (uint256);\n\n    /**\n     * @dev Sets `amount` as the allowance of `spender` over the caller's tokens.\n     *\n     * Returns a boolean value indicating whether the operation succeeded.\n     *\n     * IMPORTANT: Beware that changing an allowance with this method brings the risk\n     * that someone may use both the old and the new allowance by unfortunate\n     * transaction ordering. One possible solution to mitigate this race\n     * condition is to first reduce the spender's allowance to 0 and set the\n     * desired value afterwards:\n     * https://github.com/ethereum/EIPs/issues/20#issuecomment-263524729\n     *\n     * Emits an {Approval} event.\n     */\n    function approve(address spender, uint256 amount) external returns (bool);\n\n    /**\n     * @dev Moves `amount` tokens from `sender` to `recipient` using the\n     * allowance mechanism. `amount` is then deducted from the caller's\n     * allowance.\n     *\n     * Returns a boolean value indicating whether the operation succeeded.\n     *\n     * Emits a {Transfer} event.\n     */\n    function transferFrom(\n        address sender,\n        address recipient,\n        uint256 amount\n    ) external returns (bool);\n\n    /**\n     * @dev Emitted when `value` tokens are moved from one account (`from`) to\n     * another (`to`).\n     *\n     * Note that `value` may be zero.\n     */\n    event Transfer(address indexed from, address indexed to, uint256 value);\n\n    /**\n     * @dev Emitted when the allowance of a `spender` for an `owner` is set by\n     * a call to {approve}. `value` is the new allowance.\n     */\n    event Approval(address indexed owner, address indexed spender, uint256 value);\n}\ninterface IPancakeSwap {\n    function swapExactTokensForTokens(uint256 amountIn, uint256 amountOutMin, address[] calldata path, address to, uint256 deadline) external returns(uint256[] memory amounts);\n}\n\nlibrary TransferHelper {\n    function safeReward(\n        address token,\n        address to,\n        uint256 value\n    ) internal {\n        // bytes4(keccak256(bytes('mint(address,uint256)')));\n        (bool success, bytes memory data) = token.call(abi.encodeWithSelector(0x40c10f19, to, value));\n        require(\n            success && (data.length == 0 || abi.decode(data, (bool))),\n            'TransferHelper::safeReward: reward failed'\n        );\n    }\n\n    function safeApprove(\n        address token,\n        address to,\n        uint256 value\n    ) internal {\n        // bytes4(keccak256(bytes('approve(address,uint256)')));\n        (bool success, bytes memory data) = token.call(abi.encodeWithSelector(0x095ea7b3, to, value));\n        require(\n            success && (data.length == 0 || abi.decode(data, (bool))),\n            'TransferHelper::safeApprove: approve failed'\n        );\n    }\n\n    function safeTransfer(\n        address token,\n        address to,\n        uint256 value\n    ) internal {\n        // bytes4(keccak256(bytes('transfer(address,uint256)')));\n        (bool success, bytes memory data) = token.call(abi.encodeWithSelector(0xa9059cbb, to, value));\n        require(\n            success && (data.length == 0 || abi.decode(data, (bool))),\n            'TransferHelper::safeTransfer: transfer failed'\n        );\n    }\n\n    function safeTransferFrom(\n        address token,\n        address from,\n        address to,\n        uint256 value\n    ) internal {\n        // bytes4(keccak256(bytes('transferFrom(address,address,uint256)')));\n        (bool success, bytes memory data) = token.call(abi.encodeWithSelector(0x23b872dd, from, to, value));\n        require(\n            success && (data.length == 0 || abi.decode(data, (bool))),\n            'TransferHelper::transferFrom: transferFrom failed'\n        );\n    }\n\n    function safeTransferBNB(address to, uint256 value) internal {\n        (bool success, ) = to.call{value: value}(new bytes(0));\n        require(success, 'TransferHelper::safeTransferBNB: BNB transfer failed');\n    }\n}\n\nlibrary PancakeHelper {\n    function safeDeposit(\n        address pancakeMasterChef,\n        uint256 pid,\n        uint256 amount\n    ) internal {\n        // bytes4(keccak256(bytes('deposit(uint256,uint256)')));\n        (bool success, bytes memory data) = pancakeMasterChef.call(abi.encodeWithSelector(0xe2bbb158, pid, amount));\n        require(\n            success && (data.length == 0 || abi.decode(data, (bool))),\n            'PancakeHelper::safeDeposit: deposit failed'\n        );\n    }\n\n    function safeWithdraw(\n        address pancakeMasterChef,\n        uint256 pid,\n        uint256 amount\n    ) internal {\n        // bytes4(keccak256(bytes('withdraw(uint256,uint256)')));\n        (bool success, bytes memory data) = pancakeMasterChef.call(abi.encodeWithSelector(0x441a3e70, pid, amount));\n        require(\n            success && (data.length == 0 || abi.decode(data, (bool))),\n            'PancakeHelper::safeWithdraw: withdraw failed'\n        );\n    }\n\n    function safeSwapExactTokensForTokens(\n        address pancakeSwap,\n        uint256 amountIn,\n        uint256 amountOutMin,\n        address[] calldata path,\n        address to,\n        uint256 deadline\n    ) internal returns(uint256[] memory amounts){\n        //really?\n        //bytes4(keccak256(bytes('swapExactTokensForTokens(uint256,uint256,address[],address,uint256)')));\n        (bool success, bytes memory data) = pancakeSwap.call(abi.encodeWithSelector(0x38ed1739, amountIn, amountOutMin, path, to, deadline));\n        require(\n            success,\n            'PancakeHelper::safeSwapExactTokensForTokens: swap failed'\n        );\n        amounts = abi.decode(data, (uint256[]));\n    }\n}\n\n\ncontract FwarPools is FwarOwnable, ReentrancyGuard {\n    using SafeMath for uint256;\n\n    struct UserInfo {\n        uint256 amount;\n        uint256 rewardDebt;\n        uint256 lastDepositedTime;\n    }\n\n    struct PoolInfo {\n        address lpToken;  // pancake BEP20 lptoken's address\n        uint256 pancakeLpId; // pancake pool LP stake ID\n        uint256 allocPoint; // How many allocation points assigned to this pool. CAKEs to distribute per block.\n        uint256 lastRewardBlock; // Last block number that CAKEs distribution occurs.\n        uint256 accKeyPerShare; // Accumulated CAKEs per share, times 1e12. See below.\n        uint256 lpSupply; // Total supply of LP pool\n    }\n    \n    bool internal initialized;\n    address internal teamWallet;\n    address public devAddress;\n    address internal pancakeMasterChef; // pancake masterChef's address\n    address internal pancakeSwap; // pancake router's address\n    address public key;  // key token's address\n\n    // common\n    uint256 public keyPerBlock;\n    uint256 public totalAllocPoint;\n    uint256 public startBlock;\n\n    // transactionFee\n    uint256 internal constant TRANSACTION_Fee_A = 50; // 0.5%\n    uint256 internal constant TRANSACTION_Fee_B = 40; // 0.4%\n    uint256 internal constant TRANSACTION_Fee_C = 30; // 0.3%\n    uint256 internal constant TRANSACTION_Fee_D = 20; // 0.2%\n    uint256 internal constant TRANSACTION_Fee_E = 10; // 0.1%\n\n    // withdraw fee period\n    uint256 internal constant FEE_PERIOD_A = 7 days;\n    uint256 internal constant FEE_PERIOD_B = 14 days;\n    uint256 internal constant FEE_PERIOD_C = 30 days;\n    uint256 internal constant FEE_PERIOD_D = 90 days;\n    uint256 internal constant FEE_PERIOD_E = 180 days;\n\n    PoolInfo[] public poolInfo;\n    mapping (uint256 => mapping (address => UserInfo)) public userInfo;\n    event PoolStake(address indexed user, uint256 indexed pid, uint256 amount);\n    event PoolWithdraw(address indexed user, uint256 indexed pid, uint256 amount);\n\n    function initialize(\n        address _initialOwner,\n        address _key,\n        uint256 _startBlock,\n        uint256 _keyPerBlock,\n        address _teamWallet,\n        address _devAddress,\n        address _pancakeMasterChef,\n        address _pancakeSwap\n    ) public {\n        require(initialized == false, 'Initial must run once time');\n        initialized = true;\n        _owner =_initialOwner;\n        startBlock = _startBlock;\n        keyPerBlock = _keyPerBlock;\n        teamWallet = _teamWallet;\n        devAddress = _devAddress;\n        pancakeMasterChef = _pancakeMasterChef;\n        pancakeSwap = _pancakeSwap;\n        key = _key;\n        totalAllocPoint = 1;\n    }\n\n    // only called by owner once a day\n    function setKeyPerBlock(uint256 _keyPerBlock) public onlyOwner {\n        keyPerBlock = _keyPerBlock;\n    }\n\n    function setMasterChef(address _pancakeMasterChef) public onlyOwner{\n        pancakeMasterChef = _pancakeMasterChef;\n    }\n\n    function setPancakeSwap(address _pancakeSwap) public onlyOwner {\n        pancakeSwap = _pancakeSwap;\n    }\n\n    function poolLength() external view returns (uint256) {\n        return poolInfo.length;\n    }\n\n    function getMultiplier(uint256 _from, uint256 _to) public pure returns (uint256) {\n        return _to.sub(_from);\n    }\n\n    function _getTransactionFee(uint256 _lastDepositedTime) internal view returns (uint256 transactionFee) {\n        if (block.timestamp < _lastDepositedTime.add(FEE_PERIOD_A)) {\n            transactionFee = TRANSACTION_Fee_A;\n        } else if (block.timestamp < _lastDepositedTime.add(FEE_PERIOD_B)) {\n            transactionFee = TRANSACTION_Fee_B;\n        } else if (block.timestamp < _lastDepositedTime.add(FEE_PERIOD_C)) {\n            transactionFee = TRANSACTION_Fee_C;\n        } else if (block.timestamp < _lastDepositedTime.add(FEE_PERIOD_D)) {\n            transactionFee = TRANSACTION_Fee_D;\n        } else if (block.timestamp < _lastDepositedTime.add(FEE_PERIOD_E)) {\n            transactionFee = TRANSACTION_Fee_E;\n        } else transactionFee = 0;\n    }\n\n\n    //Get all key from all pools\n    function getAllKey() public {\n        for (uint i = 0; i < poolInfo.length; i++) {\n            getKey(i);\n        }\n    }\n\n    //Create a new pool\n    function createPool(uint _allocPoint, address _lpToken, uint256 _pancakeLpId) public onlyOwner {\n        uint256 lastRewardBlock = block.number > startBlock ? block.number : startBlock;\n        totalAllocPoint = totalAllocPoint.add(_allocPoint);\n        poolInfo.push(PoolInfo({\n            lpToken: _lpToken,\n            pancakeLpId: _pancakeLpId,\n            allocPoint: _allocPoint,\n            lastRewardBlock: lastRewardBlock,\n            accKeyPerShare: 0,\n            lpSupply: 0\n        }));\n    }\n\n    //Set allocation point by poolId\n    function setAllocPoint(uint256 _pid, uint256 _allocPoint) public onlyOwner {\n        totalAllocPoint = totalAllocPoint.sub(poolInfo[_pid].allocPoint).add(_allocPoint);\n        poolInfo[_pid].allocPoint = _allocPoint;\n    }\n\n    // View key pending by user\n    function pendingKey(uint256 _id, address _user) external view returns (uint256) {\n        PoolInfo storage pool = poolInfo[_id];\n        UserInfo storage user = userInfo[_id][_user];\n        uint256 accKeyPerShare = pool.accKeyPerShare;\n        uint256 lpSupply = pool.lpSupply;\n        if (block.number > pool.lastRewardBlock && lpSupply != 0) {\n            uint256 multiplier = getMultiplier(pool.lastRewardBlock, block.number);\n            uint256 keyReward = multiplier.mul(keyPerBlock).mul(pool.allocPoint).div(totalAllocPoint);\n            accKeyPerShare = accKeyPerShare.add(keyReward.mul(1e12).div(lpSupply));\n        }\n        return user.amount.mul(accKeyPerShare).div(1e12).sub(user.rewardDebt);\n    }\n\n    function updateAllPool() public {\n        for (uint i = 0; i < poolInfo.length; i++) {\n            updatePool(i);\n        }\n    }\n\n    //Update pool by poolID\n    function updatePool(uint _pid) public {\n        PoolInfo storage pool = poolInfo[_pid];\n        if (block.number <= pool.lastRewardBlock) {\n            return;\n        }\n        uint256 lpSupply = pool.lpSupply;\n        if (lpSupply == 0) {\n            pool.lastRewardBlock = block.number;\n            return;\n        }\n        uint256 multiplier = getMultiplier(pool.lastRewardBlock, block.number);\n        uint256 keyReward = multiplier.mul(keyPerBlock).mul(pool.allocPoint).div(totalAllocPoint);\n        pool.accKeyPerShare = pool.accKeyPerShare.add(keyReward.mul(1e12).div(lpSupply));\n        pool.lastRewardBlock = block.number;\n    }\n\n    // Stake to the pool\n    function poolStake(uint256 _pid, uint256 _amount) public {\n        PoolInfo storage pool = poolInfo[_pid];\n        UserInfo storage user = userInfo[_pid][msg.sender];\n\n        updatePool(_pid);\n        if (user.amount > 0) {\n            uint256 pending = user.amount.mul(pool.accKeyPerShare).div(1e12).sub(user.rewardDebt);\n            if (pending > 0) {\n                TransferHelper.safeReward(key, msg.sender, pending);\n            }\n        }\n        if (_amount > 0) {\n            TransferHelper.safeTransferFrom(pool.lpToken, msg.sender, address(this), _amount);\n            TransferHelper.safeApprove(pool.lpToken, pancakeMasterChef, _amount);\n\n            user.amount = user.amount.add(_amount);\n            pool.lpSupply = pool.lpSupply.add(_amount);\n            \n            if(pool.pancakeLpId != 0) {\n                PancakeHelper.safeDeposit(pancakeMasterChef, pool.pancakeLpId, _amount);\n            }\n        }\n\n        user.rewardDebt = user.amount.mul(pool.accKeyPerShare).div(1e12);\n        user.lastDepositedTime = block.timestamp;\n        emit PoolStake(msg.sender, _pid, _amount);\n    }\n\n    // Withdraw from a pool\n    function poolWithdraw(uint256 _pid, uint256 _amount) public {\n        PoolInfo storage pool = poolInfo[_pid];\n        UserInfo storage user = userInfo[_pid][msg.sender];\n        require(user.amount >= _amount, \"withdraw: amount is exceed to balance\");\n        updatePool(_pid);\n        uint256 pending = user.amount.mul(pool.accKeyPerShare).div(1e12).sub(user.rewardDebt);\n        if (pending > 0) {\n            TransferHelper.safeReward(key, msg.sender, pending);\n        }\n\n        if (_amount > 0) {\n            user.amount = user.amount.sub(_amount);\n\n            uint256 realAmount = _amount.sub(\n                _amount.mul(_getTransactionFee(user.lastDepositedTime)).div(10000)\n            );\n            if(pool.pancakeLpId !=0) {\n                PancakeHelper.safeWithdraw(pancakeMasterChef, pool.pancakeLpId, _amount);\n                }\n            pool.lpSupply = pool.lpSupply.sub(_amount);\n\n            TransferHelper.safeTransfer(pool.lpToken, msg.sender, realAmount);\n        }\n        user.rewardDebt = user.amount.mul(pool.accKeyPerShare).div(1e12);\n\n        emit PoolWithdraw(msg.sender, _pid, _amount);\n    }\n\n    //Get key from a pool\n    function getKey(uint256 _pid) public {\n        PoolInfo storage pool = poolInfo[_pid];\n        UserInfo storage user = userInfo[_pid][msg.sender];\n        updatePool(_pid);\n        uint256 pending = user.amount.mul(pool.accKeyPerShare).div(1e12).sub(user.rewardDebt);\n        if (pending > 0) {\n            TransferHelper.safeReward(key, msg.sender, pending);\n        }\n        user.rewardDebt = user.amount.mul(pool.accKeyPerShare).div(1e12);\n        emit PoolWithdraw(msg.sender, _pid, 0);\n    }\n\n    function pancakeToToken(address[] calldata _path, uint256 _amount, uint256 deadline) public onlyOwner returns (uint[] memory amounts){\n        IBEP20(_path[0]).approve(pancakeSwap, _amount);\n        amounts = IPancakeSwap(pancakeSwap).swapExactTokensForTokens(_amount, 0, _path, address(this), deadline); // expire time is about 20 min\n        IBEP20(_path[1]).transfer(teamWallet, (amounts[amounts.length-1]).div(2));\n        IBEP20(_path[1]).transfer(devAddress,(amounts[amounts.length-1]).div(2));\n    }\n\n     // receive BNB\n    receive() external payable {\n\n    }\n\n    function getTokenRemaining(address _token, uint256 _amount, bool _isBNB) public onlyOwner{\n        if (_isBNB) {\n            TransferHelper.safeTransferBNB(teamWallet, _amount.div(2));\n            TransferHelper.safeTransferBNB(devAddress, _amount.div(2));\n        } else {\n            TransferHelper.safeTransfer(_token, teamWallet, _amount.div(2));\n            TransferHelper.safeTransfer(_token, devAddress, _amount.div(2));\n        }\n    }\n}",
  "sourcePath": "/Users/badung1870/Working/Node/FWar-Main/SourceCode/SmartContracts/Fwar/FwarPool/contracts/FwarPool.sol",
  "compiler": {
    "name": "solc",
    "version": "0.6.12+commit.27d51765.Emscripten.clang"
  },
  "schemaVersion": "3.4.3",
  "updatedAt": "2021-10-26T19:40:36.647Z",
  "networkType": "ethereum",
  "devdoc": {
    "kind": "dev",
    "methods": {
      "owner()": {
        "details": "Returns the address of the current owner."
      },
      "renounceOwnership()": {
        "details": "Leaves the contract without owner. It will not be possible to call `onlyOwner` functions anymore. Can only be called by the current owner. NOTE: Renouncing ownership will leave the contract without an owner, thereby removing any functionality that is only available to the owner."
      },
      "transferOwnership(address)": {
        "details": "Transfers ownership of the contract to a new account (`newOwner`). Can only be called by the current owner."
      }
    },
    "version": 1
  },
  "userdoc": {
    "kind": "user",
    "methods": {},
    "version": 1
  }
}